:10000000F87F0020110400005768000057680000C6
:1000100057680000576800005768000057680000E4
:1000200057680000576800005768000057680000D4
:1000300057680000576800005768000057680000C4
:1000400057680000576800005768000057680000B4
:1000500057680000576800005768000057680000A4
:100060005768000057680000576800005768000094
:100070005768000057680000576800005768000084
:100080005768000057680000576800005768000074
:100090005768000057680000576800005768000064
:1000A0005768000057680000576800005768000054
:1000B0005768000057680000576800005768000044
:1000C0005768000057680000576800005768000034
:1000D0005768000057680000576800005768000024
:1000E0005768000057680000576800005768000014
:1000F000576800005768000057680000F59E000030
:1001000057680000576800005768000057680000F3
:1001100057680000576800005768000057680000E3
:1001200057680000576800005768000057680000D3
:1001300057680000576800005768000057680000C3
:1001400057680000576800005768000057680000B3
:10015000D5AD00008B9C0000576800005768000078
:100160005768000057680000576800005768000093
:100170005768000057680000576800005768000083
:100180005768000057680000576800005768000073
:100190005768000057680000576800005768000063
:1001A0006B9E00005768000057680000879E0000A3
:1001B0005768000057680000576800005768000043
:1001C0005768000057680000576800005768000033
:1001D0005768000057680000576800005768000023
:1001E0005768000057680000576800005768000013
:10040000FFFFFFFFFFFFFFFFFFFFFFFFFEFFFFFFFD
:1004100062B64FF000004FF000014FF000024FF0C5
:1004200000034FF000044FF000054FF000064FF0BE
:1004300000074FF000084FF000094FF0000A4FF09E
:10044000000B4FF0000C0AF0CFFCFEE7DFF800F0E5
:100450005984FF1FDFF800F0D584FF1F10B50C0092
:10046000002105F099FE04D205F0A8FE20600020CE
:1004700003E0002020605FF0FF3010BD80B5DFF8A2
:10048000D80A0068C0F3801000281CD1052004F0B1
:10049000DBFDDFF8C40A0068C0F38010002812D129
:1004A000DFF8B40A0068C0F380100028F8D00120FB
:1004B000DFF8A81A08700020DFF8A41A08700020DE
:1004C000DFF8A01A087001BD38B504F0C4FA0024A2
:1004D00044E0DFF8940AE4B230F91400DFF88C1A33
:1004E000E4B231F91410401A05F0B2FE0500DFF84D
:1004F000800AE4B230F91400DFF8701AE4B231F97E
:100500001410401A05F0A4FE0100280005F0BAFE00
:10051000DFF8601AE4B241F82400DFF8580AE4B2C8
:1005200050F82400002105F02BFF06D8DFF8480A18
:10053000DFF8401AE4B241F82400DFF8380AE4B2E8
:1005400050F82400DFF8341A05F02CFF05F096FF70
:10055000DFF82C1AE4B221F81400641CE4B2072C72
:10056000B7DB002013E0DFF8181AC0B231F8101022
:10057000DFF8102AB2F90020914207DBDFF8041AF5
:100580000988DFF8FC29C0B222F81010401CC0B264
:100590000728E8DBDFF8E8094089652803DB6420E9
:1005A000DFF8DC194881DFF8D8098089652803DB8A
:1005B0006420DFF8CC198881DFF8C409B0F908009D
:1005C000DFF8BC19B1F90410401ADFF8BC19088033
:1005D000DFF8AC09B0F90200DFF8A419B1F9001096
:1005E000401ADFF8A8190880DFF89409B0F90C0068
:1005F000DFF88C19B1F90A10401ADFF89419088055
:10060000DFF87C09008805F02DFEDFF88819086006
:10061000DFF86C09408805F025FEDFF8781948609E
:10062000DFF85C09808805F01DFEDFF86819886036
:10063000DFF84C09C08805F015FEDFF85819C860CE
:10064000DFF83C09008905F00DFEDFF84819086164
:10065000DFF82C09408905F005FEDFF838194861FC
:10066000DFF81C09808905F0FDFDDFF82819886195
:1006700031BD38B5DFF808098088DFF81C19B1F9F9
:100680000010884280F26881DFF8F4080089DFF802
:100690000819B1F90010884280F25E811E20DFF84F
:1006A000FC180870DFF8D8088088652804DADFF8BD
:1006B000D0080089652878DBDFF8C40880886528C1
:1006C0003BDBDFF8BC080089DFF8B4188988884272
:1006D00033D2DFF8AC080089512808DBDFF8A00826
:1006E000B0F908005A38DFF8B818088038E1DFF8A8
:1006F00090080089332808DBDFF88408008940006F
:10070000AA38DFF89C1808802AE1DFF8740800890D
:100710001F2809DBDFF86808008903214843DC381B
:10072000DFF87C1808801BE1DFF85408008980009E
:10073000FA38DFF86C18088012E1DFF84408808886
:10074000512809DBDFF83808B0F90400D0F15A006D
:10075000DFF84C18088003E1DFF82408808833288C
:1007600009DBDFF81C08808840424000AA30DFF82F
:1007700030180880F4E0DFF8080880881F280ADBBA
:10078000DFF8FC078088404203214843DC30DFF873
:1007900010180880E4E0DFF8E80780884042800015
:1007A000FA30DFF8FC170880DAE02820DFF8EC17D1
:1007B0000870DFF8CC070089DFF8C41789890322A5
:1007C00091FBF2F111FA80F0801CDFF8B4178988F0
:1007D000DFF8AC275289032392FBF3F212FA81F17E
:1007E000814252DADFF898078088322809DBDFF887
:1007F0009007B0F90400D0F13E00DFF8A41708809C
:1008000038E0DFF87C0780881E2809DBDFF87007F6
:100810008088404240007030DFF88417088029E06B
:10082000DFF85C0780880F280ADBDFF85407808830
:100830004042032148438E30DFF86417088019E0F6
:10084000DFF83C07808805280ADBDFF8340780885A
:10085000404205214843AC30DFF84417088009E0E6
:10086000DFF81C078088404206214843B130DFF89A
:1008700030170880DFF82807B0F9000000286FD58E
:100880000020DFF81C1708806AE0DFF8F406808893
:10089000DFF8EC164989032291FBF2F111FA80F09E
:1008A000801CDFF8DC160989DFF8D426928903233F
:1008B00092FBF3F212FA81F1814251DADFF8C006BD
:1008C0000089322808DBDFF8B806B0F908003E38A6
:1008D000DFF8CC16088034E0DFF8A40600891E2873
:1008E00008DBDFF89C06008940007038DFF8B0169E
:1008F000088026E0DFF8880600890F2809DBDFF88A
:1009000080060089032148438E38DFF8941608805A
:1009100017E0DFF86C060089052809DBDFF86006C0
:10092000008905214843AC38DFF87416088008E0D8
:10093000DFF84C06008906214843B138DFF860161D
:100940000880DFF85C06B0F90000012808DB002011
:10095000DFF84C16088003E03220DFF840160870FC
:10096000DFF83C06B0F90000AB2803DBAA20DFF873
:1009700030160880DFF82806B0F9000010F1AA0F41
:1009800004DA7FF0A900DFF818160880DFF81006F7
:100990000088DFF81016C98C401A00B204F042FB40
:1009A000BF2805DBDFF8FC05C08CDFF8F4150880F4
:1009B00000200BE0DFF8EC15C0B211EB40014988D4
:1009C000DFF8E025C0B222F81010401CC0B2132896
:1009D000F0DBDFF8CC050088DFF8C815C8840020FC
:1009E000DFF8C41548800020DFF8BC15088000201F
:1009F00016E0C0B20A2190FBF1F1DFF8AC25C0B2DD
:100A00000A2390FBF3F3DFF8A04534F81330DFF846
:100A10009445C0B234F81040E31822F81130401C5D
:100A2000C0B21428E5DBDFF88005B0F902000A2126
:100A300090FBF1F0DFF870154880DFF86C05B0F935
:100A400000000A2190FBF1F0DFF85C150880DFF868
:100A500058054088DFF848150880DFF84C054088C5
:100A6000DFF844150988401ADFF840150880DFF8E0
:100A70003C05B0F90000332804DB3220DFF82C15E8
:100A800008800BE0DFF82405B0F9000010F1320F08
:100A900004DA7FF03100DFF814150880DFF80C0568
:100AA000B0F9000004F0BEFA242805DBDFF80005E9
:100AB0000088DFF8EC140880DFF8C4040088DFF851
:100AC000D814B1F90010884280F23F81DFF8B004F9
:100AD0004088DFF8C414B1F90010884280F23581F3
:100AE0001E20DFF8D0140870DFF894040088642812
:100AF00004DADFF88C04408864287ADBDFF88004AD
:100B0000008865283CDBDFF878044088DFF8701443
:100B10000988884234D2DFF868044088512808DB0D
:100B2000DFF85C04B0F902005A38DFF88C14088052
:100B30000EE1DFF84C044088332808DBDFF840047E
:100B400040884000AA38DFF87014088000E1DFF820
:100B5000300440881F2809DBDFF824044088800027
:100B6000B0F58770DFF850140880F1E0DFF810046A
:100B700040888000B0F58770DFF83C140880E7E01B
:100B8000DFF8FC030088512809DBDFF8F403B0F933
:100B90000000D0F15A00DFF820140880D8E0DFF818
:100BA000E0030088332809DBDFF8D40300884042E3
:100BB0004000AA30DFF800140880C9E0DFF8C00365
:100BC00000881F280ADBDFF8B80300884042800055
:100BD00010F58770DFF8E0130880B9E0DFF8A003B4
:100BE00000884042800010F58770DFF8CC13088041
:100BF000AEE02820DFF8BC130870DFF8840300881B
:100C0000DFF87C134989022291FBF2F111FA80F09E
:100C1000401CDFF86C134988DFF8642392890223B3
:100C200092FBF3F212FA81F1814240DADFF85003CD
:100C30004088412808DBDFF84803B0F902004C384F
:100C4000DFF87413088083E0DFF83403408832282B
:100C500008DBDFF82C03B0F902004D38DFF8581339
:100C6000088075E0DFF8180340881E2808DBDFF8ED
:100C70001003408840007F38DFF83C13088067E0AD
:100C8000DFF8FC0240880F2808DBDFF8F402408818
:100C90008000BB38DFF82013088059E0B84840884E
:100CA00005214843CA38DFF81013088050E0B448E3
:100CB0004088B3498989022291FBF2F111FA80F050
:100CC000401CAF490988AE4A5289022392FBF3F2D5
:100CD00012FA81F181423BDAA9480088412807DBFA
:100CE000A748B0F90000D0F14C00B34908802FE0CC
:100CF000A3480088322807DBA148B0F90000D0F1F2
:100D00004B00AD49088023E09D4800881E2807DB82
:100D10009B480088404240007F30A749088017E088
:100D2000974800880F2807DB9548008840428000DC
:100D3000BB30A14908800BE0914800884042052162
:100D40004843CA309C49088002E032209949087023
:100D50009948B0F90000C92803DBC82096490880EB
:100D600009E09548B0F9000010F1C80F03DA7FF0F0
:100D7000C70091490880904800889049C98C401A62
:100D800000B204F04FF9DD2803DB8C48C08C8A499F
:100D90000880002009E08949C0B211EB4001498870
:100DA000864AC0B222F81010401CC0B21328F2DBF1
:100DB000814800888149C8840020814948800020FA
:100DC0007F490880002013E0C0B20A2190FBF1F1B6
:100DD0007B4AC0B20A2390FBF3F3794C34F813300A
:100DE000764CC0B234F81040E31822F81130401CA1
:100DF000C0B21428E8DB7248B0F902000A2190FB67
:100E0000F1F06F4948806E48B0F900000A2190FB6C
:100E1000F1F06B4908806A48408867490880684853
:100E2000408867490988401A664908806548B0F9D2
:100E30000000332803DB32206249088009E0614862
:100E4000B0F9000010F1320F03DA7FF031005D4994
:100E500008805C48B0F9000004F0E4F81F2803DBC8
:100E60005948008854490880002020E0574AC0B201
:100E7000502303FB0022C9B2544BC0B2502404FBE0
:100E80000033C9B213EB41035B8822F81130491CCF
:100E9000C9B22729EADB3A49C0B231F910104B4AEE
:100EA000C0B2502303FB0022A2F84E10401CC0B277
:100EB000072801DA0021EBE700201EE0444AC0B217
:100EC0004E2303FB0022C9B2404BC0B2502404FBA6
:100ED0000033C9B213EB41035B883C4CC0B25025D0
:100EE00005FB0044C9B234F811401B1B22F8113035
:100EF000491CC9B22729E1DB401CC0B2072801DA2E
:100F00000021F6E7002005E00021324AC0B222F8B5
:100F10001010401CC0B20728F6DB002015E02D4A57
:100F2000C0B232F810202A4BC0B24E2404FB00336A
:100F3000C9B233F811309A18264BC0B223F81020EA
:100F4000491CC9B22729EADB401CC0B2072801DAD4
:100F50000021F6E731BD0000D0F00F405E92FF1F88
:100F60007292FF1F7192FF1F9486FF1FC88BFF1F95
:100F7000B88BFF1FD88BFF1F6F12833A0000C84247
:100F8000A88BFF1F6C85FF1F1692FF1F1892FF1F73
:100F90001A92FF1FA88CFF1F6E85FF1F6892FF1F0C
:100FA0001C92FF1FF48BFF1F6C8CFF1F1E92FF1FF4
:100FB0002492FF1F6992FF1F2092FF1F448CFF1F86
:100FC000708CFF1F2292FF1F2692FF1F0887FF1FB2
:100FD0003889FF1F5C8BFF1F38B51121012005F0F8
:100FE000E4FA002840F0E784DFF8EC08B0F90000EC
:100FF000AA280CD1DFF8E408B0F9000010F1AA0F1C
:1010000005D1AA20DFF8D818088001F0E9BADFF886
:10101000C808B0F9000010F1AA0F0CD1DFF8BC0825
:10102000B0F90000AA2806D17FF0A900DFF8B018B7
:10103000088001F0D5BADFF8A008B0F90000DFF8A9
:101040009C18B1F9001010FB01F0002840F1FB8062
:10105000DFF88408B0F9000003F0E4FF332807DB71
:10106000DFF874080088DFF87818088001F0B8BA53
:10107000DFF86408B0F9000003F0D4FF1F2840DB5C
:10108000DFF85808B0F9000003F0CCFF1F2807DB99
:10109000DFF844080088DFF84818088001F0A0BA9B
:1010A000DFF83808B0F9000003F0BCFF0B2812DBB2
:1010B000DFF82408B0F90000DFF82018B1F90010BB
:1010C000490011EBC0000A2190FBF1F0DFF8101885
:1010D000088001F085BADFF80008B0F900000721A8
:1010E00010FB01F0DFF8F417B1F90010032211FB37
:1010F00002000A2190FBF1F0DFF8E417088001F00C
:101100006FBADFF8D407B0F9000003F08BFF0B28AB
:101110004CDBDFF8C807B0F9000003F083FF1F289D
:1011200012DBDFF8B407B0F90000DFF8B017B1F94F
:101130000010490011EBC0000A2190FBF1F0DFF82C
:10114000A017088001F04CBADFF89007B0F9000052
:1011500003F068FF0B2815DBDFF87C07B0F900000F
:10116000072110FB01F0DFF87417B1F9001003221A
:1011700011FB02000A2190FBF1F0DFF864170880F0
:1011800001F02EBADFF85007B0F900000621DFF8B1
:101190004C27B2F90020920010FB01200A2190FB9D
:1011A000F1F0DFF83C17088001F01ABADFF82C07DD
:1011B000B0F9000003F036FF1F2812DBDFF8180734
:1011C000B0F90000DFF81417B1F90010490011EB75
:1011D000C0000A2190FBF1F0DFF80417088001F04D
:1011E000FFB9DFF8F806B0F9000003F01BFF0B2889
:1011F00015DBDFF8E406B0F90000072110FB01F071
:10120000DFF8D816B1F90010032211FB02000A2101
:1012100090FBF1F0DFF8C816088001F0E1B9DFF8C3
:10122000B806B0F900000621DFF8B026B2F90020B8
:10123000920010FB01200A2190FBF1F0DFF8A016CC
:10124000088001F0CDB9DFF89006B0F90000DFF8B2
:101250008C16B1F9001010FB01F00128C0F20F83C9
:10126000DFF87406B0F9000003F0DCFE8D2879DBAE
:10127000DFF86806B0F9000003F0D4FE8D2815DB16
:10128000DFF85406B0F90000072110FB01F0DFF889
:101290004C16B1F90010032211FB02000A2190FB49
:1012A000F1F0DFF83C16088001F09AB9DFF82C065F
:1012B000B0F9000003F0B6FE652815DBDFF818066C
:1012C000B0F90000072110FB01F0DFF81016B1F9AA
:1012D0000010032211FB02000A2190FBF1F0DFF85D
:1012E0000016088001F07CB9DFF8F005B0F90000C5
:1012F00003F098FE472812DBDFF8DC05B0F90000A8
:10130000DFF8D815B1F90010490011EBC0000A212F
:1013100090FBF1F0DFF8C815088001F061B9DFF843
:10132000BC05B0F9000003F07DFE332812DBDFF8C6
:10133000A805B0F900000921DFF8A025B2F90020C6
:1013400010FB01200A2190FBF1F0DFF894150880D2
:1013500001F046B9DFF880050088DFF884150880C1
:1013600001F03EB9DFF87005B0F9000003F05AFE55
:101370007928C0F2A280DFF86405B0F9000003F01C
:1013800051FE832813DBDFF85005B0F90000062179
:10139000DFF84825B2F90020920010FB01200A2155
:1013A00090FBF1F0DFF83815088001F019B9DFF88B
:1013B0002C05B0F9000003F035FE652813DBDFF8DB
:1013C0001805B0F900000621DFF81025B2F9002059
:1013D000920010FB01200A2190FBF1F0DFF80015CC
:1013E000088001F0FDB8DFF8F404B0F9000003F064
:1013F00019FE472815DBDFF8E004B0F900000721EB
:1014000010FB01F0DFF8D414B1F90010032211FB36
:1014100002000A2190FBF1F0DFF8C414088001F00B
:10142000DFB8DFF8B804B0F9000003F0FBFD3328A3
:1014300015DBDFF8A404B0F90000072110FB01F070
:10144000DFF89814B1F90010032211FB02000A2101
:1014500090FBF1F0DFF88814088001F0C1B8DFF8E4
:101460007C04B0F9000003F0DDFD152812DBDFF885
:101470006804B0F90000DFF86414B1F90010490005
:1014800011EBC0000A2190FBF1F0DFF85414088042
:1014900001F0A6B8DFF84004B0F900000921DFF838
:1014A0003C24B2F9002010FB01200A2190FBF1F04E
:1014B000DFF82C14088001F093B8DFF81C04B0F9B1
:1014C000000003F0AFFD632881F28A80DFF8080492
:1014D000B0F9000003F0A6FD4728C0F29A80DFF8BB
:1014E000FC03B0F9000003F09DFD832812DBDFF858
:1014F000E803B0F90000DFF8E413B1F90010C90007
:1015000011EB40000A2190FBF1F0DFF8D4130880C2
:1015100001F066B8DFF8C403B0F9000003F082FD03
:10152000652815DBDFF8B003B0F90000032110FBDC
:1015300001F0DFF8A813B1F90010072211FB020037
:101540000A2190FBF1F0DFF89813088001F048B809
:10155000DFF88803B0F9000003F064FD472813DBCF
:10156000DFF87403B0F900008000DFF87013B1F900
:101570000010062211FB02000A2190FBF1F0DFF8B7
:101580006013088001F02CB8DFF85003B0F90000B8
:1015900003F048FD332812DBCF48B0F900000521E5
:1015A00010FB01F0CD49B1F90010052211FB02003A
:1015B0000A2190FBF1F0CA49088001F011B8C74830
:1015C000B0F9000003F02EFD152812DBC248B0F977
:1015D0000000072110FB01F0C049B1F900100322FF
:1015E00011FB02000A2190FBF1F0BD49088000F0D8
:1015F000F7BFB948B0F90000B849B1F90010490087
:1016000011EBC0000A2190FBF1F0B549088000F011
:10161000E7BFB148B0F9000003F004FD452880F2AF
:10162000DF87AD48B0F9000003F0FCFC2928C0F2C8
:101630008D80AA48B0F9000003F0F4FC832812DB87
:10164000A548B0F90000072110FB01F0A349B1F94A
:101650000010032211FB02000A2190FBF1F0A049C7
:10166000088000F0BDBF9D48B0F9000003F0DAFC2F
:1016700065280FDB9848B0F900009849B1F90010CF
:10168000490011EBC0000A2190FBF1F09449088059
:1016900000F0A6BF9148B0F9000003F0C3FC472852
:1016A00012DB8D48B0F90000072110FB01F08B49D7
:1016B000B1F90010032211FB02000A2190FBF1F0A6
:1016C0008749088000F08CBF8448B0F9000003F01F
:1016D000A9FC332810DB8048B0F9000006217F4ABE
:1016E000B2F90020920010FB01200A2190FBF1F0DA
:1016F0007B49088000F074BF7848B0F9000003F01F
:1017000091FC152812DB7448B0F90000072110FB8A
:1017100001F07249B1F90010032211FB02000A2105
:1017200090FBF1F06E49088000F05ABF6A48B0F9AA
:1017300000006A49B1F90010490011EBC0000A210C
:1017400090FBF1F06649088000F04ABF6248B0F9AA
:10175000000003F067FC272880F242875F48B0F959
:10176000000003F05FFC832812DB5B48B0F9000047
:10177000072110FB01F05949B1F90010032211FBB8
:1017800002000A2190FBF1F05549088000F028BFC3
:101790005248B0F9000003F045FC652812DB4E48C2
:1017A000B0F90000072110FB01F04C49B1F900101D
:1017B000032211FB02000A2190FBF1F04849088046
:1017C00000F00EBF4548B0F9000003F02BFC47289D
:1017D00012DB4148B0F90000072110FB01F03F493E
:1017E000B1F90010032211FB02000A2190FBF1F075
:1017F0003B49088000F0F4BE3848B0F9000003F01F
:1018000011FC332810DB3448B0F900000621334ABC
:10181000B2F90020920010FB01200A2190FBF1F0A8
:101820002F49088000F0DCBE2C48B0F9000003F01E
:10183000F9FB152810DB2848B0F900000621274ADB
:10184000B2F90020920010FB01200A2190FBF1F078
:101850002349088000F0C4BE1F48B0F900000521EC
:1018600010FB01F01D49B1F90010052211FB020027
:101870000A2190FBF1F01A49088000F0B1BE164829
:10188000B0F9000000283CD11448B0F9000000284D
:1018900037D01248B0F9000003F0C4FB332809DB4D
:1018A0000E48B0F90000042190FBF1F00C490880CB
:1018B00000F096BE0948B0F9000003F0B3FB1F2802
:1018C00010DB0648B0F9000080000A2190FBF1F01F
:1018D0000349088000F084BE1C92FF1F2092FF1F66
:1018E0002A92FF1FDFF8240EB0F90000052110FB3B
:1018F00001F00A2190FBF1F0DFF8141E088000F0DF
:101900006FBEDFF8100EB0F9000000284BD0DFF8F2
:10191000FC0DB0F90000002845D1DFF8F80DB0F952
:10192000000003F07FFB652807DBDFF8E80D008887
:10193000DFF8DC1D088000F053BEDFF8D80DB0F9E9
:10194000000003F06FFB332807DBDFF8C80D0088C9
:10195000DFF8BC1D088000F043BEDFF8B80DB0F919
:10196000000003F05FFB1F280EDBDFF8A80DB0F9C5
:101970000000072110FB01F00A2190FBF1F0DFF8D5
:10198000901D088000F02CBEDFF8880DB0F9000033
:10199000062110FB01F00A2190FBF1F0DFF8701D29
:1019A000088000F01DBEDFF86C0D0088DFF8601DB8
:1019B000088000F015BEDFF85C0DB0F90000AA2821
:1019C0000CD1DFF8480DB0F9000010F1A90F05DACD
:1019D000AA20DFF83C1D088000F002BEDFF8340DBD
:1019E000B0F9000010F1AA0F0CD1DFF8200DB0F90A
:1019F0000000AA2806DB7FF0A900DFF8141D08808C
:101A000000F0EEBDDFF80C0DB0F90000DFF8FC1CB3
:101A1000B1F9001010FB01F0002840F1FB80DFF865
:101A2000F40CB0F9000003F0FDFA332807DBDFF80F
:101A3000E40C0088DFF8D81C088000F0D1BDDFF886
:101A4000D40CB0F9000003F0EDFA1F2840DBDFF8FA
:101A5000BC0CB0F9000003F0E5FA1F2807DBDFF843
:101A6000B40C0088DFF8A81C088000F0B9BDDFF8CE
:101A70009C0CB0F9000003F0D5FA0B2812DBDFF85C
:101A8000940CB0F90000DFF8841CB1F90010490093
:101A900011EBC0000A2190FBF1F0DFF8741C088004
:101AA00000F09EBDDFF86C0CB0F90000072110FBC0
:101AB00001F0DFF8581CB1F90010032211FB0200FD
:101AC0000A2190FBF1F0DFF8481C088000F088BD87
:101AD000DFF8400CB0F9000003F0A4FA0B284CDB4F
:101AE000DFF8280CB0F9000003F09CFA1F2812DB85
:101AF000DFF8200CB0F90000DFF8101CB1F900107D
:101B0000490011EBC0000A2190FBF1F0DFF8001C46
:101B1000088000F065BDDFF8F40BB0F9000003F0B9
:101B200081FA0B2815DBDFF8EC0BB0F90000072178
:101B300010FB01F0DFF8D41BB1F90010032211FBF8
:101B400002000A2190FBF1F0DFF8C41B088000F0CE
:101B500047BDDFF8C00BB0F900000621DFF8AC2B61
:101B6000B2F90020920010FB01200A2190FBF1F055
:101B7000DFF89C1B088000F033BDDFF8900BB0F954
:101B8000000003F04FFA1F2812DBDFF8880BB0F9D2
:101B90000000DFF8781BB1F90010490011EBC0001C
:101BA0000A2190FBF1F0DFF8681B088000F018BDF7
:101BB000DFF8580BB0F9000003F034FA0B2815DBFE
:101BC000DFF8500BB0F90000072110FB01F0DFF83F
:101BD0003C1BB1F90010032211FB02000A2190FB0B
:101BE000F1F0DFF82C1B088000F0FABCDFF8240BC2
:101BF000B0F900000621DFF8142BB2F900209200A2
:101C000010FB01200A2190FBF1F0DFF8041B088093
:101C100000F0E6BCDFF8FC0AB0F90000DFF8EC1ACF
:101C2000B1F9001010FB01F00128C0F25384DFF875
:101C3000E40AB0F9000003F0F5F98D287ADBDFF84B
:101C4000CC0AB0F9000003F0EDF98D2815DBDFF8C0
:101C5000C40AB0F90000052110FB01F0DFF8AC1A4E
:101C6000B1F90010052211FB02000A2190FBF1F0EE
:101C7000DFF89C1A088000F0B3BCDFF8900AB0F9D6
:101C8000000003F0CFF9652813DBDFF8880AB0F90C
:101C900000000621DFF8742AB2F90020920010FB40
:101CA00001200A2190FBF1F0DFF8641A088000F0AF
:101CB00097BCDFF8580AB0F9000003F0B3F94728E1
:101CC00015DBDFF8500AB0F90000072110FB01F026
:101CD000DFF8381AB1F90010032211FB02000A21C3
:101CE00090FBF1F0DFF8281A088000F079BCDFF8EB
:101CF0001C0AB0F9000003F095F9332812DBDFF875
:101D0000140AB0F90000DFF8041AB1F90010490014
:101D100011EBC0000A2190FBF1F0DFF8F419088004
:101D200000F05EBCDFF8EC090088DFF8E4190880F9
:101D300000F056BCDFF8DC09B0F9000003F072F9DE
:101D40007928C0F29D80DFF8C409B0F9000003F0E3
:101D500069F9832815DBDFF8BC09B0F9000005211B
:101D600010FB01F0DFF8A419B1F90010052211FBF6
:101D700002000A2190FBF1F0DFF89419088000F0CE
:101D80002FBCDFF88809B0F9000003F04BF9652893
:101D900013DBDFF88009B0F900000621DFF86C29B9
:101DA000B2F90020920010FB01200A2190FBF1F013
:101DB000DFF85C19088000F013BCDFF85009B0F9B7
:101DC000000003F02FF9472814DBDFF84809B0F9C9
:101DD0000000072110FB01F0DFF83019B1F9001005
:101DE000032211FB02000A2190FBF1F0DFF8201919
:101DF0000880F5E3DFF81409B0F9000003F012F9E8
:101E0000332811DBDFF80C09B0F90000DFF8FC180B
:101E1000B1F90010490011EBC0000A2190FBF1F06C
:101E2000DFF8EC180880DBE3DFF8E008B0F9000029
:101E300003F0F8F8152811DBDFF8D808B0F9000036
:101E40000921DFF8C828B2F9002010FB01200A217F
:101E500090FBF1F0DFF8B8180880C1E3DFF8B408B0
:101E6000B0F900000921DFF8A428B2F9002010FB26
:101E700001200A2190FBF1F0DFF894180880AFE30D
:101E8000DFF89008B0F9000003F0CCF86528C0F244
:101E90009C80DFF87808B0F9000003F0C3F88328CD
:101EA00012DBDFF87008B0F900008000DFF85C1882
:101EB000B1F90010062211FB02000A2190FBF1F09B
:101EC000DFF84C1808808BE3DFF84008B0F9000019
:101ED00003F0A8F8652814DBDFF83808B0F9000033
:101EE000052110FB01F0DFF82418B1F900100522DC
:101EF00011FB02000A2190FBF1F0DFF814180880B2
:101F00006EE3DFF80808B0F9000003F08BF847280B
:101F100012DBDFF80008B0F900000621DFF8EC273B
:101F2000B2F90020920010FB01200A2190FBF1F091
:101F3000DFF8DC17088053E3DFF8D007B0F90000C2
:101F400003F070F8332814DBDFF8C807B0F900009D
:101F5000072110FB01F0DFF8B417B1F900100322DC
:101F600011FB02000A2190FBF1F0DFF8A4170880B2
:101F700036E3DFF89807B0F9000003F053F81528AE
:101F800011DBDFF89007B0F90000DFF88017B1F936
:101F90000010490011EBC0000A2190FBF1F0DFF8BE
:101FA000701708801CE3DFF86C07B0F90000092106
:101FB000DFF85827B2F9002010FB01200A2190FB1E
:101FC000F1F0DFF84C1708800AE3DFF84807B0F9B2
:101FD000000003F027F85128C0F29C80DFF82C079E
:101FE000B0F9000003F01EF8832814DBDFF82407A3
:101FF000B0F90000032110FB01F0DFF81017B1F970
:102000000010072211FB02000A2190FBF1F0DFF81B
:1020100000170880E4E2DFF8F406B0F9000003F0EE
:1020200001F8652812DBDFF8EC06B0F9000080004B
:10203000DFF8D816B1F90010062211FB02000A21C0
:1020400090FBF1F0DFF8C8160880C9E2DFF8BC06A3
:10205000B0F9000002F0E6FF472814DBDFF8B40611
:10206000B0F90000052110FB01F0DFF8A016B1F96E
:102070000010052211FB02000A2190FBF1F0DFF8AD
:1020800090160880ACE2DFF88406B0F9000002F098
:10209000C9FF332812DBDFF87C06B0F90000062107
:1020A000DFF86826B2F90020920010FB01200A2117
:1020B00090FBF1F0DFF85816088091E2DFF84C064B
:1020C000B0F9000002F0AEFF152811DBDFF844067E
:1020D000B0F90000DFF83416B1F90010490011EB37
:1020E000C0000A2190FBF1F0DFF82416088077E2A7
:1020F000DFF82006B0F900000921DFF81026B2F958
:10210000002010FB01200A2190FBF1F0DFF80016FF
:10211000088065E2DFF8FC05B0F9000002F082FFFC
:102120003D28C0F29B80DFF8E405B0F9000002F022
:1021300079FF832811DBDFF8DC05B0F90000DFF858
:10214000CC15B1F90010C90011EB40000A2190FB39
:10215000F1F0DFF8BC15088042E2DFF8B005B0F915
:10216000000002F05FFF652814DBDFF8A805B0F976
:102170000000032110FB01F0DFF89015B1F9001009
:10218000072211FB02000A2190FBF1F0DFF8801515
:10219000088025E2DFF87405B0F9000002F042FF84
:1021A000472812DBDFF86C05B0F900008000DFF88B
:1021B0005C15B1F90010062211FB02000A2190FB08
:1021C000F1F0DFF84C1508800AE2DFF84005B0F9BD
:1021D000000002F027FF332814DBDFF83805B0F9E0
:1021E0000000052110FB01F0DFF82015B1F9001007
:1021F000052211FB02000A2190FBF1F0DFF8101517
:102200000880EDE1DFF80405B0F9000002F00AFFF4
:10221000152811DBDFF8FC04B0F90000DFF8EC143E
:10222000B1F90010490011EBC0000A2190FBF1F058
:10223000DFF8DC140880D3E1DFF8D804B0F900003F
:102240000921DFF8C824B2F9002010FB01200A217F
:1022500090FBF1F0DFF8B8140880C1E1DFF8B404B6
:10226000B0F9000002F0DEFE2928C0F29C80DFF801
:102270009C04B0F9000002F0D5FE832811DBDFF8E2
:102280009404B0F90000DFF88414B1F900100922B9
:1022900011FB02000A2190FBF1F0DFF874140880B2
:1022A0009EE1DFF86804B0F9000002F0BBFE65288B
:1022B00011DBDFF86004B0F90000DFF85014B1F969
:1022C0000010C90011EB40000A2190FBF1F0DFF88B
:1022D0004014088084E1DFF83404B0F9000002F013
:1022E000A1FE472814DBDFF82C04B0F9000003211D
:1022F00010FB01F0DFF81414B1F90010072211FBF4
:1023000002000A2190FBF1F0DFF80414088067E175
:10231000DFF8F803B0F9000002F084FE332812DB86
:10232000DFF8F003B0F900008000DFF8E013B1F946
:102330000010062211FB02000A2190FBF1F0DFF8E9
:10234000D01308804CE1DFF8C403B0F9000002F0BC
:1023500069FE152812DBDFF8BC03B0F9000080002D
:10236000DFF8A813B1F90010062211FB02000A21C0
:1023700090FBF1F0DFF89813088031E1DFF8940367
:10238000B0F90000052110FB01F0DFF88013B1F96E
:102390000010052211FB02000A2190FBF1F0DFF88A
:1023A000701308801CE1DFF86C03B0F9000002F044
:1023B00039FE272880F21481DFF85003B0F90000BD
:1023C00002F030FE832813DBDFF84803B0F9000089
:1023D000032110FB01F0DFF83413B1F900100722DC
:1023E00011FB02000A2190FBF1F0C9490880F7E0D7
:1023F000C648B0F9000002F015FE652811DBC5489B
:10240000B0F90000032110FB01F0C049B1F9001040
:10241000072211FB02000A2190FBF1F0BC49088061
:10242000DEE0BA48B0F9000002F0FCFD47280FDBFF
:10243000B848B0F900008000B449B1F90010062294
:1024400011FB02000A2190FBF1F0B1490880C7E0BE
:10245000AE48B0F9000002F0E5FD33280FDBAD48CF
:10246000B0F900008000A949B1F90010062211FB63
:1024700002000A2190FBF1F0A5490880B0E0A348D2
:10248000B0F9000002F0CEFD152811DBA148B0F92B
:102490000000052110FB01F09C49B1F90010052254
:1024A00011FB02000A2190FBF1F09949088097E0A6
:1024B0009848B0F90000052110FB01F09349B1F9EB
:1024C0000010052211FB02000A2190FBF1F0904957
:1024D000088085E08F48B0F90000002833D18B4890
:1024E000B0F9000000282ED08848B0F9000002F0B2
:1024F00099FD332808DB8548B0F90000022190FBE4
:10250000F1F0834908806BE08048B0F9000002F0E8
:1025100089FD1F280BDB7D48B0F90000062110FB68
:1025200001F00A2190FBF1F07949088058E07748E2
:10253000B0F90000072110FB01F00A2190FBF1F037
:10254000734908804CE07348B0F9000000283BD084
:102550006E48B0F90000002836D16E48B0F900008E
:1025600002F060FD652804DB6A480088684908803D
:1025700036E06848B0F9000002F054FD332804DB6F
:1025800064480088624908802AE06248B0F9000087
:1025900002F048FD1F280BDB5E48B0F90000072160
:1025A00010FB01F00A2190FBF1F05949088017E077
:1025B0005848B0F90000062110FB01F00A2190FBF9
:1025C000F1F0534908800BE05248B0F90000800058
:1025D0004E49B1F90010062211FB02004C49088057
:1025E000DFF820090078002840F07C81DFF8180926
:1025F000B0F9000002F016FD2928C0F2A480DFF82F
:102600000C0940890F2805DBDFF8000980890F28B5
:1026100080F29980DFF8F4080088322880F29380F5
:10262000DFF8E8084088322880F28D80DFF8E00883
:10263000B0F9000002F0F6FC142880F28480DFF884
:10264000CC084088DFF8C418C98888427BD2DFF8FC
:10265000BC080088DFF8B418C988884273D2DFF854
:10266000B408B0F9000000286DD5DFF8A808B0F96B
:102670000200002867D5DFF89C08B0F904000028A4
:1026800061D5DFF89008B0F9060000285BD5DFF8C7
:102690008408B0F90800002855D51E48B0F900009C
:1026A00002F0C0FC14280BDA1848B0F9000002F060
:1026B000B9FC652804DB0120DFF84818087039E010
:1026C0001448B0F9000002F0ADFC28280BDA0F48DE
:1026D000B0F9000002F0A6FC832804DB0120DFF83B
:1026E0002418087026E00B48B0F9000002F09AFCAC
:1026F000322811DA0548B0F9000002F093FC8D2869
:102700000ADB0120DFF8FC17087013E02092FF1F9E
:102710002A92FF1F1C92FF1FDFF8F00700881E2877
:1027200008DADFF8E80740881E2803DA0120DFF81E
:10273000D4170870DFF8E027D2E9000103F044FF66
:10274000DFF8D8170860DFF8C4074089512825DB77
:10275000DFF8B8078089512820DBDFF8880BB0F953
:102760000000DFF8A417B1F9001010FB01F00028F9
:1027700009D5DFF8700B0088DFF88C170988081876
:10278000DFF8601B0880DFF85C0BB0F90000022165
:1027900090FBF1F0DFF84C1B0880A3E0DFF86C073A
:1027A00040891A285CDBDFF8640780891A2857DB28
:1027B000DFF85807C088472852DBDFF85007C08889
:1027C00051283ADBDFF84407B0F90400DFF83C1782
:1027D000B1F90810401A00B202F024FC1E282CDACD
:1027E000DFF82807B0F90000DFF82017B1F9021070
:1027F000401A00B202F016FC0B281EDBDFF80C07B3
:1028000080883D2804DADFF8040700893D2814DBBE
:10281000DFF8D40AB0F90000072110FB01F0DFF85F
:102820002C16B1F90010032211FB02000A2190FBC3
:10283000F1F0DFF8B01A088054E0DFF8AC0AB0F924
:1028400000000621DFF80426B2F90020920010FBF8
:1028500001200A2190FBF1F0DFF8881A088041E09E
:10286000DFF8A806B0F90A00DFF8A016B1F90C10DD
:10287000401A00B202F0D6FB0A2833DADFF88C06E1
:1028800040890A282EDADFF8840680890A2829DAA6
:10289000DFF8580AB0F9000002F0C4FB1E2821DA64
:1028A000DFF86C06B0F9000002F0BCFB1E2819DA54
:1028B000DFF85806C088512814DBDFF8500600897D
:1028C000DFF848160989DFF84426928812FA81F168
:1028D000022291FBF2F1401A032190FBF1F0DFF8A4
:1028E000041A0880DFF81C060078002855D0012261
:1028F0000821042003F037FEDFF8F4090068401CCB
:10290000DFF8EC190860DFF804068089DFF8FC15B1
:102910004989884205D27FF08B00DFF8C81908800A
:102920000BE0DFF8E8054089DFF8E0158989884287
:1029300003D28C20DFF8AC190880DFF8B4090068F6
:10294000C92815DADFF8D405006803F085FE020017
:102950000B00DFF8C445D4E9000103F0A5FE03F045
:1029600033FE02F068FBDFF88C1903F015FC14D875
:102970000020DFF8901508700020DFF87C1908703F
:102980000020DFF8781908700020DFF8641908606B
:1029900000220821042003F0E6FD1421012003F0A9
:1029A00004FE002840F02C81DFF85409007800284C
:1029B00042D1DFF85009B0F90000DFF8501509885E
:1029C000884208DADFF844054088DFF83819B1F9A1
:1029D0000010884211DBDFF834050088DFF8241985
:1029E000B1F90010884227DADFF81809B0F90000C1
:1029F000DFF81815498888421EDADFF8100540898B
:102A0000142804DBDFF804058089142814DADFF8C1
:102A1000DC08B0F9000002F005FB29280CDB0120DE
:102A2000DFF8DC180870DFF8E028D2E9000103F0D5
:102A3000CBFDDFF8D8180860DFF8C408007800285C
:102A400023D0DFF8C808006803F006FE02000B0080
:102A5000DFF8B448D4E9000103F026FE0122DFF8D4
:102A6000B03803F0E1FE10D800220821042003F062
:102A70007AFD0020DFF8881808700020DFF894182D
:102A800008700020DFF884180860DFF87408007808
:102A9000012823D101220821042003F064FD1E2017
:102AA000DFF870180870DFF83C08B0F90000002863
:102AB00007D5DFF8300800882838DFF828180880A4
:102AC0000CE0DFF82008B0F90000012806DBDFF891
:102AD000140800882830DFF80C180880DFF8380860
:102AE000007800283AD1DFF81C08B0F90000DFF8C0
:102AF0001C148988884208DADFF810040089DFF89E
:102B00000418B1F9001088421BDBDFF8000480884C
:102B1000DFF8F017B1F9001088421FDADFF8E40798
:102B2000B0F90000DFF8E4130989884216DADFF80B
:102B3000DC034089142804DBDFF8D00380891428E3
:102B40000CDA0120DFF8D0170870DFF8BC27D2E9D3
:102B5000000103F039FDDFF8C4170860DFF8B8079B
:102B60000078002823D0DFF8B407006803F074FD74
:102B700002000B00DFF89047D4E9000103F094FD58
:102B80000122DFF89C3703F04FFE10D80022082105
:102B9000042003F0E8FC0020DFF87C170870002018
:102BA000DFF8701708700020DFF870170860DFF892
:102BB00068070078012823D101220821042003F0AE
:102BC000D2FC1E20DFF84C170870DFF81807B0F9A8
:102BD0000000002807D5DFF80C0700882838DFF848
:102BE000041708800CE0DFF8FC06B0F900000128AB
:102BF00006DBDFF8F00600882830DFF8E8160880EA
:102C00001221012003F0D1FC00283FD1DFF8D408C5
:102C10000068002103F020FE12D0DFF8C808006829
:102C200003F01AFD02000B00DFF8DC46D4E90001D6
:102C300003F03AFD0122DFF8B03803F0F5FD25D8A6
:102C4000DFF8A828D2E900010122DFF8A43803F058
:102C5000EBFD1BD8DFF89C080078002816D1122164
:102C6000012003F0A2FC002810D10120DFF8841815
:102C700008701F20DFF89C160870DFF88C26D2E958
:102C8000000103F0A1FCDFF85C180860DFF86408BD
:102C90000078012826D1DFF84C08006803F0DCFC3E
:102CA00002000B00DFF86046D4E9000103F0FCFCF1
:102CB00002000B0014001D00DFF83C08006803F060
:102CC000CBFC22002B0003F0D5FD0BD20020DFF857
:102CD0002418087000220821042003F044FC5B2023
:102CE00003F0E3FDDFF80C080078012815D101227C
:102CF0000821042003F037FCDFF8F005B0F90000EC
:102D0000022190FBF1F0DFF8DC1508805B2003F076
:102D100015FE0020DFF8E417087031BD10B5DFF8AC
:102D2000C405B0F9000003F093FADFF8D41709687E
:102D300003F038FB0400DFF8CC07B0F90000DFF83F
:102D4000C817B1F9001010FB01F003F081FA21005F
:102D500003F052FE03F092FBDFF8B017088000206A
:102D60000BE0DFF8AC17C0B211EB40014988DFF887
:102D7000A027C0B222F81010401CC0B21328F0DB0C
:102D8000DFF888070088DFF88817C884DFF8800735
:102D9000B0F9260002F046F90400DFF87407B0F934
:102DA000140002F03FF9201ADFF868170880DFF8F6
:102DB00034050088DFF860170880DFF82C050088EC
:102DC000DFF85817088021480088DFF8541708807A
:102DD00010BD80B5DFF84C070088DFF84C1708807D
:102DE000DFF848070088DFF8241709880818DFF89B
:102DF00034170880DFF82C070088DFF82C170988C3
:102E0000401ADFF82C170880DFF81807B0F9000027
:102E100043F2C821884204DA43F2C820DFF80417DD
:102E20000880DFF80007B0F9000044F659518842E5
:102E300004DB44F65850DFF8EC160880DFF8E406AF
:102E4000B0F9000003F0ECFE01BD00002092FF1F6E
:102E500010B5DFF8E4060078401CDFF8DC160870D7
:102E6000DFF8D4060078142803DB0020DFF8C8164A
:102E70000870DFF8C8060068DFF8C416DFF8B82667
:102E8000127821F812000020DFF8B0160860DFF891
:102E9000B006DFF8A416097830F9110003F0D8F96C
:102EA000DFF8A016096803F04DFFDFF89C160968EB
:102EB00003F078FADFF88C16096803F09DFDDFF85F
:102EC00084160860DFF87C06006803F0D7FA03F088
:102ED000BFF9DFF878160860DFF87006006803F0C5
:102EE000BBFBDFF86C26DFF86C3603F09FFFDFF8E2
:102EF0001844D4E9002304F0BDF8DFF80C24C2E93B
:102F0000000110BD6A92FF1F1A92FF1FA88BFF1FBE
:102F10001892FF1F5C8BFF1F7086FF1F688FFF1FBB
:102F200010B51321012003F040FB002840F0B180D0
:102F3000DFF80006006835214843642190FBF1F07A
:102F400003F086F9DFF810160860DFF8C005B0F965
:102F5000000002F067F8B0F52F7F0ADADFF8F80515
:102F60000068DFF8F81503F047FDDFF8EC1508609E
:102F700008E1DFF89805B0F9000002F053F8B0F569
:102F80002F7F22DDDFF88405B0F9000002F04AF857
:102F9000B0F57A7F19DCDFF87405B0F9000002F0B3
:102FA00041F8D0F52F701E2190FBF1F003F050F99D
:102FB000DFF8A415096803F01FFDDFF8A41503F07E
:102FC0001BFDDFF894150860DCE0DFF84005B0F980
:102FD000000002F027F8B0F57A7F22DDDFF82C053B
:102FE000B0F9000002F01EF8B0F5C86F19DCDFF888
:102FF0001C05B0F9000002F015F8D0F57A703C21FC
:1030000090FBF1F003F024F9DFF84C15096803F0A8
:10301000F3FCDFF8501503F0EFFCDFF83C15086017
:10302000B0E0DFF8E804B0F9000001F0FBFFB0F514
:10303000C86F23DDDFF8D404B0F9000001F0F2FF1F
:1030400040F69901884219DADFF8C004B0F90000AF
:1030500001F0E8FFD0F5C8603C2190FBF1F003F0EF
:10306000F7F8DFF8F414096803F0C6FCDFF8F81489
:1030700003F0C2FCDFF8E014086083E0DFF8D80456
:103080000068DFF8E81403F0B7FCDFF8CC14086040
:1030900078E0DFF8A004006835214843642190FB04
:1030A000F1F003F0D5F8DFF8B0140860DFF85C0445
:1030B000B0F9000001F0B6FFB0F52F7F0ADADFF8B3
:1030C00098040068DFF8981403F096FCDFF8881481
:1030D000086057E0DFF83404B0F9000001F0A2FF07
:1030E000B0F52F7F22DDDFF82404B0F9000001F0F5
:1030F00099FFB0F57A7F19DADFF81004B0F9000013
:1031000001F090FFD0F52F70142190FBF1F003F047
:103110009FF8DFF84414096803F06EFCDFF85014E0
:1031200003F06AFCDFF8301408602BE0DFF8DC0302
:10313000B0F9000001F076FFB0F57A7F22DDDFF80C
:10314000CC03B0F9000001F06DFF40F21451884249
:1031500018DADFF8B803B0F9000001F063FFD0F52A
:103160007A701E2190FBF1F003F072F8DFF8E8139B
:10317000096803F041FCDFF8F41303F03DFCDFF8CD
:10318000D8130860DFF8EC03007800280DD0DFF8D2
:10319000E803006835214843642190FBF1F003F017
:1031A00057F8DFF8B413086054E0DFF848030078FC
:1031B00001280DD1DFF8C40300683521484364219C
:1031C00090FBF1F003F044F8DFF88C13086041E065
:1031D000504800781E2805D1DFF8A403DFF87813E3
:1031E000086037E01021012003F0DFF9002828D122
:1031F000DFF8900340890A2804DBDFF88803808920
:103200000A281EDADFF8800300781E2804D0DFF8D1
:103210007C0300781E2814D1DFF83C030068DFF837
:10322000701303F0E9FBDFF830130860DFF8640384
:10323000B0F90000801C03F00BF8DFF8C41208603E
:1032400008E0DFF85003B0F9000003F001F8DFF800
:10325000B0120860DFF840030078002804D1002095
:10326000DFF8F41208602FE0DFF83003007801285F
:1032700004D10020DFF8E012086025E0DFF8200329
:103280000078012804D10020DFF8CC1208601BE090
:10329000DFF868020078012816D11B4AD2E9000144
:1032A000DFF80043D4E9002303F0FEF90122DFF840
:1032B000F83203F0B9FA07D80020DFF89C12086052
:1032C0000120DFF8E8120880DFF8E002B0F9000022
:1032D000012806D1DFF8B4090088401CDFF8AC19DA
:1032E000088010BD2A92FF1F1C92FF1F1692FF1F1D
:1032F000048DFF1F01008C426192FF1F6292FF1F2D
:103300007192FF1F6E85FF1F6886FF1F6C8FFF1F66
:1033100000407F406392FF1F7292FF1F708FFF1F5C
:1033200000C0724080B5DFF868090088DFF86419D2
:103330000880894800688549096803F003FD03F0A7
:103340009DF8DFF84C190880DFF84C090088DFF899
:103350004C190880DFF838090088DFF83819098827
:10336000401ADFF834190880DFF82409B0F90000AA
:1033700010F13B0F05DADFF83809DFF82C19088067
:1033800045E0DFF80C09B0F900003C2805DB40F20D
:10339000DC50DFF81419088039E0DFF8F408B0F9E0
:1033A000000002F055FFDFF80C19096802F0FAFF7F
:1033B000DFF8F0180860DFF8E008B0F9000002F06C
:1033C00047FFDFF8F418096802F0ECFFDFF8D018C7
:1033D0000860DFF8D00800685FF0804102F052FF1B
:1033E000DFF8BC18096803F007FB604902F04AFFE8
:1033F00003F044F8DFF8C4180880DFF8AC08008850
:10340000DFF8B81809880818DFF89C180880DFF87A
:103410009808B0F9000040F2DD51884204DB40F228
:10342000DC50DFF884180880DFF87C08B0F9000071
:1034300010F5FA6F04DADFF87808DFF86C18088006
:1034400050488088002813D14E48C08800280FD1EA
:103450004C48008900280BD14A484089002807D1F0
:1034600048488089002803D11420DFF83C180880E0
:10347000DFF81808B0F9000040F2DC51884206DBA2
:103480000120DFF824180880002048490880DFF870
:103490001808B0F90000012807DB0021DFF8080850
:1034A000B0F9000003F0C0FB15E0DFF8FC07B0F94D
:1034B000000001280BDADFF8F007B0F9000001F096
:1034C000B1FD00B20100002003F0AEFB03E00021DB
:1034D000012003F0A9FBDFF8D0070088DFF8CC1744
:1034E000088001BD648FFF1F0088B3406086FF1F06
:1034F0000070A7407092FF1FA085FF1F6E92FF1FF4
:10350000748CFF1F7285FF1F2292FF1F2C92FF1FDA
:10351000788CFF1F2E92FF1F2892FF1F2492FF1FFF
:103520002692FF1F3092FF1F3292FF1F1492FF1F3F
:103530003492FF1F7485FF1F6592FF1F04800B40AC
:10354000D88CFF1F008DFF1F8885FF1FD48CFF1FA5
:103550009A99999999794A40D08CFF1F00008C4222
:10356000000020420000F0410000A0410000204186
:103570000000C8416A92FF1F7C85FF1F7885FF1FEE
:103580000000D442A88BFF1F6892FF1F6992FF1FA3
:103590000000A0C27085FF1F5F92FF1F6092FF1F97
:1035A0006F92FF1F7886FF1F00E085405492FF1F37
:1035B00080B5FFF7B5FCFFF7B5FE01BD80B5DFF8BC
:1035C00000070078002805D0022800F07B82C0F0B8
:1035D000FF805AE303F073FEDFF8E4060078401C36
:1035E00002F036FE02000721782004F0D3F82A22E8
:1035F000DFF8D0060178002004F069F86FA20021FE
:10360000062004F081F8DFF8C006006802F020FE12
:1036100002000021182004F0BDF869A20121062053
:1036200004F072F8DFF8A406B0F9000002F010FE12
:1036300002000121182004F0ADF862A20221062048
:1036400004F062F8DFF8CC0BB0F9000002F000FEE5
:1036500002000221182004F09DF8DFF8BC2B0321A2
:10366000062004F051F8DFF8B40B006802F0F0FD1A
:10367000020003211E2004F08DF8DFF8A42B0421A2
:10368000062004F041F8DFF89C0B006802F0E0FD32
:10369000020004211E2004F07DF8DFF88C2B0521A8
:1036A000062004F031F8DFF8840B026805211E20A3
:1036B00004F070F844A20621062004F025F8DFF893
:1036C000700BB0F9000002F0C3FD020006211820C3
:1036D00004F060F83DA206213C2004F015F8DFF864
:1036E000540B02680621582004F054F8F2A2072176
:1036F000062004F009F8DFF8400B026807211820C3
:1037000004F048F8DFF8342B01213C2003F0FCFFE3
:10371000DFF82C2BD2E9000104F012FB02F098FD37
:1037200002000121582004F035F8DFF8182B02219F
:103730003C2003F0E9FFDFF8102BD2E9000104F090
:10374000FFFA02F085FD02000221582004F022F861
:10375000DFF8F82A03213C2003F0D6FFD7A203218B
:10376000722003F0D1FFDFF8E80A006802F07AFD6A
:1037700002000321582004F00DF8DFF8D82A0421B4
:103780003C2003F0C1FFDFF8D00A006802F06AFDB8
:1037900002000421582003F0FDFFC9A205213C20AE
:1037A00003F0B2FFDFF8B40A007802F05BFD02001C
:1037B0000521582003F0EEFF67E200BF76653A006E
:1037C00073503A0073443A0066413A00766E3A000C
:1037D00003F075FDDFF8E8040078401C02F038FDC6
:1037E00002003C21782003F0D5FFDFF8E82C00210F
:1037F000002003F089FFDFF8680AB0F9000002F04A
:1038000027FD02000021182003F0C4FFDFF8500A52
:10381000B0F9000004F0BAFA5FF06632DFF8443A1B
:1038200004F0CAFA0022DFF8403A03F0FFFA02F08F
:10383000CBFE02000021322003F0ACFFDFF8800C49
:10384000008802F00FFD020000215A2003F0A2FFC1
:10385000DFF8842C0121002003F056FFDFF8000A76
:10386000B0F9020002F0F4FC02000121182003F07C
:1038700091FFDFF8EC09B0F9020004F087FA5FF07D
:103880006632DFF8E03904F097FA0022DFF8D83921
:1038900003F0CCFA02F098FE02000121322003F07E
:1038A00079FFDFF81C0C408802F0DCFC02000121EB
:1038B0005A2003F06FFFDFF8242C0221002003F0D0
:1038C00023FFDFF89C09B0F9040002F0C1FC0200FC
:1038D0000221182003F05EFFDFF88409B0F904002C
:1038E00004F054FA5FF06632DFF8783904F064FAD5
:1038F0000022DFF8743903F099FA02F065FE020045
:103900000221322003F046FFDFF8B40B808802F07A
:10391000A9FC020002215A2003F03CFFDFF8C02B73
:103920000321002003F0F0FEDFF83409B0F90600AF
:1039300002F08EFC02000321182003F02BFFDFF8B9
:103940002009B0F9060004F021FA5FF06632DFF8D2
:10395000143904F031FA0022DFF80C3903F066FA6A
:1039600002F032FE02000321322003F013FFDFF8E1
:10397000500BC08802F076FC020003215A2003F0AD
:1039800009FFDFF8B82C0421002003F0BDFEDFF8AA
:10399000D008B0F9080002F05BFC020004211820F6
:1039A00003F0F8FEDFF8B808B0F9080004F0EEF90B
:1039B0005FF06632DFF8AC3804F0FEF90022DFF881
:1039C000A83803F033FA02F0FFFD02000421322090
:1039D00003F0E0FEDFF8E80A008902F043FC020091
:1039E00004215A2003F0D6FEDFF8F82A0521002032
:1039F00003F08AFEDFF86808B0F90A0002F028FC3C
:103A000002000521182003F0C5FEDFF85408B0F9C4
:103A10000A0004F0BBF95FF06632DFF8483804F0C2
:103A2000CBF90022DFF8403803F000FA02F0CCFDB9
:103A300002000521322003F0ADFEDFF8840A408940
:103A400002F010FC020005215A2003F0A3FEDFF86B
:103A5000F02B0621002003F057FEDFF80408B0F930
:103A60000C0002F0F5FB02000621182003F092FE84
:103A7000DFF8EC07B0F90C0004F088F95FF066326B
:103A8000DFF8E03704F098F90022DFF8DC3703F0C4
:103A9000CDF902F099FD02000621322003F07AFEF2
:103AA000DFF81C0A808902F0DDFB020006215A20A3
:103AB00003F070FEE9E000BF70553A00636D00004E
:103AC000476F3A0003F0FBFB7D480078401C02F092
:103AD000BFFB02003C21782003F05CFEDFF8642B82
:103AE0000021002003F010FEDFF85C0BB0F90000AD
:103AF00002F0AEFB02000021182003F04BFEDFF8BD
:103B00004C2B0121002003F0FFFDDFF8440BB0F93E
:103B1000000002F09DFB02000121182003F03AFE94
:103B2000DFF8FC2B0221002003F0EEFDDFF8F40BA0
:103B3000B0F9000002F08CFB02000221182003F013
:103B400029FEDFF8E42B02213C2003F0DDFDDFF845
:103B5000DC0BB0F9000002F07BFB020002215420D4
:103B600003F018FEDFF8C82B0321002003F0CCFD82
:103B7000DFF8C00BB0F9000002F06AFB020003217D
:103B8000182003F007FEDFF8B02B03213C2003F0E0
:103B9000BBFDDFF8A80BB0F9000002F059FB0200F2
:103BA0000321542003F0F6FDDFF830290421002022
:103BB00003F0AAFDDFF80809808802F053FB020039
:103BC0000421182003F0E6FDDFF8082904213C2039
:103BD00003F09AFDDFF8E808008802F043FB0200DA
:103BE0000421542003F0D6FDDFF8502A05210020DF
:103BF00003F08AFDDFF8C808008902F033FB0200F9
:103C00000521182003F0C6FDDFF8CC2805213C2053
:103C100003F07AFDDFF8A808408802F023FB0200D9
:103C20000521542003F0B6FDDFF8B428062100205A
:103C300003F06AFDDFF88808C08802F013FB020079
:103C40000621182003F0A6FDDFF8F42A0721002042
:103C500003F05AFDDFF8EC0AB0F9000002F0F8FAC0
:103C600002000721182003F095FDDFF8DC2A072168
:103C70003C2003F049FDDFF8D40A007802F0F2FAA4
:103C800002000721542003F085FD01BD5292FF1F61
:103C90003E92FF1F4092FF1F4292FF1F4492FF1F60
:103CA000A08CFF1FA48CFF1F3692FF1F3892FF1FAE
:103CB00030F8FFFF8485FF1F8085FF1F3A92FF1FAA
:103CC0006692FF1F6792FF1F7485FF1F7085FF1F9D
:103CD00080B5DFF87C0A0078002805D0022800F0C3
:103CE0000882C0F0DA8093E2DFF8640A0078401CB2
:103CF00002F0AEFA02000721782003F04BFD2A22E1
:103D0000DFF8500A0178002003F0E1FCDFF8480AF0
:103D1000006802F09DFA02000021182003F03AFD2D
:103D2000DFF8380AB0F9000002F092FA020001212F
:103D3000182003F02FFDDFF8DC04B0F9000002F0DA
:103D400087FA02000221182003F024FDDFF8CC04DA
:103D5000006802F07DFA020003211E2003F01AFD24
:103D6000DFF8C004006802F073FA020004211E208C
:103D700003F010FDDFF8B404026805211E2003F0F3
:103D800009FDDFF8AC04B0F9000002F061FA0200AE
:103D90000621182003F0FEFCDFF89C0402680721CE
:103DA000182003F0F7FCDFF8B809B0F9000002F0C2
:103DB0004FFA020007213C2003F0ECFCDFF8A409D5
:103DC000D0E900230020DFF8A01903F0F5FFDFF8A9
:103DD0009C29DFF89C3903F029F803F0B1FF02F0C9
:103DE00037FA020000213C2003F0D4FCDFF88409FC
:103DF000D0E900230020DFF8701903F0DDFFDFF8C1
:103E00006C29DFF86C3903F011F803F099FF02F028
:103E10001FFA020000215A2003F0BCFCDFF8202426
:103E2000D2E9000103F08CFF02F012FA0200012136
:103E3000582003F0AFFCDFF81024D2E9000103F0B2
:103E40007FFF02F005FA02000221582003F0A2FCD5
:103E5000DFF8FC03006802F005FA02000321582095
:103E600003F098FCDFF8F003006802F0FBF90200B1
:103E70000421582003F08EFCDFF8E003007802F004
:103E8000F1F902000521582003F084FCE94802689A
:103E90000621582003F07EFCBAE1DFF8B408007870
:103EA000401C02F0D5F902003C21782003F072FC9E
:103EB000DFF8AC03B0F9000002F0CAF902000021FB
:103EC000182003F067FCE648B0F9000003F05EFF3D
:103ED0005FF06632E34B03F06FFF0022E24B02F02B
:103EE000A5FF02F071FB02000021322003F052FC1A
:103EF000DFF8CC05008802F0B5F9020000215A2055
:103F000003F048FCD648B0F9020002F0A1F9020023
:103F10000121182003F03EFCD148B0F9020003F063
:103F200035FF5FF06632CF4B03F046FF0022CE4BE9
:103F300002F07CFF02F048FB02000121322003F076
:103F400029FCDFF87C05408802F08CF90200012191
:103F50005A2003F01FFCC248B0F9040002F078F9BF
:103F600002000221182003F015FCBD48B0F904003E
:103F700003F00CFF5FF06632BA4B03F01DFF002226
:103F8000B94B02F053FF02F01FFB02000221322066
:103F900003F000FCDFF82805808802F063F90200D6
:103FA00002215A2003F0F6FBAD48B0F9060002F0FA
:103FB0004FF902000321182003F0ECFBA848B0F9E8
:103FC000060003F0E3FE5FF06632A64B03F0F4FE5A
:103FD0000022A54B02F02AFF02F0F6FA02000321AC
:103FE000322003F0D7FBDFF8D804C08802F03AF99A
:103FF000020003215A2003F0CDFB9948B0F90800D4
:1040000002F026F902000421182003F0C3FB9448B3
:10401000B0F9080003F0BAFE5FF06632914B03F08E
:10402000CBFE0022904B02F001FF02F0CDFA02001D
:104030000421322003F0AEFBDFF88404008902F093
:1040400011F9020004215A2003F0A4FB8448B0F9BE
:104050000A0002F0FDF802000521182003F09AFB87
:104060007F48B0F90A0003F091FE5FF066327D4BA5
:1040700003F0A2FE00227C4B02F0D8FE02F0A4FA6C
:1040800002000521322003F085FBDFF8340440896B
:1040900002F0E8F8020005215A2003F07BFB70488B
:1040A000B0F90C0002F0D4F802000621182003F049
:1040B00071FB6B48B0F90C0003F068FE5FF06632EC
:1040C000684B03F079FE0022674B02F0AFFE02F06E
:1040D0007BFA02000621322003F05CFBDFF8E003EC
:1040E000808902F0BFF8020006215A2003F052FB3B
:1040F0008EE0DFF85C060078401C02F0A9F80200B0
:104100003C21782003F046FBDFF83C05B0F90000C5
:1041100002F09EF802000021182003F03BFBDFF8BC
:104120003005B0F9000002F093F8020001211820D8
:1041300003F030FBDFF8EC05B0F9000002F088F87E
:1041400002000221182003F025FBDFF8E005B0F99A
:10415000000002F07DF802000221542003F01AFB57
:10416000DFF8D005B0F9000002F072F80200032178
:10417000182003F00FFBDFF8C405B0F9000002F0CF
:1041800067F802000321542003F004FBCC48808828
:1041900002F068F802000421182003F0FBFAC84876
:1041A000008802F05FF802000421542003F0F2FAC4
:1041B000C348008902F056F802000521182003F0D8
:1041C000E9FABF48408802F04DF80200052154206A
:1041D00003F0E0FABA48C08802F044F80200062171
:1041E000182003F0D7FADFF85C05B0F9000002F000
:1041F0002FF802000721182003F0CCFADFF84C0555
:10420000007802F02FF802000721542003F0C2FAD0
:1042100001BD00007285FF1F50AE00007C85FF1FAE
:1042200058AE00007885FF1F60AE0000A085FF1F1C
:104230006E85FF1FD48CFF1FCC8CFF1F68AE000063
:104240006886FF1F70AE00007086FF1F78AE00000A
:104250009086FF1F80AE00006885FF1F5E92FF1FE3
:104260007C8BFF1F66660A4000F88F4038B514004B
:10427000C0B2002840F02381C9B200290FD0022922
:1042800051D02DD3042900F092806FD3062900F07D
:10429000CD80C0F0AD80072900F0EB800FE1DFF8A2
:1042A000B804006801F0D4FF210002F0A5FB02F081
:1042B000E5F8DFF8A414086006211E2003F01BF8BF
:1042C0002A220621002003F002FADFF88C0400689D
:1042D00001F0BEFF02000621182003F05BFAEEE0B9
:1042E000DFF87804B0F9000001F0B2FF210002F01D
:1042F00083FB02F0C3F8DFF8641408800021182063
:1043000002F0F9FF2A220021002003F0E0F9DFF893
:104310004C04B0F9000001F09BFF020000211820BE
:1043200003F038FACBE0DFF8C40AB0F9000001F07E
:104330008FFF210002F060FB02F0A0F8DFF8AC1A5A
:1043400008800121182002F0D6FF2A220121002036
:1043500003F0BDF9DFF8940AB0F9000001F078FF2E
:1043600002000121182003F015FAA8E0DFF8800A06
:10437000006801F06DFF210002F03EFB02F07EF8C4
:10438000DFF86C1A086002211E2002F0B4FF2A2216
:104390000221002003F09BF9DFF8540A006801F0C5
:1043A00057FF020002211E2003F0F4F987E0DFF836
:1043B000440A006801F04CFF210002F01DFB02F0EE
:1043C0005DF8DFF8301A086003211E2002F093FF29
:1043D0002A220321002003F07AF9DFF8180A006886
:1043E00001F036FF020003211E2003F0D3F966E03E
:1043F000DFF8040A210001F0D5FFDFF8001A096890
:1044000002F0FAFADFF8F419086004211E2002F025
:1044100072FF2A220421002003F059F9DFF8DC0999
:10442000026804211E2003F0B5F948E0DFF8DC0B38
:10443000B0F9000001F00CFF210002F0DDFA02F0FB
:104440001DF8DFF8C81B08800521182002F053FF73
:104450002A220521002003F03AF9DFF8B00BB0F969
:10446000000001F0F5FE02000521182003F092F98A
:1044700025E0DFF8F00B006801F0F4FE0500DFF83E
:10448000900B210001F08EFF290002F0B5FA03F035
:1044900065FDDFF8D01B08600421582002F02BFFD7
:1044A0002A220421002003F012F9DFF8B80B00687B
:1044B00001F0D8FE02000421582003F06BF931BD51
:1044C000A88BFF1F80B52021DFF89C0B03F058FD5F
:1044D00001BD000088AE000090AE000098AE000064
:1044E000A0AE0000B0AE000010B5002406210320ED
:1044F00002F05BF8002801D0012400E000245FF402
:10450000FA200088DFF80C1B0880DFF8080B008811
:10451000DFF8041B08807DE0DFF8002B02212D204E
:1045200003F0A0F8DFF8F82A04211E2003F09AF81F
:104530000721032002F039F800280FD1012000F0F4
:1045400083FDDFF8D00A00880A30DFF8C81A088037
:104550000721032002F029F80028F9D008210320C0
:1045600002F023F800280FD1012000F06DFDDFF8E4
:10457000A40A00880A38DFF89C1A08800821032062
:1045800002F013F80028F9D0DFF8880A008800F557
:1045900080401030DFF81C1B0880DFF8180BB0F9E2
:1045A000000002F03DFBDFF86C0AB0F9000001F0FA
:1045B0004FFE02000621462003F0F6FA06210320F2
:1045C00001F0F3FF002825D1DFF8480A0088DFF862
:1045D000481A0988401A00B200F024FD00280AD0C9
:1045E000FA20FBF733FFDFF82C0AB0F90020002196
:1045F000FA20FBF72FFFDFF8742A06211E2003F0B4
:1046000031F800240621032001F0CFFF0028F9D063
:1046100002F055FE24B2002C7FF47EAF5FF4FA2046
:104620000088DFF8F0190880DFF8E809008800F555
:1046300080401030DFF87C1A088010BDA8AE000062
:10464000B8AE0000C0AE00002C92FF1FC8AE000044
:104650003092FF1F80B50A2301221021012003F0B0
:104660005FFE3F4908803E48B0F9000003F08EFB32
:104670005FF06632DFF8F83903F09EFB0022DFF8C6
:10468000F43902F0D3FBDFF8F029DFF8F03903F05A
:1046900093FB01F099FFDFF8201A08603048B0F969
:1046A000000001F0D5FDDFF8141A0860DFF8980A61
:1046B0000078002832D0DFF8080A0078DFF8380ADE
:1046C0000078DFF8380A007810F0DF00DFF82C1AE5
:1046D0000870DFF8280A007810F0EF00DFF81C1AE5
:1046E0000870DFF81C0A007810F0DF00DFF8101AFD
:1046F0000870DFF80C0A007810F0EF00DFF8001AFD
:1047000008700020DFF8401A087000F09FFDDFF805
:10471000380A0078002801D101F04AF801BD0000F4
:10472000D0AE00001692FF1FD8AE00001892FF1FF7
:10473000E0AE00001C92FF1FE8AE00002092FF1FB9
:10474000F0AE00002A92FF1FF8AE00006392FF1F38
:104750006692FF1F6792FF1F7485FF1F7085FF1F02
:104760003C92FF1F5886FF1F0080664048E17A1484
:10477000861EF9406086FF1F10B51021012001F050
:1047800014FF002840F0C680DFF89C2A022119207F
:1047900002F068FFDFF8942A04211C2002F062FF77
:1047A0000020DFF88C1A0880DFF8841A0881DFF80F
:1047B000801AC880DFF8781A8880DFF8741A488079
:1047C0000A20DFF8701A0880DFF8681A0881DFF81D
:1047D000641AC880DFF85C1A8880DFF8581A4880AD
:1047E00000241DE0DFF8481A80B231F91010DFF81C
:1047F000482A80B232F91020914209DADFF8381ADB
:1048000080B231F81010DFF8282A80B222F8101098
:10481000401C80B20528E5DB012000F015FC641C7B
:10482000A4B240F2DC50844229DA0222092101209C
:1048300003F0F3FCDFF8001A088002220C210020AC
:1048400003F0EBFCDFF8F019488002220A21012076
:1048500003F0E3FCDFF8E019888002220B2101203D
:1048600003F0DBFCDFF8D019C88002220C21012004
:1048700003F0D3FCDFF8C01908810020C9E7FB2052
:10488000FBF7E4FD00240BE0DFF8A409A4B230F943
:104890001420A4B2A10089B2FB20FBF7DBFD641C4D
:1048A000A4B2052CF0DBDFF8942906211C2002F0CD
:1048B000D9FE1021012001F078FE0028F9D002F085
:1048C000FEFC1121012001F070FE002840F09980CB
:1048D000DFF854290221192002F0C4FEDFF8602914
:1048E00004211C2002F0BEFE0020DFF8441988815C
:1048F000DFF83C098089DFF8381948811420DFF897
:1049000034198881DFF82C098089DFF8281948815B
:10491000002458E000241DE080B2810011F5FB2145
:104920000988DFF80C2980B222F81010401C80B2F0
:104930000528F1DBDFF80C2902211D2002F092FE90
:10494000DFF8E82804211C2002F08CFE322000F061
:104950007BFB641CA4B2042CABDA0020E7E7022244
:104960000821012003F059FCDFF8CC18488102220D
:104970000D21002003F051FCDFF8BC188881DFF81E
:10498000B008B0F90A00DFF8B018B1F90A1088428F
:1049900005DADFF8A4084089DFF894184881DFF8C9
:1049A0009008B0F90C00DFF89018B1F90C108842AB
:1049B00005DADFF884088089DFF87418888101201F
:1049C00000F042FB641CA4B2B4F5966FC7DBFC2078
:1049D000FBF73CFDDFF85808B0F90A200021FC2065
:1049E000FBF738FDDFF84808B0F90C200421FC2063
:1049F000FBF730FDDFF8442806211C2002F032FED0
:104A000020E000241BE05FF4FC200088DFF8201881
:104A10004881DFF834080088DFF814188881DFF84F
:104A2000242802211D2002F01DFEDFF81428042195
:104A30001C2002F017FE322000F006FB641CA4B21A
:104A4000032CE0DB1121012001F0AFFD0028F9D09B
:104A500002F035FC10BD70B59AB0002445E002228A
:104A60000921012003F0D9FB08A924B221F8140080
:104A700002220C21002003F0D0FB08A924B211EB84
:104A80004401488102220A21012003F0C6FB08A943
:104A900024B211EB4401888202220B21012003F091
:104AA000BCFB08A924B211EB4401C88302220C21EB
:104AB000012003F0B2FB08A924B211EB44010885E0
:104AC00002220821012003F0A8FB08A924B211EB5F
:104AD0004401488602220D21002003F09EFB08A914
:104AE00024B211EB44018887641C24B2052CB6DB88
:104AF000002400E0641C24B2072C3FDA002038E0D8
:104B000008AA0A2314FB032209B212EB4102B2F9EC
:104B1000022008AB0A2514FB053309B233F9113022
:104B20009A421EDA08AA0A2314FB032209B212EBE6
:104B30004102B2F9022008AB0A2514FB053309B281
:104B400013EB410308AD0A2614FB065509B235F8EC
:104B500011505D8008AB0A2514FB053309B223F818
:104B60001120491C09B200B2D0F104029142C7DB06
:104B7000401C00B20428BDDA0021F3E7002420E045
:104B800008A80A2114FB0100408808A90A2214FB86
:104B900002118988081808A90A2214FB0211C98881
:104BA000081800A924B221F8140000A824B230F992
:104BB0001400032190FBF1F004A924B221F81400A1
:104BC000641C24B2072CDBDB002457E0DFF8240A46
:104BD00024B210EB44004088DFF8181A24B221F800
:104BE0001400DFF8100A24B210EB4400008ADFF84A
:104BF000041A24B211EB4401C881DFF8F80924B289
:104C000010EB4400C08BDFF8EC1924B211EB440127
:104C10008883DFF8E00924B210EB4400808DDFF8D0
:104C2000D41924B211EB44014885DFF8C80924B235
:104C300010EB4400408FDFF8BC1924B211EB4401A3
:104C40000887DFF8B00924B210EB4400B0F8480040
:104C5000DFF8A01924B211EB4401A1F84600DFF8F7
:104C6000940924B210EB4400B0F85600DFF8841920
:104C700024B211EB4401A1F85400641C24B2062CA8
:104C8000A4DB00240AE004A824B230F81400DFF802
:104C900064190E2214FB02118881641C24B2072CB3
:104CA000F1DB00245CE0DFF8F40A0088DFF8441947
:104CB00024B231F814100818DFF8E01A0880DFF881
:104CC000DC0A4088DFF82C1924B211EB4401C989B1
:104CD0000818DFF8C81A4880DFF8C00A8088DFF8B3
:104CE000141924B211EB4401898B0818DFF8AC1AAF
:104CF0008880DFF8A80AC088DFF8F81824B211EB22
:104D00004401498D0818DFF8941AC880DFF88C0A2E
:104D10000089DFF8E01824B211EB4401098F08186C
:104D2000DFF8781A0881DFF8740A4089DFF8C418C0
:104D300024B211EB4401B1F846100818DFF85C1AF0
:104D40004881DFF8580A8089DFF8A81824B211EBEF
:104D50004401B1F854100818DFF8401A8881641C27
:104D600024B2072C9FDB002413E0DFF8300A24B2C2
:104D700030F91400072190FBF1F0DFF8BC1424B2E5
:104D800021F814000020DFF8141A24B221F81400CE
:104D9000641C24B2072CE8DB002422E0DFF898042E
:104DA00024B230F81400DFF8F81924B221F8140006
:104DB000DFF8EC0924B230F9140040F2FF3190FB27
:104DC000F1F002F0E3FF5FF06632DFF8A43202F0A8
:104DD000F3FF01F0F9FBDFF8CC1924B241F824000D
:104DE000641C24B2072CD9DB1AB070BD7285FF1F7A
:104DF0007C85FF1F7885FF1F0000C842A085FF1F2C
:104E000080B5DFF8A4090068C0F3C020002827D1CE
:104E1000052000F019F9DFF890090068C0F3C02000
:104E200000281DD1DFF880090068C0F3C0200028E9
:104E3000F8D0DFF8100C0078032807DADFF8040C4C
:104E40000078401CDFF8FC1B087003E00020DFF84E
:104E5000F41B08700020DFF854190870FEF7AEFB51
:104E6000DFF8E00B0078002805D0DFF8D80B0078D9
:104E7000022840F0C980DFF830090068C0F38020C4
:104E8000002839D1052000F0DFF8DFF81C090068A0
:104E9000C0F3802000282FD1DFF80C090068C0F390
:104EA00080200028F8D0DFF89C0B0078012806D07D
:104EB0002022DFF8F8080178002002F008FCDFF873
:104EC000EC080078072807DADFF8E0080078401CD3
:104ED000DFF8D818087003E00020DFF8D018087059
:104EE000DFF8600B0078012806D02A22DFF8BC0822
:104EF0000178002002F0EBFBDFF8AC080068C0F39B
:104F0000002000281AD1052000F09EF8DFF898084C
:104F10000068C0F30020002810D1DFF88C0800687A
:104F2000C0F300200028F8D0DFF81C2BDFF87C0845
:104F30000178DFF8100B0078FFF798F9DFF86808C0
:104F40000068C0F3801000281AD1052000F07CF81A
:104F5000DFF854080068C0F38010002810D1DFF893
:104F600048080068C0F380100028F8D05FF07E5237
:104F7000DFF838080178DFF8CC0A0078FFF776F917
:104F8000DFF824080068C0F3C01000281AD10520FB
:104F900000F05AF8DFF810080068C0F3C0100028CD
:104FA00010D1DFF804080068C0F3C0100028F8D062
:104FB000DFF8982ADFF8F4070178DFF8880A00782C
:104FC000FFF754F9DFF8E0070068C0F3402000283D
:104FD0001AD1052000F038F8DFF8CC070068C0F3DC
:104FE0004020002810D1DFF8C0070068C0F340203F
:104FF0000028F8D0DFF8582ADFF8B0070178DFF88A
:10500000440A0078FFF732F901BD00006E85FF1FEA
:1050100000007A441092FF1F1292FF1F00AF0000A1
:10502000FCAD000000B2002803D500B2404200B23F
:1050300000E000B2704780B5002101F0A1F902D272
:1050400090F00040FFE702BD002104E000BF521EC7
:10505000002AFBD1491C814203D2DFF8CC2B126815
:10506000F6E770476885FF1FA88CFF1F08AF000098
:1050700066660A4000FEAF40F6285C8FC2F5084025
:105080004FF47A7005E0401E012802D101212E4A1A
:105090001170002804D0DFF8941B09788907F2D535
:1050A000DFF8880B007850F00200DFF8801B0870F2
:1050B000704700001492FF1FCC8CFF1FC88CFF1F8D
:1050C000046006404FF47A7005E0401E012802D1CA
:1050D00001211D4A1170002804D0DFF8281E09782C
:1050E0008907F2D5DFF81C0E007850F00200DFF8D7
:1050F000141E0870704700000470064002600640ED
:105100000270064040F6B83005E0401E012802D18A
:1051100001210D4A1170002804D0DFF8101B097816
:105120008906F2D4704740F6B83005E0401E0128E9
:1051300002D10121044A1170002804D0DFF8C41DF7
:1051400009788906F2D470476B92FF1F70B50C0086
:1051500015001E00C0B2002832D0FFF7E4FFDFF8D0
:10516000D00A007850F01000DFF8C41A0870DFF899
:10517000C00A007850F02000DFF8B41A0870600010
:10518000DFF8B01A0870FFF79DFFDFF8A80A057076
:10519000FFF798FFDFF89C0A0670FFF793FFDFF830
:1051A000900A007810F0DF00DFF8841A0870DFF84A
:1051B000800A007810F0EF00DFF8741A087031E010
:1051C000FFF7A0FFDFF8400D007850F01000DFF887
:1051D000381D0870DFF8300D007850F02000DFF83F
:1051E000281D08706000DFF8501A0870FFF748FFAC
:1051F000DFF8440A0570FFF743FFDFF83C0A06704A
:10520000FFF73EFFDFF8000D007810F0DF00DFF859
:10521000F81C0870DFF8F00C007810F0EF00DFF8F1
:10522000E81C087070BD00002CAE000038AE000015
:10523000B88BFF1FC88BFF1F9486FF1F10AF0000A5
:105240000CAE000018AF000004E0070080B5012399
:105250002A221C210120FFF779FF01232A221D2188
:105260000120FFF773FF01BD10B5DFF8A00C007837
:10527000401C322190FBF1F201FB1200DFF88C1C84
:105280000870FFF750FFDFF8A809007850F0200001
:10529000DFF89C190870DFF89809007850F01000CA
:1052A000DFF88C1908703820DFF888190870FFF7CC
:1052B00009FF0120DFF87C190870FFF703FFDFF812
:1052C0007009007850F00400DFF864190870392084
:1052D000DFF860190870FFF7F5FEDFF85409007871
:1052E00010F0EF00DFF848190870DFF84409007883
:1052F00010F0F700DFF838190870DFF83809007887
:10530000C0B2DFF8141CDFF8042C127821F8120068
:10531000FFF7D8FEDFF81C090078C0B2DFF8F81BF1
:10532000DFF8E82B127821F81200DFF8EC0BDFF839
:10533000DC1B097830F811000002DFF8DC1BDFF815
:10534000CC2B127821F81200FFF7BCFEDFF8C80B57
:10535000DFF8B81B097830F81100DFF8D8180978A1
:10536000C9B20843DFF8B01BDFF8A02B127821F890
:105370001200DFF8A40BDFF8941B097830F9110054
:10538000042190FBF1F0DFF8901BDFF8802B1278FE
:1053900021F81200FFF796FEDFF898080078C0B2F7
:1053A000DFF8881BDFF8642B127821F81200DFF891
:1053B0007C0BDFF8581B097830F811000002DFF889
:1053C0006C1BDFF8482B127821F81200FFF77AFEE9
:1053D000DFF8580BDFF8341B097830F81100DFF8DC
:1053E00054180978C9B20843DFF8401BDFF81C2BBA
:1053F000127821F81200DFF8340BDFF8101B09785F
:1054000030F91100042190FBF1F0DFF8201BDFF8E8
:10541000FC2A127821F81200FFF754FEDFF810087A
:10542000007850F00800DFF808180870DFF804086A
:105430000078C0B2DFF8F81ADFF8D02A127821F825
:105440001200DFF8EC0ADFF8C41A097830F811000E
:105450000002DFF8DC1ADFF8B42A127821F8120013
:10546000FFF730FEDFF8C807007810F0DF00DFF844
:10547000C0170870DFF8B80ADFF8901A097830F81A
:105480001100DFF8B0170978C9B20843DFF8A01A95
:10549000DFF8782A127821F81200DFF8940ADFF892
:1054A0006C1A097830F91100042190FBF1F0DFF853
:1054B000801ADFF8582A127821F81200DFF87007F6
:1054C000007810F0EF00DFF868170870DFF8480A7E
:1054D000DFF8381A097830F81100DFF8581A09880F
:1054E000401ADFF8341ADFF8242A127821F8120063
:1054F000DFF8380ADFF8141A097830F81100DFF8FD
:10550000381A0988401ADFF8241ADFF8002A1278BE
:1055100021F81200DFF8180ADFF8F019097830F8DE
:105520001100DFF8181A0988401ADFF8041ADFF8AA
:10553000DC29127821F81200DFF8DC09DFF8CC1939
:10554000097830F9110002F021FCDFF8D44BD4E9DE
:10555000002301F0A9F8DFF8CC4BD4E9002302F0D6
:105560002BFCDFF8BC4BD4E9002301F083FDDFF80E
:10557000B02BC2E90001DFF8B409DFF8901909780F
:1055800030F9110002F002FCDFF89C4BD4E9002353
:1055900001F08AF8DFF88C4BD4E9002302F00CFC10
:1055A000DFF8844BD4E9002301F064FDDFF8782BA9
:1055B000C2E90001DFF87809DFF85019097830F9FD
:1055C000110002F0E3FBDFF8644BD4E9002301F0A3
:1055D0006BF8DFF8504BD4E9002302F0EDFBDFF865
:1055E0004C4BD4E9002301F045FDDFF8402BC2E924
:1055F000000110BDA486FF1F80B5FFF794FDDFF802
:105600003006007850F02000DFF824160870DFF82C
:105610002006007850F01000DFF8141608703820CB
:10562000DFF810160870FFF74DFD0120DFF80416B3
:105630000870FFF747FDDFF8F805007850F0040028
:10564000DFF8EC1508703920DFF8E8150870FFF76F
:1056500039FDDFF8DC05007810F0EF00DFF8D01539
:105660000870DFF8CC05007810F0F700DFF8C015FF
:105670000870DFF8C0050078C0B2DFF89C18088019
:10568000FFF720FDDFF8AC050078C0B2DFF888181E
:105690000880DFF8840800880002DFF87C180880A2
:1056A000FFF710FDDFF870080088DFF8881509782B
:1056B000C9B20843DFF860180880DFF85C08B0F969
:1056C0000000042190FBF1F0DFF84C180880FFF790
:1056D000F9FCDFF860050078C0B2DFF850180880E8
:1056E000DFF8480800880002DFF840180880FFF75C
:1056F000E9FCDFF838080088DFF838150978C9B206
:105700000843DFF828180880DFF82008B0F9000007
:10571000042190FBF1F0DFF814180880FFF7D2FCA9
:10572000DFF80C05007850F00800DFF80415087069
:10573000DFF800050078C0B2DFF8F4170880DFF862
:10574000F00700880002DFF8E8170880FFF7BAFCCE
:10575000DFF8DC04007810F0DF00DFF8D414087004
:10576000DFF8CC070088DFF8CC140978C9B2084309
:10577000DFF8BC170880DFF8B807B0F90000042193
:1057800090FBF1F0DFF8A8170880DFF8A404007898
:1057900010F0EF00DFF89814087001BD6C8BFF1F4C
:1057A0007C8BFF1F8C8BFF1FD0F00F406792FF1F79
:1057B00080B501236B2268210120FFF7C7FC092374
:1057C000242268210120FFF7C1FC21231A2268212D
:1057D0000120FFF7BBFC08231B2268210120FFF7F3
:1057E000B5FC01BD80B5DFF848090078401CDFF842
:1057F00040190870DFF838090078322803DB0020F0
:10580000DFF82C190870FFF78EFCDFF8240400780D
:1058100050F02000DFF818140870DFF81404007846
:1058200050F01000DFF808140870D020DFF80414DE
:105830000870FFF747FC4320DFF8F8130870FFF704
:1058400041FCDFF8EC03007850F00400DFF8E013CF
:105850000870D120DFF8DC130870FFF733FCDFF8A5
:10586000D003007810F0EF00DFF8C4130870DFF801
:10587000C003007810F0F700DFF8B4130870DFF809
:10588000B4030078C0B2DFF8AC18DFF8A4281278AF
:1058900021F81200FFF716FCDFF898030078C0B279
:1058A000DFF89018DFF88828127821F81200DFF866
:1058B0008408DFF87C18097830F811000002DFF85E
:1058C0007418DFF86C28127821F81200FFF7FAFB41
:1058D000DFF86008DFF85818097830F81100D5496A
:1058E0000978C9B20843DFF84C18DFF84428127869
:1058F00021F81200FFF7E6FBCE480078C0B2DFF8CF
:105900003818DFF82C28127821F81200DFF8280860
:10591000DFF81C18097830F811000002DFF81818B9
:10592000DFF80C28127821F81200FFF7CBFBDFF824
:105930000808DFF8FC17097830F81100BD4909782C
:10594000C9B20843DFF8F017DFF8E427127821F82E
:105950001200FFF7B7FBB648007850F00800B449D2
:105960000870B4480078C0B2DFF8D017DFF8C0275D
:10597000127821F81200DFF8C407DFF8B4170978AD
:1059800030F811000002DFF8B417DFF8A42712780E
:1059900021F81200FFF796FBA548007810F0DF0011
:1059A000A3490870DFF89407DFF88417097830F806
:1059B0001100A0490978C9B20843DFF88017DFF861
:1059C0007027127821F812009948007810F0EF0043
:1059D00097490870DFF85C07DFF85417097830F84A
:1059E0001100DFF85C170988401ADFF84817DFF864
:1059F0004027127821F81200DFF83C07DFF8301753
:105A0000097830F81100DFF83C170988401ADFF8F0
:105A10002817DFF81C27127821F81200DFF81C077E
:105A2000DFF80C17097830F81100DFF81C17098827
:105A3000401ADFF80817DFF8F826127821F812006C
:105A400001BD00006692FF1F00002041000080BFE2
:105A5000000020C180B5DFF8D8060078401CDFF8D0
:105A6000D0160870DFF8C8060078322803DB002063
:105A7000DFF8BC160870FFF756FB6D48007850F051
:105A800020006B4908706A48007850F0100068499F
:105A90000870D02067490870FFF714FB4320654960
:105AA0000870FFF70FFB6248007850F0040060496F
:105AB0000870D1205F490870FFF704FB5C4800784C
:105AC00010F0EF005A4908705948007810F0F700BC
:105AD0005749087057480078C0B2DFF85816DFF809
:105AE0005026127821F81200FFF7ECFA514800789E
:105AF000C0B2DFF84016DFF83826127821F812001D
:105B0000DFF83006DFF82816097830F811000002B7
:105B1000DFF82016DFF81826127821F81200FFF7B8
:105B2000D1FADFF81006DFF80816097830F811000E
:105B300040490978C9B20843DFF8F815DFF8F025C5
:105B4000127821F81200FFF7BDFA3A480078C0B287
:105B5000DFF8E415DFF8D825127821F81200DFF815
:105B6000D805DFF8CC15097830F811000002DFF80D
:105B7000C815DFF8BC25127821F81200FFF7A2FA49
:105B8000DFF8B405DFF8A815097830F811002949C5
:105B90000978C9B20843DFF8A015DFF89425127818
:105BA00021F81200FFF78EFA2148007850F0080023
:105BB0001F4908701F480078C0B2DFF88015DFF871
:105BC0007025127821F81200DFF87005DFF86015F3
:105BD000097830F811000002DFF86015DFF8502571
:105BE000127821F81200FFF76DFA1148007810F0D2
:105BF000DF000F490870DFF84405DFF83415097835
:105C000030F811000B490978C9B20843DFF82C15A8
:105C1000DFF81C25127821F812000548007810F0F2
:105C2000EF000349087001BD0C92FF1F036006409E
:105C30000270064004700640046006402DE9704F73
:105C400086B00020BD490880BB490880B94908805A
:105C50000020DFF8F4140880DFF8E8140880DFF88B
:105C6000E014088000200021DFF8BC24C2E9000114
:105C7000DFF8B404D0E90023DFF8A404C0E900236E
:105C80000020DFF8C814DFF8A424C2E900010024D2
:105C90000025A046A946A246AB46CDE90045CDE980
:105CA0000245CDE90445002607E0FFF7D3FEFFF7E4
:105CB000A3FC0220FFF7C8F9761C142EF5DB0026A2
:105CC00057E0FFF7C7FEFFF797FC9348B0F90000D5
:105CD00002F05CF8DDE9042301F0CCF9CDE9040120
:105CE0009248B0F9000002F051F8DDE9022301F01A
