:10000000F8FF0020110400002941000029410000F0
:100010002941000029410000294100002941000038
:100020002941000029410000294100002941000028
:100030002941000029410000294100002941000018
:100040002941000029410000294100002941000008
:1000500029410000294100002941000029410000F8
:1000600029410000294100002941000029410000E8
:1000700029410000294100002941000029410000D8
:1000800029410000294100002941000029410000C8
:1000900029410000294100002941000029410000B8
:1000A00029410000294100002941000029410000A8
:1000B0002941000029410000294100002941000098
:1000C0002941000029410000294100002941000088
:1000D0002941000029410000294100002941000078
:1000E0002941000029410000294100002941000068
:1000F0002941000029410000294100002941000058
:100100002941000029410000294100002941000047
:100110002941000029410000294100002941000037
:100120002941000029410000294100002941000027
:100130002941000029410000294100002941000017
:100140002941000029410000294100002941000007
:100150000F10000029410000294100002941000042
:1001600029410000294100002941000029410000E7
:1001700029410000294100002941000029410000D7
:1001800029410000294100002941000029410000C7
:1001900029410000294100002941000029410000B7
:10040000FFFFFFFFFFFFFFFFFFFFFFFFFEFFFFFFFD
:1004100062B604F03FFAFEE72DE9F04FA1B0804646
:10042000002017461D4602910B900DF1440A6FF013
:1004300000490AE017F8011B0298C0470028029003
:1004400000F0A5820B98401C0B90387808B90B98E7
:100450009FE22528EED10020059006900790089095
:1004600009900A9001E040F0010017F8011F2029CF
:10047000F9D023290DD02B2904D02D2906D03029DD
:100480000AD00CE040F0020080B2EEE740F0040039
:10049000FAE740F00800F7E740F01000F4E72A29F7
:1004A0000ED12968296051F8042B2960002A0D9289
:1004B00004D5514240F004000D9180B27F1C11E040
:1004C00000210D9109E00D99494505D001EB81030B
:1004D00002EB430130390D917F1C3A78A2F13001D3
:1004E0000A29F0D339782E2903D04FF0FF310C912F
:1004F0001DE017F8011F2A2907D1296829607F1CF0
:1005000051F8042B29600C9211E000210C9109E0B4
:100510000C99494505D001EB810302EB43013039C9
:100520000C917F1C3A78A2F130010A29F0D3ADF882
:1005300038000FF6C020397800F06AFD08B117F8CE
:10054000010B8DF83A009DF83A00682802BF39780F
:100550006829622005D06C2804BF38786C2803D144
:1005600071208DF83A007F1C11A8049017F8014BF8
:10057000B4F1250023D02038022840F2BB80133884
:1005800000F0E0800B3800F04A81401E00F023812B
:10059000401E022840F2AE80001F00F01C81401F68
:1005A00079D0401E00F0CE80401E24D0C01E0BD05B
:1005B000801E00F0C780C01E00F0C48039E12520F5
:1005C0008DF8440001203DE12868286050F8046B54
:1005D000286003960C9C002C04D5304600F024FDC6
:1005E000044606E022460021304600F039FD00B105
:1005F000841B069427E1296829603C2451F8040BE8
:1006000029600021CDE9000111A80390DDE9000176
:10061000049E11B908B90C9AB2B10206120FA0EBF0
:1006200002123032D2B2631E3A2AA8BF2732000922
:1006300040EA017009099A5508BF00281C4603D0FA
:10064000039AA3199A42E8D3A0190390C4F13C017C
:100650000C980691814209DA401A08904FF6EF7122
:10066000BDF838000840ADF83800ECE0002840F153
:10067000EA809DF8380000F01400102840F0E38074
:100680000D98059A801A089A801A441A012CC0F213
:10069000DA800894D7E09DF83A0062281AD06828DA
:1006A00006D06A280CD06C281CD0712808D019E01C
:1006B0002868286050F8041B28600B980880C2E066
:1006C0002868286050F8042B28600B98C117C2E9ED
:1006D0000001B8E02868286050F8041B28600B98D7
:1006E0000870B0E02868286050F8041B28600B9858
:1006F0000860A8E02868C01D20F007022A60D2E93F
:10070000000108322A60CDE90001002902D50598D0
:100710002D210AE0BDF83800810702D505982B216C
:1007200003E0C00705D50598202100F80A10401CF9
:10073000059011A8059908180390214600A800F01B
:10074000E5F980E09DF83A006C280DD0712818BFBB
:100750006A2809D12868C01D20F007022A60D2E962
:10076000000108322A6005E02968296051F8040B6D
:1007700029600021CDE900019DF83A00682803D1E5
:10078000DDE9000180B20BE0622803D1DDE9000160
:10079000C0B205E0742818BF7A2804D1DDE9000151
:1007A0000021CDE900019DF8380000072ED5DDE9D4
:1007B0000001002908BF002828D044F02000782834
:1007C00024D10598302100F80A10401C411C0591E5
:1007D00000F80A401AE09DF83A00294600F0DCF8DB
:1007E000CDE90001002902DA05982D210AE0BDF8C3
:1007F0003800810702D505982B2103E0C00705D5F5
:100800000598202100F80A10401C059011A80599B0
:1008100008180390214600A800F0F5F813E0012025
:1008200005902868286050F8041B28608DF8441053
:1008300009E025208DF84400012005901CB18AF8BC
:100840000140022005900D980599401A0899401A18
:100850000699401A0999401A0799401A0A99441AA8
:100860009DF83800400710D420208DF84000002665
:1008700009E0012310AA00A9404600F0A3FB0028CC
:1008800040F08580761CA642F3DB059E0DF1440BFB
:100890000AE01BF8011B0298C0470028029076D09E
:1008A0000B98401C0B90761E002EF2D130208DF854
:1008B00040004FF0000B089E09E0012310AA00A998
:1008C000404600F07FFB002861D10BF1010BB345DE
:1008D000F3DB069EDDF80CB00AE01BF8011B029862
:1008E000C0470028029052D00B98401C0B90761EF7
:1008F000002EF2D130208DF840004FF0000B099E01
:1009000009E0012310AA00A9404600F05BFB002883
:100910003DD10BF1010BB345F3DB03980699079E1C
:1009200001EB000B09E01BF8011B0298C047029085
:1009300068B30B98401C0B90761E002EF3D130202C
:100940008DF840004FF0000B0A9E08E0012310AA2A
:1009500000A9404600F036FBC8B90BF1010BB345C6
:10096000F4DB9DF8380040077FF56FAD20208DF84F
:100970004000002600E0761CA642BFF666AD0123CB
:1009800010AA00A9404600F01DFB0028F3D04FF04C
:10099000FF3021B0BDE8F08F622826D068281DD036
:1009A0006A2808D06C2827D0712804D0742823D056
:1009B0007A280CD020E00868C01D20F007000860ED
:1009C000D0E90023083008601946104670470A68CD
:1009D0000A6052F8040B0A60002170470A680A6036
:1009E00052F8040B0A6000B20BE00A680A6052F881
:1009F000040B0A6040B204E00A680A6052F8040B73
:100A00000A60C11770472DE9FA4E05460A462F695C
:100A10006F2A08BF082405D041F02000782814BFB1
:100A20000A2410243C26D5E90001642A18BF692A4B
:100A300081468A4605D1002903DAD9F100096AEB1B
:100A40004A0ABAF1000F08BFB9F1000F0CD1286BA8
:100A500050B9082C36D195F83800000732D530202F
:100A60003B2687F83B002DE0E317484651462246D7
:100A700000F022FBA4FB0023A9EB02023032D2B229
:100A8000A6F1010B3A2A5E4603DB9DF80030513B8C
:100A90009A1881465FEA010A0BF8072008BFB9F1EE
:100AA000000F03D0E868F1198842DDD3082C09D182
:100AB00095F83800000705D5F05D302802D0761E85
:100AC0003020F055C6F13C00A861F119E960296BAE
:100AD000884208DA081A28624FF6EF71288F08401A
:100AE0002887BDE8F38E00290ED595F8381001F05F
:100AF0001401102908D1696B6A69891A2A6A891A4E
:100B00000E1A012EA8BF2E62BDE8F38E2DE9F34F19
:100B10008BB0D0E90089006B002801AF48BF0620E8
:100B200005D404BF41F02000672802D101200B99B1
:100B3000086340F2FF720B984168C1F30A5090427B
:100B400020D1080302BF0B98006800280AD10B9936
:100B5000032088619DF8300061381A2858D30FF2BD
:100B6000A84109E00B99032088619DF830006138A5
:100B70001A284AD30FF288410B98C068032200F06C
:100B800013FB00E1012807DA0B9800F048FB01286D
:100B900002DB00230026EDE00B9ADFF854B1526827
:100BA00040F2FE3161F31E520B994A6040F2FE3171
:100BB000461A404649460022002300F051FB38BF48
:100BC00089F0004936B247F297507043494990FB8B
:100BD000F1F636B2C6F10707012F92461BDBF80784
:100BE00007D552465B464046494600F051FB8046D9
:100BF00089465046594652465B467F1000F048FBF6
:100C0000002F82468B46EAD126E00FF2F031B3E79F
:100C10000FF2F031B0E77F420024374D12E0F807C1
:100C200007D552465B462046294600F031FB044674
:100C30000D465046594652465B4600F029FB7F1050
:100C400082468B46002FEAD14046494622462B4633
:100C500000F0F0FB804689469DF830000B99DFF8E4
:100C60009CB0096B40F02005662D0CBF06F10A0010
:100C700006204718142FA8BF132730208DF8040032
:100C80000DF10504012F3BDB4046494600F014FD01
:100C9000014604F1080204234FF00A0CB1FBFCFCEE
:100CA0000CEB8C04A1EB4401303102F8011C0A2149
:100CB000BCFBF1FE0EEB8E04ACEB440430345B1E47
:100CC000714602F8024DE7D1083F012F02F10804F6
:100CD000D8DB00F011FD02460B464046494600F0C5
:100CE00019FD00225B4600F0D3FA80468946CBE727
:100CF00000002440A08601000000F03F84D7974107
:100D00000DF10500201A0DF1050702E0401E761EC8
:100D10007F1C39783029F9D0662D02D136B2711C8A
:100D200003E0652D0CBF012100210B9A126B8B187B
:100D30001BB29842B8BF03461BB219001AD48142B5
:100D400004DAC85D3528A8BF392000DA3020CA1976
:100D5000521E00E05B1E12F80159491E8542F9D06F
:100D6000392802D1C85D401CC855002902D57F1E14
:100D70005B1C761C36B29DF830100B9800961BB2A7
:100D80003A4600F003F80DB0BDE8F08F2DE9F047CA
:100D900086B006468A4690461D4600F098FD012D15
:100DA000406A376B90F8009002DA01250FF25C2858
:100DB0004AF02000BDF93840662808BF641C13D0F3
:100DC000672840F0888014F1040F73DBBC4271DAAD
:100DD00096F83800641C000702D4BD42B8BF2F4605
:100DE00024B23F1B48BF002724B2F068B169012C30
:100DF00021DA4A1C30230B54012F03DA96F83810FD
:100E0000090702D502F80090521CE742B8BF7C42A5
:100E100024B2E7196142AF42B2617162B8BF3D4688
:100E2000B3692DB2F5612A464146181800F0BCF9A5
:100E3000781BB062AFE00818A54216DA2A46414690
:100E400000F0B2F9B1696918601B012FB1617062DD
:100E500003DA96F83800000705D5F06801F800902D
:100E6000F069401CF061B76295E02246414600F00F
:100E70009BF9B06920182D1B012F03DA96F8381062
:100E8000090703D5F16800F80190401CB0612DB24C
:100E9000AF42B8BF3D46F068B3692DB22A4604EBB5
:100EA0000801181800F080F9B0692818B061781BA3
:100EB000706270E0BD4204DA96F83810090758BF36
:100EC0002F467F1E48BF0027BAF1670F0CBF4FF0B7
:100ED000650A4FF0450AB169F06818F8013B0B54F8
:100EE0004A1C012F05DA96F83810090758BFB2617D
:100EF00015D502F80090531C012FB3610FDB6D1E56
:100F00002DB2AF42B8BF3D462DB22A464146181811
:100F100000F04AF9B0692818B061781B7062F06877
:100F2000B1690918200081F800A004D42B20487072
:100F300001F1020804E02D224A7001F10208644226
:100F4000002502AF08E00A2200A800F0D9FC0198B1
:100F500007F8010B6D1C009C21B20129F3DA022D68
:100F600006DA4AF02000652804BF302008F8010B9B
:100F70004DB9302008F8010B07E06D1E02A8285C6F
:100F8000303008F8010B012DF7DAF068B169081864
:100F9000A8EB0000F06196F8380000F0140010286B
:100FA0000DD17069B1690818716A0818F1690818DB
:100FB000B16A0818716B8842BCBF081A306206B06B
:100FC000BDE8F087F8B504460D4616461F460020DA
:100FD00004E0E86A401CE8627F1E002047B116F872
:100FE000011BA868A0470028A860F2D14FF0FF308D
:100FF000F2BD0000686A6C747A4C00006E616E008D
:101000004E414E00696E6600494E46003000704702
:101010000278C9B28A421AB11CBF10F8012FF9E751
:1010200018BF00207047000000F10103810704D0C1
:1010300010F8011B89B18107FAD10268B2F10131C0
:10104000914311F0803F04BF50F8042FF6E710F8E9
:10105000011B11B110F8011BFBE7C01A704700001B
:10106000C9B2830706D0521E22D310F8013B994221
:10107000F7D11FE0083A13D302F1040241EA01213B
:1010800041EA014150F8043B121F21BF4B40A3F13C
:10109000013C2CEA030C1CF0803FF3D0C9B2001FC6
:1010A000083210F8013B521E28BF91EA030FF8D80E
:1010B00018BF0120401E70471B4213D1094236D190
:1010C0002AB18446B0FBF2F002FB10C2704700F078
:1010D0001FBCFCD30022002370470B00020000213C
:1010E00000207047904271EB030CF6D370B5B1FA53
:1010F00081F4B3FA83F52C1BA340C4F1200532FA26
:1011000005F63343A2405FF00046E64002E05B088C
:101110005FEA3202841A71EB030524BF2046294698
:101120007641F4D302000B003000002170BD012A8B
:10113000CFD970B5140C20D0B1FA81F4B2FA82F58F
:10114000C4F120046419B4F12006D6D3B2405FF094
:101150000044F440002502E052085FEA3303C61A57
:1011600071EB020E24BF3046714664416D41F3D3EA
:1011700002000B002000290070BD0C46B1FBF2F10B
:1011800002FB11452D0445EA1045B5FBF2F402FBC4
:10119000145580B240EA0545B5FBF2F002FB10524F
:1011A00040EA044070BD000062B38B0708D0521EB5
:1011B00011F8013B00F8013B00F024808B07F6D1C9
:1011C000830740F0208000BF103A07D330B4B1E865
:1011D0003810103AA0E83810F9D230BC530724BFB9
:1011E000B1E80810A0E8081044BF51F8043B40F8EB
:1011F000043BD20724BF31F8022B20F8022B44BF56
:101200000B7803707047083A07D3B1E80810083A22
:1012100040F8043B40F804CBF7D25307E4E730B47E
:10122000436803F0004201211B031B0B436004BF12
:101230000368002B08D10DE00368DD0F45EA440484
:1012400044605B000360491E4468E302F4D5230355
:101250001B0B436043681A434260084630BC70472A
:101260004FF4001C1CEB410F94BF1CEB430F09E033
:1012700041EA030C50EA4C0C52EA0C0C03D299429E
:1012800008BF9042704714BF8B42824270470000F3
:10129000B0B581EA030C0CF0004C40F2FF7515EA82
:1012A00011541DBF15EA1357AC42AF4239E0E4199F
:1012B00023EA455343F48013C90241F0004141EA57
:1012C000505EC7021100A7FB020200284FF0000089
:1012D000EEFB01204FF00001E3FB072118BF42F0B5
:1012E0000102401800214941E3FB0E01A4F580648E
:1012F0000F0302D252004041494154F101046CDD18
:10130000470872F1004250F1000051EB0451A1F581
:1013100080115CBF41EA0C01B0BD4CEA05510020D0
:10132000B0BD05EA1357AC4214BFAF4241E050EAEA
:10133000410E1CBF52EA430E02E061460020B0BDE0
:1013400024423C441BD15FEA070EF6D0090302BFDA
:1013500001460020AEF1140EB1FA81F7AEEB07049E
:1013600001FA07FE0C37C7F1200100FA07F7C84061
:101370004EEA000E23EA455343F48013A2E733F00C
:101380000043B3FA83F704BFB2FA82FE77440B3FFF
:10139000E41BB7F1200E2FBF02FA0EF3BB40C7F1DA
:1013A000200E22FA0EFE38BF43EA0E03BA40641C38
:1013B00082E750EA410E14BF52EA430E6FF000017B
:1013C0004FF4001717EB430F8ABF194617EB410F75
:1013D000B5E74CEA05510020B0BDD4F10104B4F1E9
:1013E00020070FDAC4F12007520828BF42F001029B
:1013F00010FA07F501FA07F7E1BF2A43E040384346
:10140000E1400FE0352C98DCC7F1200452EA40029D
:1014100020FA07F218BF42F0010231FA07F0A140AA
:101420000A43002172F1004250F1000051EB0C011F
:10143000B0BD00002DE9F04140F2FF7581EA030CD8
:101440000CF0004C15EA11541DBF15EA1357AC42BD
:10145000AF42E9E0BC41C1F31301C3F31303801AA7
:10146000994143F4801304D2641E4000494180181E
:101470005941C90241EA5051B1FBF3F603FB161181
:10148000A2FB0675D7EBC020A94102D2761E8018B8
:101490005941C90241EA5051B1FBF3FE03FB1E1151
:1014A000A2FB0E75D7EBC020A94103D2AEF1010E0D
:1014B00080185941890241EA9051760546EA8E2EFC
:1014C000B1FBF3F603FB1611A2FB0675D7EB8020E8
:1014D000A94102D2761E80185941C90241EA5051F1
:1014E0004EEA060EB1FBF3F603FB1611A2FB0675DE
:1014F000D7EBC020A94102D2761E80185941C902FB
:1015000041EA5051B1FBF3F703FB1711A2FB07357A
:10151000D3EBC020A94167F100070CBF004247F0A0
:10152000010766F3D5274FEA1E31B80814F5806429
:1015300014DDBD0775F1004250EB0E5051EB045124
:1015400011F5801F5CBF41EA0C01BDE8F0814CF051
:101550007F6141F0E0410020BDE8F081BD076D08EA
:1015600040EA0E5041F48011D4F10104B4F1200698
:101570000ADAC4F120060200E04001FA06F3E14075
:101580001843B24015430EE0342C14DCC6F120049D
:1015900045EA40056D0820FA06F2154321FA06F0E7
:1015A000A1400D43002175F1004250F1000051EBC4
:1015B0000C01BDE8F08100205FEA0C01BDE8F0817C
:1015C000CFB992185B41B3FA83F704BFB2FA82F63F
:1015D000BF190B3FB7F120062FBF02FA06F3BB403D
:1015E000C7F1200622FA06F638BF3343BA401CB1D1
:1015F000E419641E2FE77F4231F00041B1FA81F413
:1016000004BFB0FA80F6A4190B3CB4F120062FBF3A
:1016100000FA06F1A140C4F1200620FA06F638BF10
:101620003143A0403C1B16E7AC421ABF05EA1357F2
:10163000AF4214E050EA41061CBF52EA4306BFE73E
:1016400050EA4107304661461CBF41EA0551BDE8FA
:10165000F08152EA430C08BFC143BDE8F08100208D
:101660004FF4001616EB410F98BF16EB430F08BF5F
:1016700016EB410F24BFC14305E016EB430F0CBF2F
:1016800061464CEA0551BDE8F0810000F446400D8A
:1016900040EAC120490006D200F014F8004248BFD9
:1016A0006FF00040604700F00DF84FF000418842B5
:1016B0008CBF084640426047400D40EAC1204900C7
:1016C00080F00D8040F00040490DA1F58061491C7B
:1016D00005D4D1F11F0154BFC840C01770474FF067
:1016E00000007047010040F10980F446404200F0DC
:1016F00005F851F000416047010000BF09D0B0FA81
:1017000080F18840C91CC1F58461090501EBD02135
:1017100040057047F0B44FF0004591EA030F44BF15
:101720006B4000F001B900BF841A71EB030604D2CC
:101730006E40001BB141121973414FF4001C1CEBA9
:10174000410F34BF7CEB430684E00C0DA4EB135631
:10175000362E7DDC012E43DC45EAC32343EA525397
:1017600012BFD20292025B08240545EAC12141EA78
:101770005051D2EBC020994125D407D1B0FA80F660
:1017800010FA06F164D00020203608E0B1FA81F6A4
:10179000B140C6F1200220FA02F21143B0404FEAF4
:1017A000F474B4EB465434F001064FEA74040AD8DA
:1017B000D6F50016760D04F00044F04061FA06F20A
:1017C0005040F1404840C00A40EA415021F00041F9
:1017D00028BF5FEA500550F1000044EBD12137E00B
:1017E00045EAC323DB0A45EAC121C90AB6F120054F
:1017F0000EDD42EA0242120CC5F1200603FA06F69B
:10180000EB4042EA06056D42984161F100010DE0AE
:1018100062FA06F5F240554063FA06FC82EA0C02D1
:10182000F3405A406D42904161EB030111F4801F77
:1018300005D1641E620502D06D004041494121F48A
:101840008011430875F1004350F1000041EB045151
:10185000F0BC70471CEB410F15D223F0004352EA55
:1018600043060BD04FEA4C0CBCEB410F04D80C0DD7
:10187000661E342EB7DDEBE7801A994150EA410627
:1018800008BF0021E4E708BF1CEB430F28BF6FF03F
:101890000001DDE780B5134800F0B0F80FF24C020C
:1018A0000FF244010160426241600FF24402826320
:1018B00081600FF24402C160016141618161816216
:1018C000C16201634163C2630164416401BD10B53B
:1018D000044800F093F80446206808B9FFF7DAFFDF
:1018E000204610BD2C090014000000002E0000004E
:1018F00066616C736500000074727565000000001D
:1019000091FBF2F303FB1211C0E9003170470000B4
:1019100070470000F0B44FF0004591EA030C44BF5B
:101920006B40FFF701BF00BF841A71EB030603D2BF
:10193000001BB141121973414FF4001C1CEB410F05
:1019400034BF7CEB430443E00C0DA4EB1356352E5F
:1019500050DC45EAC323DB0A45EAC121C912B6F1CE
:1019600020050DDD63FA05F6EB4086EA0305124219
:1019700018BF45F00105C01851F100010CD213E069
:1019800062FA06F5F2405540F3415A40B340F34045
:101990005A408018594107D349085FEA30005FEA8E
:1019A000350528BF45F0010501F58011420875F1A4
:1019B000004250F1000041EB0451F0BC4FF4001C18
:1019C0001CEB410F38BF70470020090D0905704717
:1019D0001CEB410F10D252EA43060BD0BCEB410F77
:1019E00005D80C0DAB43661E342EB5DD02E0AB43CB
:1019F00080185941F0BC7047F0BC70477047000038
:101A0000072FA90A05000000020000005D02000087
:101A1000280000000000000000000000000000009E
:101A200000000000000000000000000000000000B6
:101A300000004E6F6E4D61736B61626C650000005B
:101A400000486172644661756C740000000000001B
:101A50004D656D4D616E6167656D656E7400004228
:101A600075734661756C74000000000000005573CA
:101A70006167654661756C7400000000000000003D
:101A80000000000000000000000000000000000056
:101A90000000000000000000000000000000000046
:101AA0000000000000000000000000000000000036
:101AB000000000000000000000535643616C6C0001
:101AC000000000000000000044656275674D6F6E05
:101AD00069746F7200000000000000000000000048
:101AE00000000000000050656E64535600000000C6
:101AF00000000000005379735469636B000000001C
:101B000000000000444D41300000000000000000D3
:101B1000000000444D4131000000000000000000C2
:101B20000000444D413200000000000000000000B1
:101B300000444D41330000000000000000000000A0
:101B4000444D41340000000000000000000000444B
:101B50004D41350000000000000000000000444D31
:101B600041360000000000000000000000444D412C
:101B7000370000000000000000000000444D413824
:101B80000000000000000000000000444D4139004A
:101B900000000000000000000000444D4131300012
:101BA000000000000000000000444D413131000001
:101BB0000000000000000000444D413132000000F0
:101BC00000000000000000444D41313300000000DF
:101BD000000000000000444D4131340000000000CE
:101BE0000000000000444D413135000000000000BD
:101BF00000000000444D415F4572726F72000000AA
:101C00000000004D434D00000000000000000000F7
:101C100000004654464C0000000000000000000098
:101C200000526561645F436F6C6C6973696F6E002D
:101C30004C56445F4C565700000000000000004C1A
:101C40004C57000000000000000000000000576139
:101C5000746368646F6700000000000000524E4724
:101C60000000000000000000000000004932433086
:101C70000000000000000000000000493243310075
:101C80000000000000000000000053504930000038
:101C90000000000000000000005350493100000027
:101CA0000000000000000000535049320000000016
:101CB0000000000000000043414E305F4F525F4D76
:101CC000425F6275660043414E305F4275735F4FFD
:101CD000666600000043414E305F4572726F7200CD
:101CE0000000000043414E305F54785F5761726ED0
:101CF000696E6743414E305F52785F5761726E691B
:101D00006E6743414E305F57616B655F55700000F1
:101D1000005265736572766564353100000000001D
:101D200052657365727665643532000000000043C9
:101D3000414E315F4F525F4D425F627566004341D5
:101D40004E315F4275735F4F666600000043414E3F
:101D5000315F4572726F72000000000043414E31E6
:101D60005F54785F5761726E696E6743414E315FB1
:101D700052785F5761726E696E6743414E315F57AB
:101D8000616B655F55700000005265736572766522
:101D90006435390000000000526573657276656431
:101DA0003630000000000055415254305F52585FF9
:101DB00054580000000055415254305F45525200C3
:101DC000000000000055415254315F52585F545892
:101DD0000000000055415254315F4552520000004E
:101DE00000000055415254325F52585F5458000071
:101DF000000055415254325F45525200000000002D
:101E00000055415254335F52585F5458000000004F
:101E100055415254335F45525200000000000055B6
:101E2000415254345F52585F5458000000005541ED
:101E30005254345F45525200000000000055415298
:101E400054355F52585F54580000000055415254B9
:101E5000355F45525200000000000041444330000D
:101E60000000000000000000000041444331000079
:101E7000000000000000000000434D503000000052
:101E80000000000000000000434D50310000000041
:101E900000000000000000434D5032000000000030
:101EA00000000000000046544D300000000000001B
:101EB000000000000046544D31000000000000000A
:101EC0000000000046544D320000000000000000F9
:101ED000000000434D54000000000000000000001E
:101EE0000000525443000000000000000000000009
:101EF0000052657365727665643833000000000037
:101F00005049543000000000000000000000005064
:101F1000495431000000000000000000000050495A
:101F2000543200000000000000000000005049543E
:101F30003300000000000000000000005044423068
:101F40000000000000000000000000555342300077
:101F500000000000000000000000555342444344CC
:101F6000000000000000000000454E45545F313580
:101F700038385F54696D6572454E45545F547261DF
:101F80006E736D69740000454E45545F526563651C
:101F9000697665000000454E45545F4572726F7268
:101FA0000000000000493253300000000000000033
:101FB00000000000534448430000000000000000FF
:101FC0000000004441433000000000000000000019
:101FD0000000444143310000000000000000000008
:101FE00000545349300000000000000000000000D1
:101FF0004D43470000000000000000000000004CBE
:102000005054696D657200000000000000005265C8
:1020100073657276656431303200000000504F52B3
:10202000544100000000000000000000504F5254D6
:102030004200000000000000000000504F525443D6
:1020400000000000000000000000504F5254440007
:10205000000000000000000000504F5254450000F6
:102060000000000000000000526573657276656430
:102070003130380000000052657365727665643156
:102080003039000000005265736572766564313145
:10209000300000000052657365727665643131313D
:1020A000000000005265736572766564313132005C
:1020B000000000526573657276656431313300004B
:1020C000000052657365727665643131340000003A
:1020D0000052657365727665643131350000000029
:1020E00052657365727665643131360000000052C6
:1020F00065736572766564313137000000005265A2
:102100007365727665643131380000000052657382
:10211000657276656431313900000000008003404B
:102120000090034000800B4000F00F4040F00F4053
:1021300080F00F40C0F00F4000F10F4066000A1D14
:1021400032000701640007106E00040678000408DE
:102150008200040A8C00040C9600040EA0000410F7
:10216000AA000412B4000414BE000416C800041827
:10217000D200041ADC00041CE100041DE600041E69
:10218000EB00041FF4000317FA0003181301010603
:102190002C010214000109080090044000A0044032
:1021A00000B0044000C0044000D0044000A006403D
:1021B00000B0064000C0064000D0064000A00E401F
:1021C00000B00E403435363702040101D408001443
:1021D00024090014D4080014D4080014D4080014EE
:1021E00005080014EC0700140000000000000000C7
:1021F00000000000000000000000000000000000DF
:102200000000000000000000000000000821DFF8CE
:10221000A026126852F00102DFF894361A6000BF5F
:10222000DFF88C26126832F04002DFF884361A603C
:1022300000BF0A00511ED2B2002A25D0020608D5DE
:10224000DFF86C26126852F01002DFF864361A606C
:1022500007E0DFF85C26126832F01002DFF8503633
:102260001A60DFF84C26126852F04002DFF8403660
:102270001A6000BFDFF83826126832F04002DFF83B
:1022800030361A604000D4E7704700000821DFF8BC
:102290002026126852085200DFF814361A60DFF860
:1022A0001026126832F04002DFF804361A600A0085
:1022B000511ED2B2002A25D0020608D5DFF8F0253B
:1022C000126852F01002DFF8E8351A6007E0DFF814
:1022D000E025126832F01002DFF8D4351A60DFF81A
:1022E000D025126852F04002DFF8C4351A6000BFF2
:1022F000DFF8BC25126832F04002DFF8B4351A600E
:102300004000D4E7704738B504000D00B5F1500027
:10231000C0B2FFF7BBFFE4B2200950F01000C0B21A
:10232000FFF7B4FF14F00F0050F00100C0B2FFF748
:10233000ADFF31BD70B5040000200500EDB2082DE1
:1023400017DAB5F15000C0B2FFF7A0FF0120FFF788
:102350009DFF1020FFF79AFF00200600F6B2802EA6
:1023600005DA2000C0B2FFF751FF761CF6E76D1CBE
:10237000E4E770BD38B500200400E4B2082C16DA9A
:10238000B4F15000C0B2FFF781FF0120FFF77EFFDC
:102390001020FFF77BFF00200500EDB2802D04DA4E
:1023A0000020FFF733FF6D1CF7E7641CE5E731BD44
:1023B00080B2002808D0642211000A00511E92B297
:1023C000002AFAD1401EF3E7704780B54FF48070C1
:1023D000DFF8E01408604FF48070DFF8DC14086068
:1023E0004FF48070DFF8D41408604FF48070DFF889
:1023F000D01408605520DFF8CC140860DFF8B00472
:10240000006850F04000DFF8A8140860DFF8A0046E
:10241000006830F00400DFF8981408603220FFF7FD
:10242000C7FFDFF88C04006850F00400DFF8801468
:102430000860AE20FFF72AFF0020FFF727FF1020DB
:10244000FFF724FF4020FFF721FF8120FFF71EFF49
:10245000CF20FFF71BFFA120FFF718FFC820FFF7D1
:1024600015FFA620FFF712FFA820FFF70FFF3F2060
:10247000FFF70CFFD320FFF709FF0020FFF706FF4F
:10248000D520FFF703FF8020FFF700FFD920FFF7DB
:10249000FDFEF120FFF7FAFEDA20FFF7F7FE12202B
:1024A000FFF7F4FEDB20FFF7F1FE4020FFF7EEFE22
:1024B0002020FFF7EBFE0220FFF7E8FE8D20FFF75C
:1024C000E5FE1420FFF7E2FEA420FFF7DFFEA620C2
:1024D000FFF7DCFEAF20FFF7D9FE0020FFF72AFF51
:1024E00000210020FFF70FFF01BD2DE9F04104009E
:1024F00088461500B5F120000700E4B27F2C03DB0D
:102500000020040018F101084146C9B22000C0B201
:10251000FFF7F9FE00200600F6B2062E0BDADFF810
:10252000A803FFB2062101FB0700F6B2305CFFF7FB
:102530006DFE761CF0E7BDE8F0812DE9F84304005C
:102540000D00160000275FF000085FF000095FFA39
:1025500089F919F8060000282BD05FFA89F919F8D3
:10256000060020380700E4B27F2C02DB00200400C4
:102570006D1C2900C9B22000C0B2FFF7C4FE0020C4
:1025800080465FFA88F8B8F1060F0EDADFF83803F4
:10259000FFB2062101FB07005FFA88F818F8000077
:1025A000FFF734FE18F10108EBE7A41D19F101094A
:1025B000CDE7BDE8F1832DE9FF4781460C00924647
:1025C000002500AE5046002100F08EF90ED22D20DD
:1025D0008DF800009DF800202100C9B24846C0B225
:1025E000FFF783FF19F106099AF0004A504600F000
:1025F0008DF98046404600F0ABF90100504600F0EE
:10260000C1F90700DFF8C40280450EDBDFF8BC0229
:1026100098FBF0F0303000A9EDB26854DFF8AC025E
:1026200098FBF0F100FB11886D1CDFF8A4028045D7
:102630000FDBDFF89C0298FBF0F0303000A9EDB220
:102640006854DFF88C0298FBF0F100FB11886D1CD8
:102650000BE0DFF87C02804507DAEDB2002D04D0F4
:10266000302000A9EDB268546D1CDFF86802804587
:102670000FDBDFF8600298FBF0F0303000A9EDB21C
:102680006854DFF8500298FBF0F100FB11886D1CD4
:102690000BE0DFF84002804507DAEDB2002D04D0F0
:1026A000302000A9EDB268546D1CDFF82C02804583
:1026B0000FDBDFF8240298FBF0F0303000A9EDB218
:1026C0006854DFF8140298FBF0F100FB11886D1CD0
:1026D0000BE0DFF80402804507DAEDB2002D04D0EC
:1026E000302000A9EDB268546D1CDFF8F001804580
:1026F0000FDBDFF8E80198FBF0F0303000A9EDB215
:102700006854DFF8D80198FBF0F100FB11886D1CCC
:102710000BE0DFF8C801804507DAEDB2002D04D0E8
:10272000302000A9EDB268546D1C42F21070804553
:102730000FDB42F2107098FBF0F0303000A9EDB2E0
:10274000685442F2107098FBF0F100FB11886D1C88
:102750000BE042F21070804507DAEDB2002D04D094
:10276000302000A9EDB268546D1CB8F57A7F0FDBFC
:102770004FF47A7098FBF0F0303000A9EDB2685455
:102780004FF47A7098FBF0F100FB11886D1C0AE0A1
:10279000B8F57A7F07DAEDB2002D04D0302000A919
:1027A000EDB268546D1CB8F1640F0DDB642098FB2A
:1027B000F0F0303000A9EDB26854642098FBF0F1DD
:1027C00000FB11886D1C0AE0B8F1640F07DAEDB266
:1027D000002D04D0302000A9EDB268546D1CB8F172
:1027E0000A0F0DDB0A2098FBF0F0303000A9EDB2A3
:1027F00068540A2098FBF0F100FB11886D1C0AE078
:10280000B8F10A0F07DAEDB2002D04D0302000A98C
:10281000EDB268546D1C18F1300000A9EDB2685497
:102820003800DFF8BC1000F021F932D86D1C2E20E2
:1028300000A9EDB268546D1CDFF8A800390000F063
:1028400027F900F063F88046642098FBF0F0303000
:1028500000A9EDB26854642098FBF0F100FB1188E8
:102860006D1CB8F1010F0BDB0A2098FBF0F0303043
:1028700000A9EDB268540A2098FBF0F100FB118822
:10288000B8F1000F05D46D1C18F1300000A9EDB2AD
:1028900068546D1C002000A9EDB26854320021007C
:1028A000C9B24846C0B2FFF748FEBDE8FF87000046
:1028B00000F10F4008D0044000D0044018D004407C
:1028C00010D0044014F10F406C46000000CA9A3B3F
:1028D00000E1F5058096980040420F00A0860100B7
:1028E00018B7D13800007A444FF0807C1CEB400FC1
:1028F00094BF1CEB410F05E040EA010C5FEA4C0C71
:1029000001D28842704718BF814270474100090ECA
:102910007F3915D4D1F11F0114D4400007D2C00172
:1029200040F00040C84048BF6FF000407047C00111
:1029300040F00040C8404CBF4FF00040404270475C
:102940000020704700424FF0004058BFC04370471E
:10295000002840F10980F446404200F005F850F0AC
:1029600000406047002800BF0AD0B0FA80F18840DC
:10297000D1F19D01C905020672F1004241EB102020
:102980007047000090EA010F44BF81F0004100F061
:10299000F3B800BF431A4FF000423EBF5340C01A85
:1029A000C91800BFD3095FEAD05C13EB400F34BFF6
:1029B000B3EB410F40E07CEBD1530CD342EA012151
:1029C00022D8D1EB402009D3400A28BF5FEA50014A
:1029D00040EBCC507047401A15D04002B0FA80F25C
:1029E000521C9040400A4FEA3C23B3EB026384BF81
:1029F00000EB730007E040F400001A16DB07C2F199
:102A00000102D04018437047182BFCDC31FA03F266
:102A100002FA03F3591A38BF42F00102D2EB402008
:102A20003CBF4000ACF1010C5FEACC5CC20572F126
:102A300000414CEB5020704713EB400F0FD24B007E
:102A400009D0ACEBD153022B03DB4902172BDDDDA0
:102A500070479143401A4300D5D10020704713EBD3
:102A6000410FD0D36FF00000704700004FF0807C22
:102A70001CEB400F94BF1CEB410F05E040EA010C3A
:102A80005FEA4C0C01D28142704718BF8842704700
:102A9000FF2212EAD05C1DBF12EAD1539445934243
:102AA0002BE09C44D30780EA01021A4043EA00204D
:102AB00043EA0121A1FB0030410038BF40007CF116
:102AC0007F010BDBFE294ADA5B0842EAC15153EA77
:102AD000006373F1004C51EB10207047D1F1080CEA
:102AE000DCF120012FDB5B0810FA01F10B4373F1DD
:102AF000004120FA0CF05041704794451CBF02EA97
:102B0000D153934280EA010202F000421DD04000FE
:102B100019D0490017D05BB9634514D00902B1FA46
:102B200081F39940BCEB030CC00140F00040C1E7C9
:102B30000002B0FA80FC10FA0CF0B3EB0C0CC901E7
:102B400041F00041B6E71000704740000AD049004C
:102B500008D010F1807F94BF11F1807F02E042F035
:102B6000FF407047D043704790EA010F44BF81F0A7
:102B70000041FFF70FBF00BF421A3CBF801A8918FF
:102B80004FF0004CC0F3C752FF2A24D0C1F3C75303
:102B900013B3D21AD2F1190327DD4CEA01214CFA02
:102BA00003F321EA0303D140C20D4CEA0020401890
:102BB00034BF20EA0C004CEA5000D20553EA00630F
:102BC00073EB0C0C52EB1020420012F1807F38BFE7
:102BD0007047C00DC0057047490212BF9A4200EB12
:102BE0005120F8E7D2F11703D9D5704780B50122FB
:102BF0000321602000F0DCFA01220321622000F0B2
:102C0000D7FA01220321662000F0D2FA0122032123
:102C1000672000F0CDFA012203216A2000F0C8FAF3
:102C2000012203219C2000F0C3FADFF8CC040368E2
:102C300032220021002000F019FC002342F2107221
:102C40000021022000F012FC002342F21072012148
:102C5000022000F00BFC01BD80B5FFF78BFBDFF815
:102C60009C04007800284CD1DFF8940400780828F0
:102C700009DA24A2DFF888040078811CC9B2022096
:102C8000FFF75BFC09E01FA2DFF874040078B0F1E5
:102C90000801C9B23C20FFF750FCDFF86804008847
:102CA000FFF760FE020000210A20FFF784FCDFF836
:102CB00058040088FFF756FE020001210A20FFF7A2
:102CC0007AFCDFF8482402210620FFF736FCDFF803
:102CD00040040068FFF73CFE020002212420FFF7B9
:102CE0006AFCDFF8302403210620FFF726FCDFF81A
:102CF00028040068FFF72CFE020003212420FFF7C0
:102D00005AFC01BD2A00000080B500F058FD0A21E0
:102D100090FBF1F0DFF8EC13086000F09EFE0A2152
:102D200090FBF1F0DFF8E0130860DFF8D8030088CB
:102D3000FFF718FE020000210A20FFF73CFCDFF835
:102D4000C8030088FFF70EFE020001210A20FFF7EA
:102D500032FCDFF8B0030068DFF8AC130968401AF2
:102D6000DFF8B813086001BDDFF8B0030068FB2886
:102D70000DDBDFF8A8030068B0F5967F07DA0620C0
:102D8000DFF89C1308600220DFF898130860DFF872
:102D90008C030068C9280CDBDFF880030068FA2880
:102DA00007DA0520DFF8781308600220DFF87413D3
:102DB0000860DFF86803006897280CDBDFF85C0325
:102DC0000068C82807DA0420DFF8541308600220DE
:102DD000DFF850130860DFF84403006865280CDB57
:102DE000DFF838030068962807DA0320DFF830138D
:102DF00008600220DFF82C130860DFF82003006869
:102E000033280CDBDFF814030068642807DA02209B
:102E1000DFF80C1308600220DFF808130860DFF801
:102E2000FC0200681F280CDBDFF8F0020068322883
:102E300007DA0120DFF8E81208600220DFF8E41268
:102E40000860DFF8D802006801280CDBDFF8CC024C
:102E500000681E2807DA0020DFF8C412086002208C
:102E6000DFF8C0120860DFF8B402006810F11D0F2F
:102E70000DDBDFF8A8020068002808D55FF0FF30FE
:102E8000DFF89C1208600220DFF898120860DFF873
:102E90008C02006810F1310F0EDBDFF88002006851
:102EA00010F11E0F08DA7FF00100DFF874120860DD
:102EB0000220DFF870120860DFF86002006810F18D
:102EC000630F0EDBDFF85402006810F1320F08DAEE
:102ED0007FF00200DFF8481208600220DFF8441299
:102EE00008608E48006810F1950F0BDB8B48006876
:102EF00010F1640F06DA7FF00300894908600220B0
:102F0000884908608548006810F1C70F0BDB8348CB
:102F1000006810F1FA0F06DA7FF0040080490860BB
:102F20000220804908607D4800687FF495718842DE
:102F30000BDB7A48006810F1FA0F06DA7FF0050023
:102F4000774908600220774908607047F8B56D48F6
:102F50000068B0F596706B4908606B480068B0F582
:102F6000967069490860684800686649096888423F
:102F700009DA64480068FFF7EBFC6C49086001203F
:102F80006B49086009E060480068FFF7E1FC6749A9
:102F900008605FF0FF306649086064480068654972
:102FA00000F06CFE614908606048006800F0E4FED3
:102FB000614A624BFEF76CF904000D005B48006843
:102FC00000F0DAFE22002B00FEF762F904000D008B
:102FD0005648006800F0D0FE22002B00FEF758F99A
:102FE00004000D005148006800F0C6FE544A554BDD
:102FF000FEF74EF906000F004C48006800F0BCFEDA
:1030000032003B00FEF744F922002B00FEF782FC61
:1030100004000D00454801684B48FFF739FD00F0FA
:10302000ABFE02000B0020002900FEF773FB00221C
:10303000464BFEF76FFC00F0C7FE45490860444868
:1030400001684448FFF790FD00F096FE424A434B6A
:10305000FEF71EF900F0B8FE4149086034480068E8
:10306000FEF740FB00223F4BFEF712F904000D0073
:103070003B48006800F080FE22002B00FEF708F9B4
:103080000022394BFEF746FCFEF700FB264908609C
:103090002F4801682F48FFF767FD020004210A202E
:1030A000FFF789FA2148026805210A20FFF783FA11
:1030B0002B48026806210A20FFF77DFA1A480068AB
:1030C000FFF746FC020007210A20FFF774FAF1BD62
:1030D00080B52648007826490870254890F90020D8
:1030E0000021022000F081FA00220121022000F0DC
:1030F0007CFA01BD000000000C0000142809001437
:1031000029090014A4080014A8080014C84C0000E1
:1031100004000014D04C000008000014A0080014A3
:10312000B0080014AC080014B4080014BC08001463
:10313000C00800140000C842C3F5285C8FC2C5BF98
:10314000D7A3703D0A572140000010430078894002
:10315000C40800140000F8C19EEFA7C64B37014019
:10316000B80800140000F43F00E88240100000148A
:103170002A09001410B56324FFF738FDFFF725F97D
:1031800000F0C4FA00F01AFC4FF41651032000F0CE
:1031900063FEFFF761FD4FF4FA60FFF709F9FFF7EF
:1031A000B3FDFFF7E1FDFFF7D1FEFFF791FFF6E773
:1031B00070B504000D0016004FF480712000C0B2FD
:1031C00000F06AFF6DB2002D11D16048E4B26111C8
:1031D00050F821005D49E4B2621151F822104969AA
:1031E000012214F01F039A409143416136E0574891
:1031F000E4B2611150F821005449E4B2621151F86F
:1032000022104969012214F01F039A4011434161C1
:10321000F6B2002E11D14D48E4B2611150F82100F0
:103220000068012114F01F02914088434749E4B22D
:10323000621151F82210086010E04448E4B26111B4
:1032400050F821000068012114F01F02914008434A
:103250003E49E4B2621151F82210086070BD38B5E1
:1032600004000D003948E4B2611150F821004069B2
:1032700014F01F010200CA40D00703D46321344870
:1032800000F030FFEDB2002D11D13048E4B26111F1
:1032900050F821000068012114F01F02914088437A
:1032A0002A49E4B2621151F82210086010E0274860
:1032B000E4B2611150F821000068012114F01F02EE
:1032C000914008432149E4B2621151F8221008608C
:1032D00031BD10B504001D48E4B2611150F8210061
:1032E000406914F01F010200CA40D00703D47B21BB
:1032F000174800F0F7FE1548E4B2611150F82100BC
:10330000012114F01F029140C16010BD10B50400EE
:103310000E48E4B2611150F82100406914F01F0119
:103320000200CA40D00703D58C21094800F0DAFE1C
:103330000648E4B2611150F82100006914F01F0141
:103340000200CA4012F0010010BD0000280700145E
:10335000244B000038B504000D0064B2002C03D0EB
:10336000022C66D049D380E0DFF86C03006850F08F
:103370008070DFF8641308606DB2002D0BD0022D51
:1033800015D00ED3042D1ED017D3062D27D020D351
:10339000072D2AD02FE04FF48061412000F07CFE01
:1033A0002AE04FF48061422000F076FE24E04FF4E2
:1033B0008061432000F070FE1EE04FF480614420E5
:1033C00000F06AFE18E04FF44071072000F064FE40
:1033D00012E04FF48061652000F05EFE0CE04FF4D7
:1033E0008061662000F058FE06E04FF4806167209F
:1033F00000F052FE00E038E037E0DFF8DC02006861
:1034000050F00070DFF8D01208606DB2002D02D0CD
:10341000012D06D00BE04FF440710C2000F03CFE73
:1034200006E04FF440710D2000F036FE00E01CE095
:103430001BE0DFF8A802006850F08070DFF89C12F3
:1034400008606DB2002D02D0012D06D00BE04FF4C4
:103450004071322000F020FE06E04FF4407133202E
:1034600000F01AFE00E000E0FFE731BD2DE9F84F63
:1034700004000D0016001F0064B2002C0DD064B2D1
:10348000012C02D064B2022C02D16DB2022D04DBF9
:10349000FC21DFF84C0200F025FE290049B2200093
:1034A00040B2FFF757FFDFF83C0200684FF47A7133
:1034B000484380465FEA1840B0FBF6F081460020A2
:1034C00082461FFA89F9484650FA0AF0012802DBC1
:1034D0001AF1010AF5E75FFA8AFABAF1080F05DB7B
:1034E00040F21711DFF8F80100F0FCFD404630FA19
:1034F0000AF0B0FBF6F0814664B2002C03D0022C37
:1035000019D00CD322E01FFA89F919F1010000FB50
:1035100007F042F21071B0FBF1F0834616E01FFA9B
:1035200089F919F1010000FB07F04FF47A71B0FB43
:10353000F1F083460AE01FFA89F919F1010000FB56
:1035400007F06421B0FBF1F08346FFE7DFF8980154
:1035500064B250F824006DB210EBC500DFF888119A
:1035600064B251F824106DB211EBC501C96831F095
:103570000401C160DFF8700164B250F824006DB23C
:1035800010EBC5002821C1605FFA8AFA1AF0070023
:1035900050F00800DFF8501164B251F824100860B0
:1035A0001FFA89F9DFF8400164B250F82400C0F82E
:1035B00008900020DFF8301164B251F82410C8647C
:1035C000DFF8240164B250F824006DB210EBC5009E
:1035D0001FFA8BFBC0F810B00020DFF80C1164B2AA
:1035E00051F824104860BDE8F18F2DE9F041040046
:1035F0000D0016005FF0000864B2002C0ED064B21B
:10360000012C02D064B2022C02D16DB2022D05DB76
:103610004FF4A971DFF8C80000F064FD64B2002C1B
:1036200003D0022C16D00BD31DE042F2117086425B
:1036300005D340F25711DFF8A80000F053FD12E067
:10364000B6F57A7F05D940F25B11DFF8940000F0FF
:1036500049FD08E0652E05D340F25F11DFF88000D8
:1036600000F040FDFFE7DFF8800064B250F824006E
:1036700080688046B8F1000FF5D064B2002C03D00A
:10368000022C15D00AD31CE018F1010000FB06F053
:1036900042F21071B0FBF1F0070012E018F10100E6
:1036A00000FB06F04FF47A71B0FBF1F0070008E080
:1036B00018F1010000FB06F06421B0FBF1F00700F7
:1036C000FFE7DFF8240064B250F824006DB210EB7D
:1036D000C5000761BDE8F0813C80044030800440B3
:1036E000EC4A0000D00800141C07001410B40300BA
:1036F00000242100994207DA00242200082A01DA76
:10370000521CFBE7491CF5E710BC704780B5DFF899
:10371000DC034078DFF8D813097888420FD1DFF84E
:10372000CC038078DFF8CC130978884207D1DFF822
:10373000BC03C078DFF8C013097888423ED000F09F
:103740009DF840F6B830FFF7D1FFDFF8A403017809
:10375000012000F0E1F8DFF89C030178022000F07E
:10376000DBF8DFF894030178032000F0D5F8172187
:10377000042000F0D1F80021052000F0CDF8502100
:10378000062000F0C9F81421072000F0C5F8C02178
:10379000082000F0C1F81221092000F0BDF8022134
:1037A0000A2000F0B9F801210B2000F0B5F80C2236
:1037B000DFF83813002000F0E1F8A8E701BD10B5EC
:1037C000002400200400200040B2DFF83013097804
:1037D00000B209B2884238DA0222DFF8241321202D
:1037E00000F0CCF8DFF8180340780002DFF810137F
:1037F00009784018DFF80C130860DFF80C03006844
:10380000DFF8001309680818DFF8FC120860DFF819
:10381000F4020068DFF8F4120968884205D2DFF884
:10382000E4020068DFF8E4120860DFF8E4020068F0
:10383000DFF8D0120968884205D2DFF8C8020068B4
:10384000DFF8CC120860641CBDE7DFF8BC0200683A
:10385000DFF8A8120978B0FBF1F0DFF8B8120860C1
:103860000020DFF8A4120860DFF8A8020068DFF883
:10387000A8120860DFF89C02006810BD80B5012224
:1038800000218120FFF794FC012201218320FFF712
:103890008FFC012201218520FFF78AFC00220121F3
:1038A0008720FFF785FC01218520FFF7D8FC002148
:1038B0008720FFF7D4FC01218320FFF7D0FC01BD56
:1038C00070B504000025002600200500EDB2082D8B
:1038D0001DDA200604D501218320FFF7C0FC03E098
:1038E00000218320FFF7BBFC6400760001218720C4
:1038F000FFF7B5FC8120FFF709FD002801D056F045
:10390000010600218720FFF7AAFC6D1CDEE73000CE
:10391000C0B270BD0000000038B504000D000021E9
:103920008520FFF79CFC0220FFF7E0FE14F07F04E7
:103930002000C0B2FFF7C4FF00BF00BF00BF00BF40
:1039400000BF00BF00BF00BF00BF00BF00BF00BF7F
:1039500000BF00BF00BF00BF00BF00BF00BF00BF6F
:1039600000BF2800C0B2FFF7ABFF40F2A460FFF732
:10397000BDFE01218520FFF772FC31BDF8B50400C2
:103980000D00160000218520FFF769FC54F080042B
:103990002000C0B2FFF794FF00200700FFB2F6B28C
:1039A000B74206D20020FFF78BFFFFB278557F1C8D
:1039B000F4E701218520FFF752FCF1BD80B557489F
:1039C00040784B49097888420BD15448807849495E
:1039D0000978884205D15148C0784749097888421A
:1039E0003AD000F0ABF840F6B830FFF77FFE404821
:1039F0000178012000F0F0F83E480178022000F044
:103A0000EBF83D480178032000F0E6F81721042088
:103A100000F0E2F80021052000F0DEF85021062039
:103A200000F0DAF81421072000F0D6F8C0210820B1
:103A300000F0D2F81221092000F0CEF802210A206D
:103A400000F0CAF801210B2000F0C6F80C2233491F
:103A5000002000F0F3F8B2E701BD10B5002400200B
:103A60000400200040B22549097800B209B288421A
:103A700029DA02222A49212000F0E0F8284840787B
:103A8000000227490978401826490860264800683E
:103A90002449096808182449086022480068234915
:103AA0000968884203D21F480068204908602048FE
:103AB00000681C490968884203D21A4800681C49FA
:103AC0000860641CCDE7184800680C490978B0FB11
:103AD000F1F0184908600020134908601548006893
:103AE000154908601348006810BD0000580800140C
:103AF0000000001401000014020000140300001470
:103B000024090014700800147C08001478080014BC
:103B10007408001480080014840800146408001459
:103B20002609001488080014940800149008001452
:103B30008C080014980800149C08001480B5012219
:103B400000218820FFF734FB012201218920FFF7A3
:103B50002FFB012201218A20FFF72AFB00220121ED
:103B60008B20FFF725FB01218A20FFF778FB00213E
:103B70008B20FFF774FB01218920FFF770FB01BD4B
:103B800070B504000025002600200500EDB2082DC8
:103B90001DDA200604D501218920FFF760FB03E030
:103BA00000218920FFF75BFB6400760001218B2058
:103BB000FFF755FB8820FFF7A9FB002801D056F03E
:103BC000010600218B20FFF74AFB6D1CDEE7300069
:103BD000C0B270BD0000000038B504000D00002127
:103BE0008A20FFF73CFB0220FFF780FD14F07F04E2
:103BF0002000C0B2FFF7C4FF00BF00BF00BF00BF7E
:103C000000BF00BF00BF00BF00BF00BF00BF00BFBC
:103C100000BF00BF00BF00BF00BF00BF00BF00BFAC
:103C200000BF2800C0B2FFF7ABFF40F2A460FFF76F
:103C30005DFD01218A20FFF712FB31BDF8B50400BC
:103C40000D00160000218A20FFF709FB54F08004C4
:103C50002000C0B2FFF794FF00200700FFB2F6B2C9
:103C6000B74206D20020FFF78BFFFFB278557F1CCA
:103C7000F4E701218A20FFF7F2FAF1BD10B5FF2326
:103C800013EAD0541DBF13EAD1529C429A4239E044
:103C9000A41ADA0780EA0103134042EA012142EA4A
:103CA0000020421A3CBF641E01EB4202090AB2FB2B
:103CB000F1FE01FB1E221202B2FBF1F001FB102209
:103CC0006EF30F201202B2FBF1FE4EEA00207F34A9
:103CD00006DDFE2C24DA53EA500050EBC45010BD30
:103CE000D4F1020401FB1E2240F08071192C1DDC6E
:103CF00021FA04F0C4F12004A140114371F1004203
:103D0000584110BD9C421ABF03EAD1529A420FE0BB
:103D100080EA010E0EF00043400004D0490016D1A5
:103D200043F0FF4010BD490008BFD343180010BD49
:103D30009C4205D1D21AF7D001F00041484010BD95
:103D40004A0212BF0846484000F0004010BD4AB980
:103D50000902B1FA81F2914044B1A418C00140F0C7
:103D600000409EE7C90141F0004152420002B0FA12
:103D700080F4A040141B94E75FF0FF0C1CEAD051C4
:103D800014BF614506E0C110400721F0E04101F198
:103D90006051704779B900F0004100020AD0B0FAD2
:103DA00080FC00FA0CF001F16051A1EB0C5101EB29
:103DB000D0214005704741020CBF40F4E0016FF094
:103DC00000010020704700004FEAF17CBCF1E04C9C
:103DD0002CBFBCF5001F11E05FEA4C0C34BFBCF1F6
:103DE0007F5F2EE05FEA9C0C4FEA0C1C4FEA3C0C14
:103DF000C10071F100414CEB50707047C90241EABB
:103E00005051C00218BF41F0010141F000414FEA9A
:103E10006C50C0F10900212810D240EACC7CCCF1D2
:103E2000200C11FA0CF070F10040CCF1200C21FABA
:103E30000CF00CF0004C40EB0C0070474FEACC70DB
:103E40007047490011F5001F04D84FEACC10FF302D
:103E5000C0057047C81770472DE9F84304000D00EE
:103E600064B2002C08D0022C2CD018D3042C4FD0D4
:103E70003BD3052C5FD071E0DFF80402006850F4FA
:103E80008060DFF8FC1108604FF44071662000F09C
:103E900003F94FF44071672000F0FEF85EE0DFF8B0
:103EA000E001006850F40060DFF8D41108604FF4BE
:103EB0004071432000F0F0F84FF44071442000F0CE
:103EC000EBF84BE0DFF8B801006850F48050DFF801
:103ED000B01108604FF44071632000F0DDF84FF43A
:103EE0004071622000F0D8F838E0DFF894010068F3
:103EF00050F40050DFF8881108604FF440715020F2
:103F000000F0CAF84FF44071512000F0C5F825E0E8
:103F1000DFF87001006850F48060DFF86811086015
:103F20004FF440714E2000F0B7F84FF440714F202D
:103F300000F0B2F812E0DFF84C01006850F40060C5
:103F4000DFF8401108604FF44071892000F0A4F8B8
:103F50004FF44071882000F09FF8FFE7DFF8280158
:103F600064B250F82400C07810F0F300464964B2FF
:103F700051F82410C870444864B250F82400807886
:103F8000414964B251F82410887064B2002C02D008
:103F900064B2012C06D13D4800684FF47A71484361
:103FA000814605E03A4800684FF47A7148438146FB
:103FB0002801B9FBF0F00600B6B2B6F5005F02DBEF
:103FC00041F6FF700600B9FBF5F0B6B2B0EB061093
:103FD0000700BFB2202F04DB40F203112D4800F090
:103FE00081F8294864B250F82400007810F0E0000D
:103FF0008046C6F3042050EA0800234964B251F811
:1040000024100870204864B250F8240046701E48FE
:1040100064B250F82400807A10F0E000804617F077
:104020001F0050EA0800184964B251F82410887241
:10403000154864B250F82400007C50F08800124902
:1040400064B251F8241008740F4864B250F8240088
:10405000C07850F00C000C4964B251F82410C870BC
:10406000BDE8F183084A40B252F8202012791206C6
:10407000F8D5054A40B252F82020D17170470000AF
:104080003480044028800440AC070014C8080014A1
:10409000D0080014944B000010B4104A12684FF47A
:1040A0000073C0B24409A3401A430C4B1A600C4A77
:1040B000C0B2431152F82320012310F01F04A34083
:1040C000C2F8A030064AC0B2431152F82320C0B251
:1040D00010F01F0342F8231010BC704738800440D2
:1040E0009807001438B504000D00002000F044F8D3
:1040F0002A0021001B4800F067F8002000F059F862
:10410000194800684FF47A7101FB00F1032000F0B8
:104110006DF8EDE738B504000D00210049B2032029
:10412000FFF7A0FF200032BD10B510480468012041
:1041300000F022F8012000F03CF80D48E4B20F2115
:1041400001FB0402E4B221000A4800F03DF80648F1
:1041500000684FF47A7101FB00F1032000F046F88B
:10416000E8E70000284C0000D008001404ED00E04F
:1041700014000014B04A000010B5040064B2042C0E
:1041800007DA012201210F4864B2205CFFF710F822
:104190000EE0042004002000441E40B2002807D096
:1041A00001220121074864B2205CFFF701F8F2E721
:1041B00010BD10B50400034864B2205CFFF789F815
:1041C00010BD0000C40700140EB400B582B003A9EE
:1041D0000091024600AB0121034878440A30FCF705
:1041E0001BF906BC5DF810FBB10A000038B50400ED
:1041F0000D00002D03D147212848FFF773FF284801
:10420000006850F4000026490860264800688008CD
:10421000800024490860244864B210EB04108068D0
:1042200040084000204964B211EB04118860681E08
:104230001D4964B2220150501B4864B210EB0410B7
:10424000C06850F00100184964B211EB0411C86055
:10425000154864B210EB0410806840084000124911
:1042600064B211EB0411886001200F4964B211EBB4
:10427000041188600C4864B210EB0410C068C007D9
:10428000F8D5094864B210EB0410C06850F0010082
:10429000054964B211EB0411C86031BD5C4B0000EC
:1042A0003C8004400070034000710340DFF800F0E0
:1042B00009080014DFF8981340B231F8201040B21A
:1042C0000128C0F26A8140B2162880F2668100227D
:1042D000DFF880331A7089B23D2904DA0022DFF852
:1042E00074335A7077E089B2792904DA0122DFF851
:1042F00064335A706FE089B2B52904DA0222DFF81C
:1043000054335A7067E089B2F12904DA0322DFF8E6
:1043100044335A705FE089B2B1F5967F04DC042221
:10432000DFF830335A7056E089B2B1F5B47F04DC5F
:104330000522DFF820335A704DE089B2B1F5D27F03
:1043400004DC0622DFF80C335A7044E089B2B1F580
:10435000F07F04DC0722DFF8FC325A703BE089B2C0
:10436000B1F5077F04DC0822DFF8E8325A7032E04A
:1043700089B2B1F5167F03DC0922B64B5A702AE0E8
:1043800089B2B1F5257F03DC0A22B24B5A7022E0D4
:1043900089B2B1F5347F03DC0B22AE4B5A701AE0C0
:1043A00089B2B1F5437F03DC0C22AA4B5A7012E0AC
:1043B00089B2B1F5527F03DC0D22A64B5A700AE098
:1043C00089B2B1F5617F03DC0E22A24B5A7002E084
:1043D0000F22A04B5A7089B21A2903DA00229D4B92
:1043E0009A7069E089B2332903DA0122994B9A70F5
:1043F00062E089B24C2903DA0222964B9A705BE0A4
:1044000089B2652903DA0322924B9A7054E089B28B
:104410007E2903DA04228F4B9A704DE089B29729E6
:1044200003DA05228B4B9A7046E089B2B02903DA91
:104430000622884B9A703FE089B2C92903DA072225
:10444000844B9A7038E089B2E22903DA0822814B62
:104450009A7031E089B2FB2903DA09227D4B9A7008
:104460002AE089B2B1F58A7F03DA0A22794B9A7081
:1044700022E089B2B1F5967F03DC0B22754B9A706E
:104480001AE089B2B1F5A37F03DA0C22714B9A705E
:1044900012E089B2B1F5AF7F03DC0D226D4B9A704B
:1044A0000AE089B2B1F5BC7F03DA0E22694B9A703B
:1044B00002E00F22674B9A7089B21A2903DA0022B0
:1044C000644BDA7069E089B2332903DA0122614B67
:1044D000DA7062E089B24C2903DA02225D4BDA70AD
:1044E0005BE089B2652903DA03225A4BDA7054E0A3
:1044F00089B27E2903DA0422564BDA704DE089B284
:10450000972903DA0522534BDA7046E089B2B029C5
:1045100003DA06224F4BDA703FE089B2C92903DA89
:1045200007224C4BDA7038E089B2E22903DA08221C
:10453000484BDA7031E089B2FB2903DA0922454B96
:10454000DA702AE089B2B1F58A7F03DA0A22414B98
:10455000DA7022E089B2B1F5967F03DC0B223D4B85
:10456000DA701AE089B2B1F5A37F03DA0C22394B75
:10457000DA7012E089B2B1F5AF7F03DC0D22354B62
:10458000DA700AE089B2B1F5BC7F03DA0E22314B52
:10459000DA7002E00F222F4BDA70704710B504007A
:1045A000200040B2FFF786FE2B48007810F0FD0097
:1045B000294908702848007850F0100026490870F2
:1045C000B8202649087026480078C006FBD4244845
:1045D0000078C0F38100C0B20228F8D11D48C3782A
:1045E0001C4882781B4841781A480078FFF75EFE25
:1045F000174864B210EB8400807810F00700194966
:104600000870134864B210EB8400C07810F01F00EB
:1046100050F0400014490870114800788006FBD51E
:104620000F4800784006FBD50C48007810F03F009A
:104630000A4908700A480078C0F38100C0B2032814
:10464000F8D1034864B230F82400C0B210BD0000B5
:104650003C07001494070014014006400040064047
:1046600006400640044006400540064000000000A9
:1046700000000000002F00000000070007000014E9
:104680007F147F1400242A7F2A12006264081323F7
:1046900000364955225000000503000000001C228E
:1046A0004100000041221C000014083E08140008CC
:1046B000083E0808000000A060000008080808087C
:1046C000000060600000002010080402003E514914
:1046D000453E0000427F40000042615149460021B2
:1046E00041454B31001814127F10002745454539CC
:1046F000003C4A4949300001710905030036494927
:10470000493600064949291E0000363600000000DF
:10471000563600000008142241000014141414142A
:1047200000004122140800020151090600324959D3
:10473000513E007C1211127C007F49494936003EEF
:1047400041414122007F4141221C007F49494941AA
:10475000007F09090901003E4149497A007F0808A4
:10476000087F0000417F4100002040413F01007F61
:1047700008142241007F40404040007F020C027F2D
:10478000007F0408107F003E4141413E007F09093F
:104790000906003E4151215E007F09192946004665
:1047A000494949310001017F0101003F4040403F3C
:1047B000001F2040201F003F4038403F0063140886
:1047C0001463000708700807006151494543000061
:1047D0007F41410000552A552A55000041417F0084
:1047E0000004020102040040404040400000010279
:1047F0000400002054545478007F48444438003862
:104800004444442000384444487F003854545418E9
:1048100000087E0901020018A4A4A47C007F0804FB
:1048200004780000447D4000004080847D00007FCB
:10483000102844000000417F4000007C04180478E8
:10484000007C0804047800384444443800FC2424E4
:1048500024180018242418FC007C080404080048CC
:104860005454542000043F444020003C4040207CED
:10487000001C2040201C003C4030403C00442810DC
:104880002844001CA0A0A07C004464544C44141490
:104890001414141480B500F08DF800F023F800F023
:1048A00003F8FEF767FCFEE780B50420FFF776FE0D
:1048B00032490860314800684FF47A714843304902
:1048C00008602F4800682F490968C1F30361491C3B
:1048D000B0FBF1F02C4908605FF4E1310320FFF7F1
:1048E000BBFA01BD2DE9F8432848294988420DD07B
:1048F00000208046B8F5826F08D2254850F828007D
:10490000224941F8280018F10108F3E71F4800F098
:1049100071F8204807002048060020480400A01B2A
:1049200080464046B0F10108002804D03078387045
:10493000761C7F1CF5E71A4881461A480500B5EB3E
:10494000090080464046B0F10108002805D000204B
:1049500089F8000019F10109F4E713481349144AD2
:10496000531A98464346B3F10108002B04D00B7844
:104970000370491C401CF5E7BDE8F183CC08001426
:10498000C808001444800440D00800140000FF1F31
:104990000000000000000014001A00000C220000BB
:1049A000580800142C09001408080014204A0000BC
:1049B000704A000080B500F009F80C4800884FF6F6
:1049C000FE7108400949088001BD0000EFF3118025
:1049D00072B64CF22051064A11804DF62811044A55
:1049E0001180C0B2002800D162B670470020054097
:1049F0000E20054010B504004FF4007094FBF0F158
:104A000001FB1041002903D01E210348FFF76AFB78
:104A10000248046010BD0000CC4B000008ED00E02F
:104A2000F0B4114E366834000F4E366856F47F06E7
:104A30000D4F3E600E0616F0706656EA00761705BA
:104A400017F470073E431F0417F470273E43074FC7
:104A50003E6000263500EDB29D4201D26D1CFAE7A2
:104A6000014E3460F0BC704700F0014044800440C7
:104A700019E050F8041BCB0744BFA9F101035918F2
:104A8000121F0023042A41F8043BF9D25FEA827C1A
:104A90000B4604D54FF0000CA1F800C09B1CD107B9
:104AA00044BF0021197050F8042B002AE1D170474F
:104AB0000A2A2A2A2A64656661756C745F697372B2
:104AC00020656E7465726564206F6E207665637410
:104AD0006F722025642A2A2A2A2A0A0A2573204965
:104AE0006E7465727275707400000000433A5C5514
:104AF000736572735C78756C69616E675C4465732D
:104B00006B746F705CB5E7B9ECB3CCD0F25C436802
:104B100069705C7372635C4D4B36305F66746D2EEA
:104B200063000000433A5C55736572735C78756C82
:104B300069616E675C4465736B746F705CB5E7B9EF
:104B4000ECB3CCD0F25C436869705C7372635C4D0B
:104B50004B36305F6770696F2E630000433A5C55D7
:104B6000736572735C78756C69616E675C446573BC
:104B70006B746F705CB5E7B9ECB3CCD0F25C436892
:104B800069705C7372635C4D4B36305F5049542ED4
:104B900063000000433A5C55736572735C78756C12
:104BA00069616E675C4465736B746F705CB5E7B97F
:104BB000ECB3CCD0F25C436869705C7372635C4D9B
:104BC0004B36305F756172742E630000433A5C555A
:104BD000736572735C78756C69616E675C4465734C
:104BE0006B746F705CB5E7B9ECB3CCD0F25C436822
:104BF00069705C7372635C6D6973632E630000009F
:104C000010B5074979441831064C7C44163404E049
:104C10000A68081D511888470146A142F8D110BD05
:104C20002C00000038000000417373657274696FD6
:104C30006E206661696C656420696E202573206151
:104C400074206C696E652025640A000025FEFFFF54
:104C5000D4000000580800140000000000F00BF819
:104C6000002801D0FFF7CCFF0020C046C046FEF769
:104C700081FA00F002F80120704700F001B800004E
:104C80000746384600F002F8FBE700002021090340
:104C900026311820ABBEF9E738B504460D46284644
:104CA00000F006F8A84218BF0024204632BD0000DC
:104CB0000149FFF72FBA00BFC8070014C046C0461D
:104CC000C046C046FFF7CAFF4D49443A0000000005
:104CD000746F705F6B0000000000000000000000B7
:104CE00000000000000000000000000000000000C4
:104CF00000000000FFFFFFFFFFFFFFFF00000000BC
:104D000000000000000000000000000000000000A3
:104D10000000000000000000000000000000000093
:104D2000FFFFFFFFFFFF0000000000000000000089
:104D30000000000000000000000000000000000073
:104D40000000000000000000000000000000000063
:104D50000000000000000000000000000000000053
:0400000500004CBDEE
:00000001FF
