:10000000F8FF002011040000253E0000253E0000FE
:10001000253E0000253E0000253E0000253E000054
:10002000253E0000253E0000253E0000253E000044
:10003000253E0000253E0000253E0000253E000034
:10004000253E0000253E0000253E0000253E000024
:10005000253E0000253E0000253E0000253E000014
:10006000253E0000253E0000253E0000253E000004
:10007000253E0000253E0000253E0000253E0000F4
:10008000253E0000253E0000253E0000253E0000E4
:10009000253E0000253E0000253E0000253E0000D4
:1000A000253E0000253E0000253E0000253E0000C4
:1000B000253E0000253E0000253E0000253E0000B4
:1000C000253E0000253E0000253E0000253E0000A4
:1000D000253E0000253E0000253E0000253E000094
:1000E000253E0000253E0000253E0000253E000084
:1000F000253E0000253E0000253E0000253E000074
:10010000253E0000253E0000253E0000253E000063
:10011000253E0000253E0000253E0000253E000053
:10012000253E0000253E0000253E0000253E000043
:10013000253E0000253E0000253E0000253E000033
:10014000253E0000253E0000253E0000253E000023
:100150000F100000253E0000253E0000253E000057
:10016000253E0000253E0000253E0000253E000003
:10017000253E0000253E0000253E0000253E0000F3
:10018000253E0000253E0000253E0000253E0000E3
:10019000253E0000253E0000253E0000253E0000D3
:10040000FFFFFFFFFFFFFFFFFFFFFFFFFEFFFFFFFD
:1004100062B604F05FFDFEE72DE9F04FA1B0804623
:10042000002017461D4602910B900DF1440A6FF013
:1004300000490AE017F8011B0298C0470028029003
:1004400000F0A5820B98401C0B90387808B90B98E7
:100450009FE22528EED10020059006900790089095
:1004600009900A9001E040F0010017F8011F2029CF
:10047000F9D023290DD02B2904D02D2906D03029DD
:100480000AD00CE040F0020080B2EEE740F0040039
:10049000FAE740F00800F7E740F01000F4E72A29F7
:1004A0000ED12968296051F8042B2960002A0D9289
:1004B00004D5514240F004000D9180B27F1C11E040
:1004C00000210D9109E00D99494505D001EB81030B
:1004D00002EB430130390D917F1C3A78A2F13001D3
:1004E0000A29F0D339782E2903D04FF0FF310C912F
:1004F0001DE017F8011F2A2907D1296829607F1CF0
:1005000051F8042B29600C9211E000210C9109E0B4
:100510000C99494505D001EB810302EB43013039C9
:100520000C917F1C3A78A2F130010A29F0D3ADF882
:1005300038000FF6C020397800F06AFD08B117F8CE
:10054000010B8DF83A009DF83A00682802BF39780F
:100550006829622005D06C2804BF38786C2803D144
:1005600071208DF83A007F1C11A8049017F8014BF8
:10057000B4F1250023D02038022840F2BB80133884
:1005800000F0E0800B3800F04A81401E00F023812B
:10059000401E022840F2AE80001F00F01C81401F68
:1005A00079D0401E00F0CE80401E24D0C01E0BD05B
:1005B000801E00F0C780C01E00F0C48039E12520F5
:1005C0008DF8440001203DE12868286050F8046B54
:1005D000286003960C9C002C04D5304600F024FDC6
:1005E000044606E022460021304600F039FD00B105
:1005F000841B069427E1296829603C2451F8040BE8
:1006000029600021CDE9000111A80390DDE9000176
:10061000049E11B908B90C9AB2B10206120FA0EBF0
:1006200002123032D2B2631E3A2AA8BF2732000922
:1006300040EA017009099A5508BF00281C4603D0FA
:10064000039AA3199A42E8D3A0190390C4F13C017C
:100650000C980691814209DA401A08904FF6EF7122
:10066000BDF838000840ADF83800ECE0002840F153
:10067000EA809DF8380000F01400102840F0E38074
:100680000D98059A801A089A801A441A012CC0F213
:10069000DA800894D7E09DF83A0062281AD06828DA
:1006A00006D06A280CD06C281CD0712808D019E01C
:1006B0002868286050F8041B28600B980880C2E066
:1006C0002868286050F8042B28600B98C117C2E9ED
:1006D0000001B8E02868286050F8041B28600B98D7
:1006E0000870B0E02868286050F8041B28600B9858
:1006F0000860A8E02868C01D20F007022A60D2E93F
:10070000000108322A60CDE90001002902D50598D0
:100710002D210AE0BDF83800810702D505982B216C
:1007200003E0C00705D50598202100F80A10401CF9
:10073000059011A8059908180390214600A800F01B
:10074000E5F980E09DF83A006C280DD0712818BFBB
:100750006A2809D12868C01D20F007022A60D2E962
:10076000000108322A6005E02968296051F8040B6D
:1007700029600021CDE900019DF83A00682803D1E5
:10078000DDE9000180B20BE0622803D1DDE9000160
:10079000C0B205E0742818BF7A2804D1DDE9000151
:1007A0000021CDE900019DF8380000072ED5DDE9D4
:1007B0000001002908BF002828D044F02000782834
:1007C00024D10598302100F80A10401C411C0591E5
:1007D00000F80A401AE09DF83A00294600F0DCF8DB
:1007E000CDE90001002902DA05982D210AE0BDF8C3
:1007F0003800810702D505982B2103E0C00705D5F5
:100800000598202100F80A10401C059011A80599B0
:1008100008180390214600A800F0F5F813E0012025
:1008200005902868286050F8041B28608DF8441053
:1008300009E025208DF84400012005901CB18AF8BC
:100840000140022005900D980599401A0899401A18
:100850000699401A0999401A0799401A0A99441AA8
:100860009DF83800400710D420208DF84000002665
:1008700009E0012310AA00A9404600F0A3FB0028CC
:1008800040F08580761CA642F3DB059E0DF1440BFB
:100890000AE01BF8011B0298C0470028029076D09E
:1008A0000B98401C0B90761E002EF2D130208DF854
:1008B00040004FF0000B089E09E0012310AA00A998
:1008C000404600F07FFB002861D10BF1010BB345DE
:1008D000F3DB069EDDF80CB00AE01BF8011B029862
:1008E000C0470028029052D00B98401C0B90761EF7
:1008F000002EF2D130208DF840004FF0000B099E01
:1009000009E0012310AA00A9404600F05BFB002883
:100910003DD10BF1010BB345F3DB03980699079E1C
:1009200001EB000B09E01BF8011B0298C047029085
:1009300068B30B98401C0B90761E002EF3D130202C
:100940008DF840004FF0000B0A9E08E0012310AA2A
:1009500000A9404600F036FBC8B90BF1010BB345C6
:10096000F4DB9DF8380040077FF56FAD20208DF84F
:100970004000002600E0761CA642BFF666AD0123CB
:1009800010AA00A9404600F01DFB0028F3D04FF04C
:10099000FF3021B0BDE8F08F622826D068281DD036
:1009A0006A2808D06C2827D0712804D0742823D056
:1009B0007A280CD020E00868C01D20F007000860ED
:1009C000D0E90023083008601946104670470A68CD
:1009D0000A6052F8040B0A60002170470A680A6036
:1009E00052F8040B0A6000B20BE00A680A6052F881
:1009F000040B0A6040B204E00A680A6052F8040B73
:100A00000A60C11770472DE9FA4E05460A462F695C
:100A10006F2A08BF082405D041F02000782814BFB1
:100A20000A2410243C26D5E90001642A18BF692A4B
:100A300081468A4605D1002903DAD9F100096AEB1B
:100A40004A0ABAF1000F08BFB9F1000F0CD1286BA8
:100A500050B9082C36D195F83800000732D530202F
:100A60003B2687F83B002DE0E317484651462246D7
:100A700000F022FBA4FB0023A9EB02023032D2B229
:100A8000A6F1010B3A2A5E4603DB9DF80030513B8C
:100A90009A1881465FEA010A0BF8072008BFB9F1EE
:100AA000000F03D0E868F1198842DDD3082C09D182
:100AB00095F83800000705D5F05D302802D0761E85
:100AC0003020F055C6F13C00A861F119E960296BAE
:100AD000884208DA081A28624FF6EF71288F08401A
:100AE0002887BDE8F38E00290ED595F8381001F05F
:100AF0001401102908D1696B6A69891A2A6A891A4E
:100B00000E1A012EA8BF2E62BDE8F38E2DE9F34F19
:100B10008BB0D0E90089006B002801AF48BF0620E8
:100B200005D404BF41F02000672802D101200B99B1
:100B3000086340F2FF720B984168C1F30A5090427B
:100B400020D1080302BF0B98006800280AD10B9936
:100B5000032088619DF8300061381A2858D30FF2BD
:100B6000A84109E00B99032088619DF830006138A5
:100B70001A284AD30FF288410B98C068032200F06C
:100B800013FB00E1012807DA0B9800F048FB01286D
:100B900002DB00230026EDE00B9ADFF854B1526827
:100BA00040F2FE3161F31E520B994A6040F2FE3171
:100BB000461A404649460022002300F051FB38BF48
:100BC00089F0004936B247F297507043494990FB8B
:100BD000F1F636B2C6F10707012F92461BDBF80784
:100BE00007D552465B464046494600F051FB8046D9
:100BF00089465046594652465B467F1000F048FBF6
:100C0000002F82468B46EAD126E00FF2F031B3E79F
:100C10000FF2F031B0E77F420024374D12E0F807C1
:100C200007D552465B462046294600F031FB044674
:100C30000D465046594652465B4600F029FB7F1050
:100C400082468B46002FEAD14046494622462B4633
:100C500000F0F0FB804689469DF830000B99DFF8E4
:100C60009CB0096B40F02005662D0CBF06F10A0010
:100C700006204718142FA8BF132730208DF8040032
:100C80000DF10504012F3BDB4046494600F0FEFC18
:100C9000014604F1080204234FF00A0CB1FBFCFCEE
:100CA0000CEB8C04A1EB4401303102F8011C0A2149
:100CB000BCFBF1FE0EEB8E04ACEB440430345B1E47
:100CC000714602F8024DE7D1083F012F02F10804F6
:100CD000D8DB00F0F1FC02460B464046494600F0E6
:100CE000F9FC00225B4600F0D3FA80468946CBE748
:100CF00000002440A08601000000F03F84D7974107
:100D00000DF10500201A0DF1050702E0401E761EC8
:100D10007F1C39783029F9D0662D02D136B2711C8A
:100D200003E0652D0CBF012100210B9A126B8B187B
:100D30001BB29842B8BF03461BB219001AD48142B5
:100D400004DAC85D3528A8BF392000DA3020CA1976
:100D5000521E00E05B1E12F80159491E8542F9D06F
:100D6000392802D1C85D401CC855002902D57F1E14
:100D70005B1C761C36B29DF830100B9800961BB2A7
:100D80003A4600F003F80DB0BDE8F08F2DE9F047CA
:100D900086B006468A4690461D4600F078FD012D35
:100DA000406A376B90F8009002DA01250FF25C2858
:100DB0004AF02000BDF93840662808BF641C13D0F3
:100DC000672840F0888014F1040F73DBBC4271DAAD
:100DD00096F83800641C000702D4BD42B8BF2F4605
:100DE00024B23F1B48BF002724B2F068B169012C30
:100DF00021DA4A1C30230B54012F03DA96F83810FD
:100E0000090702D502F80090521CE742B8BF7C42A5
:100E100024B2E7196142AF42B2617162B8BF3D4688
:100E2000B3692DB2F5612A464146181800F0BCF9A5
:100E3000781BB062AFE00818A54216DA2A46414690
:100E400000F0B2F9B1696918601B012FB1617062DD
:100E500003DA96F83800000705D5F06801F800902D
:100E6000F069401CF061B76295E02246414600F00F
:100E70009BF9B06920182D1B012F03DA96F8381062
:100E8000090703D5F16800F80190401CB0612DB24C
:100E9000AF42B8BF3D46F068B3692DB22A4604EBB5
:100EA0000801181800F080F9B0692818B061781BA3
:100EB000706270E0BD4204DA96F83810090758BF36
:100EC0002F467F1E48BF0027BAF1670F0CBF4FF0B7
:100ED000650A4FF0450AB169F06818F8013B0B54F8
:100EE0004A1C012F05DA96F83810090758BFB2617D
:100EF00015D502F80090531C012FB3610FDB6D1E56
:100F00002DB2AF42B8BF3D462DB22A464146181811
:100F100000F04AF9B0692818B061781B7062F06877
:100F2000B1690918200081F800A004D42B20487072
:100F300001F1020804E02D224A7001F10208644226
:100F4000002502AF08E00A2200A800F0B9FC0198D1
:100F500007F8010B6D1C009C21B20129F3DA022D68
:100F600006DA4AF02000652804BF302008F8010B9B
:100F70004DB9302008F8010B07E06D1E02A8285C6F
:100F8000303008F8010B012DF7DAF068B169081864
:100F9000A8EB0000F06196F8380000F0140010286B
:100FA0000DD17069B1690818716A0818F1690818DB
:100FB000B16A0818716B8842BCBF081A306206B06B
:100FC000BDE8F087F8B504460D4616461F460020DA
:100FD00004E0E86A401CE8627F1E002047B116F872
:100FE000011BA868A0470028A860F2D14FF0FF308D
:100FF000F2BD0000686A6C747A4C00006E616E008D
:101000004E414E00696E6600494E46003000704702
:101010000278C9B28A421AB11CBF10F8012FF9E751
:1010200018BF00207047000000F10103810704D0C1
:1010300010F8011B89B18107FAD10268B2F10131C0
:10104000914311F0803F04BF50F8042FF6E710F8E9
:10105000011B11B110F8011BFBE7C01A704700001B
:10106000C9B2830706D0521E22D310F8013B994221
:10107000F7D11FE0083A13D302F1040241EA01213B
:1010800041EA014150F8043B121F21BF4B40A3F13C
:10109000013C2CEA030C1CF0803FF3D0C9B2001FC6
:1010A000083210F8013B521E28BF91EA030FF8D80E
:1010B00018BF0120401E70471B4213D1094236D190
:1010C0002AB18446B0FBF2F002FB10C2704700F078
:1010D000FFBBFCD30022002370470B00020000215D
:1010E00000207047904271EB030CF6D370B5B1FA53
:1010F00081F4B3FA83F52C1BA340C4F1200532FA26
:1011000005F63343A2405FF00046E64002E05B088C
:101110005FEA3202841A71EB030524BF2046294698
:101120007641F4D302000B003000002170BD012A8B
:10113000CFD970B5140C20D0B1FA81F4B2FA82F58F
:10114000C4F120046419B4F12006D6D3B2405FF094
:101150000044F440002502E052085FEA3303C61A57
:1011600071EB020E24BF3046714664416D41F3D3EA
:1011700002000B002000290070BD0C46B1FBF2F10B
:1011800002FB11452D0445EA1045B5FBF2F402FBC4
:10119000145580B240EA0545B5FBF2F002FB10524F
:1011A00040EA044070BD000062B38B0708D0521EB5
:1011B00011F8013B00F8013B00F024808B07F6D1C9
:1011C000830740F0208000BF103A07D330B4B1E865
:1011D0003810103AA0E83810F9D230BC530724BFB9
:1011E000B1E80810A0E8081044BF51F8043B40F8EB
:1011F000043BD20724BF31F8022B20F8022B44BF56
:101200000B7803707047083A07D3B1E80810083A22
:1012100040F8043B40F804CBF7D25307E4E730B47E
:10122000436803F0004201211B031B0B436004BF12
:101230000368002B08D10DE00368DD0F45EA440484
:1012400044605B000360491E4468E302F4D5230355
:101250001B0B436043681A434260084630BC70472A
:101260004FF4001C1CEB410F94BF1CEB430F09E033
:1012700041EA030C50EA4C0C52EA0C0C03D299429E
:1012800008BF9042704714BF8B42824270470000F3
:10129000B0B581EA030C0CF0004C40F2FF7515EA82
:1012A00011541DBF15EA1357AC42AF4239E0E4199F
:1012B00023EA455343F48013C90241F0004141EA57
:1012C000505EC7021100A7FB020200284FF0000089
:1012D000EEFB01204FF00001E3FB072118BF42F0B5
:1012E0000102401800214941E3FB0E01A4F580648E
:1012F0000F0302D252004041494154F101046CDD18
:10130000470872F1004250F1000051EB0451A1F581
:1013100080115CBF41EA0C01B0BD4CEA05510020D0
:10132000B0BD05EA1357AC4214BFAF4241E050EAEA
:10133000410E1CBF52EA430E02E061460020B0BDE0
:1013400024423C441BD15FEA070EF6D0090302BFDA
:1013500001460020AEF1140EB1FA81F7AEEB07049E
:1013600001FA07FE0C37C7F1200100FA07F7C84061
:101370004EEA000E23EA455343F48013A2E733F00C
:101380000043B3FA83F704BFB2FA82FE77440B3FFF
:10139000E41BB7F1200E2FBF02FA0EF3BB40C7F1DA
:1013A000200E22FA0EFE38BF43EA0E03BA40641C38
:1013B00082E750EA410E14BF52EA430E6FF000017B
:1013C0004FF4001717EB430F8ABF194617EB410F75
:1013D000B5E74CEA05510020B0BDD4F10104B4F1E9
:1013E00020070FDAC4F12007520828BF42F001029B
:1013F00010FA07F501FA07F7E1BF2A43E040384346
:10140000E1400FE0352C98DCC7F1200452EA40029D
:1014100020FA07F218BF42F0010231FA07F0A140AA
:101420000A43002172F1004250F1000051EB0C011F
:10143000B0BD00002DE9F04140F2FF7581EA030CD8
:101440000CF0004C15EA11541DBF15EA1357AC42BD
:10145000AF42E9E0BC41C1F31301C3F31303801AA7
:10146000994143F4801304D2641E4000494180181E
:101470005941C90241EA5051B1FBF3F603FB161181
:10148000A2FB0675D7EBC020A94102D2761E8018B8
:101490005941C90241EA5051B1FBF3FE03FB1E1151
:1014A000A2FB0E75D7EBC020A94103D2AEF1010E0D
:1014B00080185941890241EA9051760546EA8E2EFC
:1014C000B1FBF3F603FB1611A2FB0675D7EB8020E8
:1014D000A94102D2761E80185941C90241EA5051F1
:1014E0004EEA060EB1FBF3F603FB1611A2FB0675DE
:1014F000D7EBC020A94102D2761E80185941C902FB
:1015000041EA5051B1FBF3F703FB1711A2FB07357A
:10151000D3EBC020A94167F100070CBF004247F0A0
:10152000010766F3D5274FEA1E31B80814F5806429
:1015300014DDBD0775F1004250EB0E5051EB045124
:1015400011F5801F5CBF41EA0C01BDE8F0814CF051
:101550007F6141F0E0410020BDE8F081BD076D08EA
:1015600040EA0E5041F48011D4F10104B4F1200698
:101570000ADAC4F120060200E04001FA06F3E14075
:101580001843B24015430EE0342C14DCC6F120049D
:1015900045EA40056D0820FA06F2154321FA06F0E7
:1015A000A1400D43002175F1004250F1000051EBC4
:1015B0000C01BDE8F08100205FEA0C01BDE8F0817C
:1015C000CFB992185B41B3FA83F704BFB2FA82F63F
:1015D000BF190B3FB7F120062FBF02FA06F3BB403D
:1015E000C7F1200622FA06F638BF3343BA401CB1D1
:1015F000E419641E2FE77F4231F00041B1FA81F413
:1016000004BFB0FA80F6A4190B3CB4F120062FBF3A
:1016100000FA06F1A140C4F1200620FA06F638BF10
:101620003143A0403C1B16E7AC421ABF05EA1357F2
:10163000AF4214E050EA41061CBF52EA4306BFE73E
:1016400050EA4107304661461CBF41EA0551BDE8FA
:10165000F08152EA430C08BFC143BDE8F08100208D
:101660004FF4001616EB410F98BF16EB430F08BF5F
:1016700016EB410F24BFC14305E016EB430F0CBF2F
:1016800061464CEA0551BDE8F0810000400D40EA9A
:10169000C120490080F00D8040F00040490DA1F5C7
:1016A0008061491C05D4D1F11F0154BFC840C01747
:1016B00070474FF000007047010000BF09D0B0FA3A
:1016C00080F18840C91CC1F58461090501EBD02176
:1016D00040057047F0B44FF0004591EA030F44BF56
:1016E0006B4000F0F7B800BF841A71EB030604D218
:1016F0006E40001BB141121973414FF4001C1CEBEA
:10170000410F34BF7CEB430684E00C0DA4EB135671
:10171000362E7DDC012E43DC45EAC32343EA5253D7
:1017200012BFD20292025B08240545EAC12141EAB8
:101730005051D2EBC020994125D407D1B0FA80F6A0
:1017400010FA06F164D00020203608E0B1FA81F6E4
:10175000B140C6F1200220FA02F21143B0404FEA34
:10176000F474B4EB465434F001064FEA74040AD81A
:10177000D6F50016760D04F00044F04061FA06F24A
:101780005040F1404840C00A40EA415021F0004139
:1017900028BF5FEA500550F1000044EBD12137E04B
:1017A00045EAC323DB0A45EAC121C90AB6F120058F
:1017B0000EDD42EA0242120CC5F1200603FA06F6DB
:1017C000EB4042EA06056D42984161F100010DE0EF
:1017D00062FA06F5F240554063FA06FC82EA0C0212
:1017E000F3405A406D42904161EB030111F4801FB8
:1017F00005D1641E620502D06D004041494121F4CB
:101800008011430875F1004350F1000041EB045191
:10181000F0BC70471CEB410F15D223F0004352EA95
:1018200043060BD04FEA4C0CBCEB410F04D80C0D17
:10183000661E342EB7DDEBE7801A994150EA410667
:1018400008BF0021E4E708BF1CEB430F28BF6FF07F
:101850000001DDE780B5134800F0A6F80FF24C0256
:101860000FF244010160426241600FF24402826360
:1018700081600FF24402C160016141618161816256
:10188000C16201634163C2630164416401BD10B57B
:10189000044800F089F80446206808B9FFF7DAFF29
:1018A000204610BDAC090014000000002E0000000E
:1018B00066616C736500000074727565000000005D
:1018C00091FBF2F303FB1211C0E9003170470000F5
:1018D00070470000841A71EB030603D2001BB1416C
:1018E000121973414FF4001C1CEB410F34BF7CEB09
:1018F000430443E00C0DA4EB1356352E50DC45EAAF
:10190000C323DB0A45EAC121C912B6F120050DDD6A
:1019100063FA05F6EB4086EA0305124218BF45F06C
:101920000105C01851F100010CD213E062FA06F56E
:10193000F2405540F3415A40B340F3405A408018BA
:10194000594107D349085FEA30005FEA350528BFEF
:1019500045F0010501F58011420875F1004250F192
:10196000000041EB0451F0BC4FF4001C1CEB410F94
:1019700038BF70470020090D090570471CEB410F67
:1019800010D252EA43060BD0BCEB410F05D80C0D28
:10199000AB43661E342EB5DD02E0AB4380185941DF
:1019A000F0BC7047F0BC70477047000010B40300F3
:1019B00000242100994209D20024220043F2287415
:1019C000A24201D2521CF9E7491CF3E710BC704750
:1019D000002808D04FF4487211000A00511E002A56
:1019E000FBD1401EF4E7704780B50122032100209F
:1019F00000F058FD01220321012000F053FD0122D7
:101A00000321022000F04EFD01220321082000F0F6
:101A100049FD01220321092000F044FD0122032198
:101A20009C2000F03FFDDFF8F80903683222002116
:101A3000002000F095FE002342F2107200210220E7
:101A400000F08EFE002342F210720121022000F00D
:101A500087FE01BD80B501F07DF8DFF8C809007888
:101A6000002805D0022800F0D280C0F09A80CEE095
:101A7000DFF8B4290021002001F06CF9DFF8AC098F
:101A8000008C01F047FB02000021372001F0A0F993
:101A9000DFF89809808B01F03DFB020000215A20FD
:101AA00001F096F9DFF888290121002001F052F9B0
:101AB000DFF87809008801F02DFB020001213720B2
:101AC00001F086F9DFF86C290221002001F042F9CB
:101AD000DFF85809808801F01DFB02000221372041
:101AE00001F076F9DFF84409008901F013FB0200E8
:101AF00002215A2001F06CF9DFF83C290321002073
:101B000001F028F9DFF82409008A01F003FB020044
:101B10000321372001F05CF9DFF81009808901F01A
:101B2000F9FA020003215A2001F052F9DFF80C29DA
:101B30000421002001F00EF9DFF80409808801F08B
:101B4000E9FA02000421372001F042F9DFF8F42815
:101B50000521002001F0FEF8DFF8E408008801F01C
:101B6000D9FA02000521372001F032F9DFF8D00858
:101B7000008901F0CFFA020005215A2001F028F96E
:101B8000DFF8C4280621002001F0E4F8DFF890080F
:101B9000006801F0B5FA02000621372001F018F9BB
:101BA00035E0DFF8A8080078082807DAACA2DFF8EB
:101BB0009C080178002001F0CDF809E0A8A2DFF828
:101BC0008C080078B0F10801C9B23C2001F0C2F8DD
:101BD000A4A200210A2001F0BDF8DFF87408006813
:101BE00001F08EFA02000021242001F0F1F89EA2FB
:101BF00001210A2001F0AEF8DFF85808006801F072
:101C00007FFA02000121242001F0E2F8FFE701BD84
:101C1000F8B504000D001600E4B2012C4DD1EDB270
:101C20002800022802D0032827D046E0DFF8200849
:101C3000006801F065FA07005FF07E50310001F0A6
:101C400079FA390001F0E2FA01F022FBDFF800181E
:101C500008600021242000F09BFF2A2200210020A0
:101C600001F050F8DFF8E807006801F049FA0200D7
:101C70000021242001F0ACF81FE0DFF8D80700684D
:101C800001F03EFA310001F0C1FA01F001FBDFF88A
:101C9000C41708600121242000F07AFF2A220121C4
:101CA000002001F02FF8DFF8AC07006801F028FAF7
:101CB00002000121242001F08BF8F1BD80B5DFF88E
:101CC00098070068C0F38000002823D11E20FFF78A
:101CD0007FFEDFF884070068C0F38000002819D178
:101CE000DFF874070068C0F380000028F8D0DFF840
:101CF00034070078022807DADFF828070078401C4C
:101D0000DFF82017087003E00020DFF818170870CC
:101D1000FFF7A0FEDFF80C070078012840F09E8056
:101D2000DFF834070068C0F34000002823D11E20EC
:101D3000FFF74EFEDFF820070068C0F340000028E0
:101D400019D1DFF814070068C0F340000028F8D06C
:101D5000DFF8F80600780F2807DADFF8F0060078D9
:101D6000401CDFF8E816087003E00020DFF8DC16FE
:101D70000870FFF76FFEDFF8E4060068C0F300703C
:101D8000002823D11E20FFF723FEDFF8D0060068CD
:101D9000C0F30070002819D1DFF8C0060068C0F356
:101DA00000700028F8D0DFF8A4060078002807D0DB
:101DB000DFF898060078401EDFF89016087003E000
:101DC0000F20DFF888160870FFF744FEDFF888065A
:101DD0000068C0F3002000281CD11E20FFF7F8FD8A
:101DE000DFF874060068C0F30020002812D1DFF885
:101DF00068060068C0F300200028F8D05FF07E522B
:101E0000DFF848060178DFF81C060078FFF700FFCE
:101E1000FFF720FEDFF840060068C0F340200028EE
:101E20001CD11E20FFF7D4FDDFF82C060068C0F39C
:101E30004020002812D1DFF820060068C0F34020BF
:101E40000028F8D0DFF81826DFF800060178DFF860
:101E5000D4050078FFF7DCFEFFF7FCFD01BD0000B4
:101E60002A00000044503A004444000010B5002409
:101E7000DFF8B4250021002000F06CFFDFF8BC255E
:101E80000421002000F066FF40F6B830FFF78EFD19
:101E9000642004002000441E002818D001F085FAB8
:101EA0000A2190FBF1F0DFF88415C86101F0D5FB41
:101EB0000A2190FBF1F0DFF87415086201F01AFDB9
:101EC0000A2190FBF1F0DFF878154860E2E7DFF8CF
:101ED0005C05008C01F01EF902000021372000F0A3
:101EE00077FFDFF84805808B01F014F9020000212C
:101EF0005A2000F06DFFDFF84805808801F00AF9EC
:101F000002000421372000F063FFDFF824250121BF
:101F1000002000F01FFFDFF81405C069DFF80C1582
:101F2000096A88420EDB0120DFF838150870DFF8F7
:101F3000FC04C069DFF8F414096A401ADFF8EC14F5
:101F400008600DE00120DFF820150870DFF8DC04E0
:101F5000006ADFF8D814C969401ADFF8D0140860A5
:101F6000DFF8C804008801F0D5F80200012137200D
:101F700000F02EFFDFF8BC240221002000F0EAFE72
:101F800040F6B830FFF712FD642004002000441E24
:101F9000002808D001F009FA0A2190FBF1F0DFF8DF
:101FA0008C148860F2E7642004002000441E00289E
:101FB00008D001F052FB0A2190FBF1F0DFF86C141D
:101FC0004860F2E7DFF86404808801F0A3F80200BB
:101FD0000221372000F0FCFEDFF85004008901F0F8
:101FE00099F8020002215A2000F0F2FEDFF848249E
:101FF0000321002000F0AEFE40F6B830FFF7D6FC1B
:10200000642004002000441E002808D001F0CDF90F
:102010000A2190FBF1F0DFF81414C860F2E76420A5
:1020200004002000441E002808D001F016FB0A21FD
:1020300090FBF1F0DFF8F4130861F2E7DFF8EC034E
:10204000008A01F067F802000321372000F0C0FE8B
:10205000DFF8D803808901F05DF8020003215A20DF
:1020600000F0B6FEDFF8DC230521002000F072FE50
:1020700040F6B830FFF79AFC642004002000441EAC
:10208000002808D001F036FC0A2190FBF1F0DFF8BF
:10209000B0130860F2E7DFF8A803008801F03AF80F
:1020A00002000521372000F093FE40F6B830FFF71C
:1020B0007DFC642004002000441E002808D001F0AC
:1020C00019FC0A2190FBF1F0DFF874138860F2E745
:1020D000DFF86C03008901F01DF8020005215A2089
:1020E00000F076FEDFF84403C068DFF8401349686B
:1020F000884206DBDFF834034068DFF830134861BC
:1021000005E0DFF82803C068DFF820134861DFF836
:102110001C038068DFF814130969884206DBDFF8C6
:102120000C038068DFF80413886103E0BF4800698E
:10213000BE49886110BD80B5DFF82803007800280B
:1021400041D0DFF828030068B84909680818DFF8AB
:102150001C130860DFF814030068DFF81413096823
:10216000401ADFF810130860DFF80C030068B44968
:102170000968401A14280FDAAC488069BF49086022
:10218000AA484069BE490860BD480068BB49096863
:10219000401A3230B7490860B7480068A8498968D2
:1021A000401A14280FDAA1488069B54908609F4891
:1021B0004069B2490860B2480068B0490968401AED
:1021C0003238AC490860A848007800283BD0A848BD
:1021D0000068964909680818A5490860A34800687E
:1021E000A3490968401AA3490860A34800689449B4
:1021F0000968401A14280FDA8C4880699F490860E2
:102200008A4840699E4908609D4800689B49096862
:10221000401A3230974908609748006888498968B1
:10222000401A14280FDA81488069954908607F4870
:102230004069924908609248006890490968401ACC
:1022400032388C4908608A4800688E49086087489F
:1022500000688D4908608648008800F05BFF020036
:102260000721552000F0B4FD8048008800F052FF9F
:1022700002000721032000F0ABFD7D4800686B4998
:102280004969884204DA694840697949086009E087
:102290006648806976490968884203DA634880693C
:1022A000734908607148006860494969884204DAE6
:1022B0005E4840696D49086009E05C4880696B4987
:1022C0000968884203DA594880696849086001BD95
:1022D00010B55F480068674909685E4A1268654B37
:1022E0001B686A4C24681B1B5A4301FB0020142105
:1022F00090FBF1F0664908605E4800686349086039
:102300006348006810F5487F03DA62486049086056
:1023100008E05F480068B0F5487F03DD4FF448707F
:102320005B4908605A48006800F5B85270320021D5
:10233000002000F0D4FA5648006800F5B85070301C
:1023400000F0DEFE020003215A2000F041FD10BD26
:1023500080B55148007851490870504890F90020E4
:102360000021022000F0BBFA00220121022000F02F
:10237000B6FA01BD80B572B6FFF736FB00F032FC4D
:1023800000F0B8FF01F00EF901F064FA4FF41651B5
:10239000012001F0DFFBFFF769FD2F480068C0074F
:1023A0003CD500203E490870FFF788FCFFF752FB40
:1023B0004FF4FA6000F009FC27480068C0070DD40C
:1023C0000A20FFF705FB24480068C00706D422480E
:1023D0000068C007FBD501203149087030480078FB
:1023E0000028DAD000F0E1FF0A2190FBF1F020494B
:1023F000086001F032F90A2190FBF1F01B490860F6
:1024000001F078FA0A2190FBF1F01B490860FFF710
:1024100092FEFFF75DFFFFF79BFFE3E701BD0000C2
:1024200018000014A60900142C530000E80800143A
:10243000FC52000008530000145300003453000005
:10244000100900143C53000044530000A709001475
:10245000100000141400001410F00F4010F10F4091
:10246000000080BFAA090014AB090014D0080014B2
:10247000CC08001438090014DC080014E00800142B
:10248000E4080014D4080014D80800143C0900140F
:1024900040090014E0FCFFFF0D000014A90900141E
:1024A000A809001470B504000D0016004FF48071E7
:1024B0002000C0B201F06EFC6DB2002D11D1604859
:1024C000E4B2611150F821005D49E4B2621151F8A3
:1024D00022104969012214F01F039A40914341617F
:1024E00036E05748E4B2611150F821005449E4B293
:1024F000621151F822104969012214F01F039A4019
:1025000011434161F6B2002E11D14D48E4B2611180
:1025100050F821000068012114F01F029140884307
:102520004749E4B2621151F82210086010E04448B3
:10253000E4B2611150F821000068012114F01F027B
:10254000914008433E49E4B2621151F822100860FC
:1025500070BD38B504000D003948E4B2611150F87F
:102560002100406914F01F010200CA40D00703D4C3
:102570006321344801F034FCEDB2002D11D1304814
:10258000E4B2611150F821000068012114F01F022B
:10259000914088432A49E4B2621151F82210086040
:1025A00010E02748E4B2611150F8210000680121D1
:1025B00014F01F02914008432149E4B2621151F81E
:1025C0002210086031BD10B504001D48E4B261114D
:1025D00050F82100406914F01F010200CA40D007E2
:1025E00003D47B21174801F0FBFB1548E4B26111CD
:1025F00050F82100012114F01F029140C16010BD6C
:1026000010B504000E48E4B2611150F82100406991
:1026100014F01F010200CA40D00703D58C210948DD
:1026200001F0DEFB0648E4B2611150F821000069B8
:1026300014F01F010200CA4012F0010010BD00009A
:10264000300700146451000038B504000D0064B276
:10265000002C03D0022C66D049D380E0DFF8700351
:10266000006850F08070DFF8681308606DB2002DCC
:102670000BD0022D15D00ED3042D1ED017D3062D4E
:1026800027D020D3072D2AD02FE04FF4806141209E
:1026900001F080FB2AE04FF48061422001F07AFBD8
:1026A00024E04FF48061432001F074FB1EE04FF4FE
:1026B0008061442001F06EFB18E04FF44071072068
:1026C00001F068FB12E04FF48061652001F062FBCD
:1026D0000CE04FF48061662001F05CFB06E04FF4F3
:1026E0008061672001F056FB00E038E037E0DFF85A
:1026F000E002006850F00070DFF8D41208606DB29C
:10270000002D02D0012D06D00BE04FF440710C20BB
:1027100001F040FB06E04FF440710D2001F03AFB60
:1027200000E01CE01BE0DFF8AC02006850F08070B5
:10273000DFF8A01208606DB2002D02D0012D06D086
:102740000BE04FF44071322001F024FB06E04FF41F
:102750004071332001F01EFB00E000E0FFE731BDD7
:102760002DE9F84F04000D0016001F0064B2002C84
:102770000DD064B2012C02D064B2022C02D16DB231
:10278000022D04DBFC21DFF8500201F029FB2900B7
:1027900049B2200040B2FFF757FFDFF8400200685F
:1027A0004FF47A71484380465FEA1840B0FBF6F078
:1027B0008146002082461FFA89F9484650FA0AF0FD
:1027C000012802DB1AF1010AF5E75FFA8AFABAF189
:1027D000080F05DB40F21711DFF8FC0101F000FBE8
:1027E000404630FA0AF0B0FBF6F0814664B2002CA5
:1027F00003D0022C19D00CD322E01FFA89F919F169
:10280000010000FB07F0DFF8D811B0FBF1F08346C0
:1028100016E01FFA89F919F1010000FB07F0DFF853
:10282000C011B0FBF1F083460AE01FFA89F919F1F3
:10283000010000FB07F06421B0FBF1F08346FFE7E5
:10284000DFF8A00164B250F824006DB210EBC500AF
:10285000DFF8901164B251F824106DB211EBC5018C
:10286000C96831F00401C160DFF8780164B250F842
:1028700024006DB210EBC5002821C1605FFA8AFA0E
:102880001AF0070050F00800DFF8581164B251F850
:10289000241008601FFA89F9DFF8480164B250F883
:1028A0002400C0F808900020DFF8381164B251F815
:1028B0002410C864DFF82C0164B250F824006DB213
:1028C00010EBC5001FFA8BFBC0F810B00020DFF83A
:1028D000141164B251F824104860BDE8F18F2DE95D
:1028E000F04104000D0016005FF0000864B2002CF7
:1028F0000ED064B2012C02D064B2022C02D16DB2AF
:10290000022D05DB4FF4A971DFF8CC0001F068FA65
:1029100064B2002C03D0022C17D00BD31EE0DFF8DA
:10292000C800864205D340F25711DFF8AC0001F031
:1029300057FA13E0DFF8B000864205D340F25B118E
:10294000DFF8940001F04CFA08E0652E05D340F260
:102950005F11DFF8840001F043FAFFE7DFF884003D
:1029600064B250F8240080688046B8F1000FF5D0BA
:1029700064B2002C03D0022C15D00AD31CE018F14D
:10298000010000FB06F0DFF85810B0FBF1F0070083
:1029900012E018F1010000FB06F0DFF84410B0FB74
:1029A000F1F0070008E018F1010000FB06F06421D7
:1029B000B0FBF1F00700FFE7DFF8280064B250F841
:1029C00024006DB210EBC5000761BDE8F081000086
:1029D0003C800440308004402C5100004C0900141D
:1029E000A086010024070014A18601000821DFF859
:1029F000D826126852F00102DFF8CC361A6000BF08
:102A0000DFF8C426126832F04002DFF8BC361A60E4
:102A100000BF0A00511ED2B2002A25D0020608D5F6
:102A2000DFF8A426126852F01002DFF89C361A6014
:102A300007E0DFF89426126832F01002DFF88836DB
:102A40001A60DFF88426126852F04002DFF8783608
:102A50001A6000BFDFF87026126832F04002DFF81B
:102A600068361A604000D4E7704700000821DFF89C
:102A70005826126852085200DFF84C361A60DFF808
:102A80004826126832F04002DFF83C361A600A002D
:102A9000511ED2B2002A25D0020608D5DFF828261A
:102AA000126852F01002DFF820361A6007E0DFF8F3
:102AB0001826126832F01002DFF80C361A60DFF8C0
:102AC0000826126852F04002DFF8FC351A6000BF99
:102AD000DFF8F425126832F04002DFF8EC351A60B6
:102AE0004000D4E7704738B504000D00B5F1500040
:102AF000C0B2FFF7BBFFE4B2200950F01000C0B233
:102B0000FFF7B4FF14F00F0050F00100C0B2FFF760
:102B1000ADFF31BD70B5040000200500EDB2082DF9
:102B200017DAB5F15000C0B2FFF7A0FF0120FFF7A0
:102B30009DFF1020FFF79AFF00200600F6B2802EBE
:102B400005DA2000C0B2FFF751FF761CF6E76D1CD6
:102B5000E4E770BD38B500200400E4B2082C16DAB2
:102B6000B4F15000C0B2FFF781FF0120FFF77EFFF4
:102B70001020FFF77BFF00200500EDB2802D04DA66
:102B80000020FFF733FF6D1CF7E7641CE5E731BD5C
:102B900038B504000D00B5F15000C0B2FFF766FF74
:102BA0000120FFF763FF1020FFF760FF2900C9B283
:102BB0002000C0B2FFF797FFE4B2802C04DA0020B7
:102BC000FFF714FF641CF7E731BD80B2002808D07E
:102BD000642211000A00511E92B2002AFAD1401E4E
:102BE000F3E7704780B54FF48070DFF8E0140860B9
:102BF0004FF48070DFF8D81408604FF48070DFF86D
:102C0000D41408604FF48070DFF8CC1408605520AD
:102C1000DFF8C8140860DFF8B004006850F0400026
:102C2000DFF8A4140860DFF8A004006830F00400A6
:102C3000DFF8941408603220FFF7C7FFDFF888043C
:102C4000006850F00400DFF880140860AE20FFF741
:102C50000DFF0020FFF70AFF1020FFF707FF4020BD
:102C6000FFF704FF8120FFF701FFCF20FFF7FEFEF3
:102C7000A120FFF7FBFEC820FFF7F8FEA620FFF714
:102C8000F5FEA820FFF7F2FE3F20FFF7EFFED3206E
:102C9000FFF7ECFE0020FFF7E9FED520FFF7E6FE88
:102CA0008020FFF7E3FED920FFF7E0FEF120FFF7D9
:102CB000DDFEDA20FFF7DAFE1220FFF7D7FEDB2079
:102CC000FFF7D4FE4020FFF7D1FE2020FFF7CEFE15
:102CD0000220FFF7CBFE8D20FFF7C8FE1420FFF780
:102CE000C5FEA420FFF7C2FEA620FFF7BFFEAF205F
:102CF000FFF7BCFE0020FFF70DFF00210020FFF7CB
:102D0000F2FE01BD2DE9F041040088461500B5F141
:102D100020000700E4B27F2C03DB0020040018F140
:102D200001084146C9B22000C0B2FFF7DCFE002016
:102D30000600F6B2062E0BDADFF8A403FFB2062176
:102D400001FB0700F6B2305CFFF750FE761CF0E79F
:102D5000BDE8F0812DE9F84304000D0016000027BE
:102D60005FF000085FF000095FFA89F919F80600C2
:102D700000282BD05FFA89F919F8060020380700DF
:102D8000E4B27F2C02DB002004006D1C2900C9B2D4
:102D90002000C0B2FFF7A7FE002080465FFA88F847
:102DA000B8F1060F0EDADFF83803FFB2062101FB97
:102DB00007005FFA88F818F80000FFF717FE18F10F
:102DC0000108EBE7A41D19F10109CDE7BDE8F18386
:102DD0002DE9FF4781460C009246002500AE504683
:102DE000002101F047F80ED22D208DF800009DF84B
:102DF00000202100C9B24846C0B2FFF783FF19F195
:102E000006099AF0004A504600F042FA80464046D1
:102E100000F076F90100504601F03EF80700DFF8B7
:102E2000C40280450EDBDFF8BC0298FBF0F03030C6
:102E300000A9EDB26854DFF8AC0298FBF0F100FB9A
:102E400011886D1CDFF8A00280450FDBDFF89802C7
:102E500098FBF0F0303000A9EDB26854DFF888023A
:102E600098FBF0F100FB11886D1C0BE0DFF8780295
:102E7000804507DAEDB2002D04D0302000A9EDB274
:102E800068546D1CDFF8640280450FDBDFF85C02DC
:102E900098FBF0F0303000A9EDB26854DFF84C0236
:102EA00098FBF0F100FB11886D1C0BE0DFF83C0291
:102EB000804507DAEDB2002D04D0302000A9EDB234
:102EC00068546D1CDFF8280280450FDBDFF8200214
:102ED00098FBF0F0303000A9EDB26854DFF8100232
:102EE00098FBF0F100FB11886D1C0BE0DFF800028D
:102EF000804507DAEDB2002D04D0302000A9EDB2F4
:102F000068546D1CDFF8EC0180450FDBDFF8E4014D
:102F100098FBF0F0303000A9EDB26854DFF8D4012E
:102F200098FBF0F100FB11886D1C0BE0DFF8C40189
:102F3000804507DAEDB2002D04D0302000A9EDB2B3
:102F400068546D1C42F2107080450FDB42F2107025
:102F500098FBF0F0303000A9EDB2685442F21070E6
:102F600098FBF0F100FB11886D1C0BE042F2107031
:102F7000804507DAEDB2002D04D0302000A9EDB273
:102F800068546D1CB8F57A7F0FDB4FF47A7098FBAC
:102F9000F0F0303000A9EDB268544FF47A7098FB2D
:102FA000F0F100FB11886D1C0AE0B8F57A7F07DAB2
:102FB000EDB2002D04D0302000A9EDB268546D1C94
:102FC000B8F1640F0DDB642098FBF0F0303000A9FD
:102FD000EDB26854642098FBF0F100FB11886D1C81
:102FE0000AE0B8F1640F07DAEDB2002D04D030200A
:102FF00000A9EDB268546D1CB8F10A0F0DDB0A2070
:1030000098FBF0F0303000A9EDB268540A2098FB2C
:10301000F0F100FB11886D1C0AE0B8F10A0F07DA25
:10302000EDB2002D04D0302000A9EDB268546D1C23
:1030300018F1300000A9EDB268543800DFF8B8107C
:1030400000F09EFF32D86D1C2E2000A9EDB268540E
:103050006D1CDFF8A800390000F06CF800F018F9DA
:103060008046642098FBF0F0303000A9EDB268543F
:10307000642098FBF0F100FB11886D1CB8F1010F82
:103080000BDB0A2098FBF0F0303000A9EDB2685459
:103090000A2098FBF0F100FB1188B8F1000F05D46D
:1030A0006D1C18F1300000A9EDB268546D1C0020B1
:1030B00000A9EDB2685432002100C9B24846C0B23E
:1030C000FFF748FEBDE8FF8700F10F4008D004403D
:1030D00000D0044018D0044010D0044014F10F4038
:1030E000AC4C000000CA9A3B00E1F50580969800C0
:1030F00040420F00A086010018B7D13800007A4482
:10310000002840F10980F446404200F005F850F0F4
:1031100000406047002800BF0AD0B0FA80F1884024
:10312000D1F19D01C905020672F1004241EB102068
:1031300070470000FF2212EAD05C1DBF12EAD15393
:10314000944593422BE09C44D30780EA01021A4045
:1031500043EA002043EA0121A1FB0030410038BFCF
:1031600040007CF17F010BDBFE294ADA5B0842EA72
:10317000C15153EA006373F1004C51EB10207047CA
:10318000D1F1080CDCF120012FDB5B0810FA01F112
:103190000B4373F1004120FA0CF050417047944505
:1031A0001CBF02EAD153934280EA010202F00042BE
:1031B0001DD0400019D0490017D05BB9634514D029
:1031C0000902B1FA81F39940BCEB030CC00140F055
:1031D0000040C1E70002B0FA80FC10FA0CF0B3EB3B
:1031E0000C0CC90141F00041B6E7100070474000E7
:1031F0000AD0490008D010F1807F94BF11F1807F80
:1032000002E042F0FF407047D043704790EA010F60
:1032100044BF81F0004100F047BE00BF421A3CBFEE
:10322000801A89184FF0004CC0F3C752FF2A24D0EF
:10323000C1F3C75313B3D21AD2F1190327DD4CEAF5
:1032400001214CFA03F321EA0303D140C20D4CEAF9
:103250000020401834BF20EA0C004CEA5000D20590
:1032600053EA006373EB0C0C52EB1020420012F196
:10327000807F38BF7047C00DC0057047490212BF3C
:103280009A4200EB5120F8E7D2F11703D9D57047E5
:103290004100090E7F3915D4D1F11F0114D440002B
:1032A00007D2C00140F00040C84048BF6FF0004066
:1032B0007047C00140F00040C8404CBF4FF0004094
:1032C000404270470020704700424FF0004058BF16
:1032D000C043704710B4030000242100994207DA6C
:1032E00000242200082A01DA521CFBE7491CF5E7FA
:1032F00010BC704780B5DFF88C064078DFF8881680
:10330000097888420FD1DFF87C068078DFF87C16D8
:103310000978884207D1DFF86C06C078DFF87016AC
:103320000978884240D000F09FF840F6B830FFF7A7
:10333000D1FFDFF854060178012000F0E1F8DFF852
:103340004C060178022000F0DBF8DFF84406017833
:10335000032000F0D5F8DFF83C060178042000F0E7
:10336000CFF80021052000F0CBF85021062000F016
:10337000C7F81421072000F0C3F8C021082000F08E
:10338000BFF81221092000F0BBF802210A2000F04A
:10339000B7F801210B2000F0B3F80C22DFF8E41598
:1033A000002000F0DFF8A6E701BD10B500240020E2
:1033B0000400200040B2DFF8E015097800B209B23D
:1033C000884238DA0222DFF8D415212000F0CAF84A
:1033D000DFF8C80540780002DFF8C015097840180A
:1033E000DFF8BC150860DFF8BC050068DFF8B01531
:1033F00009680818DFF8AC150860DFF8A405006854
:10340000DFF8A4150968884205D2DFF89405006842
:10341000DFF894150860DFF894050068DFF8801580
:103420000968884205D2DFF878050068DFF87C1566
:103430000860641CBDE7DFF86C050068DFF858150C
:103440000978B0FBF1F0DFF8681508600020DFF8BC
:1034500054150860DFF858050068DFF85815086053
:10346000DFF84C05006810BD80B5012200218120E5
:10347000FFF718F8012201218320FFF713F801223A
:1034800001218520FFF70EF8002201218720FFF798
:1034900009F801218520FFF75CF800218720FFF75C
:1034A00058F801218320FFF754F801BD70B50400DE
:1034B0000025002600200500EDB2082D1DDA2006AB
:1034C00004D501218320FFF744F803E00021832085
:1034D000FFF73FF86400760001218720FFF739F8F5
:1034E0008120FFF78DF8002801D056F00106002159
:1034F0008720FFF72EF86D1CDEE73000C0B270BDEC
:1035000038B504000D0000218520FFF722F80220C5
:10351000FFF7E0FE14F07F042000C0B2FFF7C6FF03
:1035200000BF00BF00BF00BF00BF00BF00BF00BFA3
:1035300000BF00BF00BF00BF00BF00BF00BF00BF93
:1035400000BF00BF00BF00BF00BF2800C0B2FFF730
:10355000ADFF40F2A460FFF7BDFE01218520FEF71C
:10356000F8FF31BDF8B504000D00160000218520DC
:10357000FEF7EFFF54F080042000C0B2FFF796FF83
:1035800000200700FFB2F6B2B74206D20020FFF7D4
:103590008DFFFFB278557F1CF4E701218520FEF7EF
:1035A000D8FFF1BD80B5DFF810044078DFF80C14C7
:1035B000097888420FD1DFF800048078DFF8001422
:1035C0000978884207D1DFF8F003C078DFF8F413F8
:1035D0000978884240D000F09FF840F6B830FFF7F5
:1035E00079FEDFF8D8030178012000F0E1F8DFF878
:1035F000D0030178022000F0DBF8DFF8C80301787F
:10360000032000F0D5F8DFF8C0030178042000F0B3
:10361000CFF80021052000F0CBF85021062000F063
:10362000C7F81421072000F0C3F8C021082000F0DB
:10363000BFF81221092000F0BBF802210A2000F097
:10364000B7F801210B2000F0B3F80C22DFF8681363
:10365000002000F0DFF8A6E701BD10B5002400202F
:103660000400200040B2DFF83013097800B209B23C
:10367000884238DA0222DFF85413212000F0CAF819
:10368000DFF8480340780002DFF84013097840185B
:10369000DFF83C130860DFF83C030068DFF8301304
:1036A00009680818DFF82C130860DFF824030068A5
:1036B000DFF824130968884205D2DFF81403006894
:1036C000DFF814130860DFF814030068DFF8001354
:1036D0000968884205D2DFF8F8020068DFF8FC12BA
:1036E0000860641CBDE7DFF8EC020068DFF8A81290
:1036F0000978B0FBF1F0DFF8E81208600020DFF88D
:10370000D4120860DFF8D8020068DFF8D812086029
:10371000DFF8CC02006810BD80B5012200218820AE
:10372000FEF7C0FE012201218920FEF7BBFE012227
:1037300001218A20FEF7B6FE002201218B20FEF730
:10374000B1FE01218A20FEF704FF00218B20FEF745
:1037500000FF01218920FEF7FCFE01BD70B50400C9
:103760000025002600200500EDB2082D1DDA2006F8
:1037700004D501218920FEF7ECFE03E00021892019
:10378000FEF7E7FE6400760001218B20FEF7E1FEE4
:103790008820FEF735FF002801D056F001060021F1
:1037A0008B20FEF7D6FE6D1CDEE73000C0B270BD88
:1037B00038B504000D0000218A20FEF7CAFE022061
:1037C000FFF788FD14F07F042000C0B2FFF7C6FFAA
:1037D00000BF00BF00BF00BF00BF00BF00BF00BFF1
:1037E00000BF00BF00BF00BF00BF00BF00BF00BFE1
:1037F00000BF00BF00BF00BF00BF2800C0B2FFF77E
:10380000ADFF40F2A460FFF765FD01218A20FEF7BD
:10381000A0FE31BDF8B504000D00160000218A207D
:10382000FEF797FE54F080042000C0B2FFF796FF29
:1038300000200700FFB2F6B2B74206D20020FFF721
:103840008DFFFFB278557F1CF4E701218A20FEF737
:1038500080FEF1BD80B564484078644909788842AB
:103860000BD16148807862490978884205D15E4869
:10387000C0786049097888423BD000F0CDF840F626
:10388000B830FFF727FD59480178012000F010F902
:1038900057480178022000F00BF9564801780320C0
:1038A00000F006F954480178042000F001F90021E5
:1038B000052000F0FDF85021062000F0F9F8142151
:1038C000072000F0F5F8C021082000F0F1F81221DF
:1038D000092000F0EDF802210A2000F0E9F80121AA
:1038E0000B2000F0E5F80C223F49002000F012F90F
:1038F000B1E701BD10B5002400200400200040B253
:103900002549097800B209B2884229DA02223B49E6
:10391000212000F0FFF83948407800023749097843
:103920004018374908603748006835490968081861
:10393000344908603248006833490968884203D234
:103940002F48006830490860304800682C490968F1
:10395000884203D22A4800682C490860641CCDE7DD
:10396000284800680C490978B0FBF1F02849086044
:103970000020244908602648006826490860244839
:10398000006810BD6008001400000014010000145D
:1039900002000014030000140C000014A00900141D
:1039A00084080014900800148C080014880800147F
:1039B00094080014980800146C0800140400001403
:1039C000050000140600001407000014A2090014EA
:1039D0009C080014A8080014A4080014A0080014EF
:1039E000AC080014B0080014780800140800001493
:1039F000090000140A0000140B000014A4090014AC
:103A0000B4080014C0080014BC080014B80800145E
:103A1000C4080014C808001480B5012200216620E3
:103A2000FEF740FD012201216420FEF73BFD01224B
:103A300001216220FEF736FD002201216020FEF701
:103A400031FD01216220FEF784FD00216020FEF798
:103A500080FD01216420FEF77CFD01BD70B50400EE
:103A60000025002600200500EDB2082D1DDA2006F5
:103A700004D501216420FEF76CFD03E000216420E1
:103A8000FEF767FD6400760001216020FEF761FD0E
:103A90006620FEF7B5FD002801D056F00106002192
:103AA0006020FEF756FD6D1CDEE73000C0B270BD31
:103AB00038B504000D0000216220FEF74AFD022007
:103AC000FFF708FC14F07F042000C0B2FFF7C6FF28
:103AD00000BF00BF00BF00BF00BF00BF00BF00BFEE
:103AE00000BF00BF00BF00BF00BF00BF00BF00BFDE
:103AF00000BF00BF00BF00BF00BF2800C0B2FFF77B
:103B0000ADFF40F2A460FFF7E5FB01216220FEF764
:103B100020FD31BDF8B504000D0016000021622023
:103B2000FEF717FD54F080042000C0B2FFF796FFA7
:103B300000200700FFB2F6B2B74206D20020FFF71E
:103B40008DFFFFB278557F1CF4E701216220FEF75C
:103B500000FDF1BD2DE9F84304000D0064B2002C16
:103B600008D0022C2CD018D3042C4FD03BD3052CDA
:103B70005FD071E0DFF80402006850F48060DFF885
:103B8000FC1108604FF44071662000F003F94FF417
:103B90004071672000F0FEF85EE0DFF8E0010068A9
:103BA00050F40060DFF8D41108604FF440714320F6
:103BB00000F0F0F84FF44071442000F0EBF84BE0D7
:103BC000DFF8B801006850F48050DFF8B0110860E9
:103BD0004FF44071632000F0DDF84FF44071622033
:103BE00000F0D8F838E0DFF89401006850F4005095
:103BF000DFF8881108604FF44071502000F0CAF8D7
:103C00004FF44071512000F0C5F825E0DFF8700155
:103C1000006850F48060DFF8681108604FF440716C
:103C20004E2000F0B7F84FF440714F2000F0B2F88A
:103C300012E0DFF84C01006850F40060DFF840113A
:103C400008604FF44071892000F0A4F84FF44071EF
:103C5000882000F09FF8FFE7DFF8280164B250F8F1
:103C60002400C07810F0F300464964B251F82410E3
:103C7000C870444864B250F824008078414964B266
:103C800051F82410887064B2002C02D064B2012C68
:103C900006D13D4800684FF47A714843814605E0FB
:103CA0003A4800684FF47A71484381462801B9FBCD
:103CB000F0F00600B6B2B6F5005F02DB41F6FF7029
:103CC0000600B9FBF5F0B6B2B0EB06100700BFB2C4
:103CD000202F04DB40F203112D4800F081F8294821
:103CE00064B250F82400007810F0E0008046C6F37B
:103CF000042050EA0800234964B251F824100870E7
:103D0000204864B250F8240046701E4864B250F84F
:103D10002400807A10F0E000804617F01F0050EA7F
:103D20000800184964B251F824108872154864B22A
:103D300050F82400007C50F08800124964B251F819
:103D4000241008740F4864B250F82400C07850F072
:103D50000C000C4964B251F82410C870BDE8F1831E
:103D6000084A40B252F8202012791206F8D5054AC6
:103D700040B252F82020D1717047000034800440D6
:103D800028800440B4070014440900144C090014AE
:103D9000D451000010B4104A12684FF40073C0B23E
:103DA0004409A3401A430C4B1A600C4AC0B2431199
:103DB00052F82320012310F01F04A340C2F8A030C2
:103DC000064AC0B2431152F82320C0B210F01F03BC
:103DD00042F8231010BC704738800440A00700143C
:103DE00038B504000D00002000F0DCF82A002100A6
:103DF0001B4800F0FFF8002000F0F1F819480068B7
:103E00004FF47A7101FB00F1032000F005F9EDE7B2
:103E100038B504000D00210049B20320FFF7A0FFD0
:103E2000200032BD10B510480468012000F0BAF837
:103E3000012000F0D4F80D48E4B20F2101FB040288
:103E4000E4B221000A4800F0D5F8064800684FF4B3
:103E50007A7101FB00F1032000F0DEF8E8E70000D2
:103E6000685200004C09001404ED00E01C0000142E
:103E7000F05000004FF0807C1CEB400F94BF1CEB17
:103E8000410F05E040EA010C5FEA4C0C01D2884288
:103E9000704718BF8142704790EA010F44BF81F01C
:103EA0000041FFF7BBB900BF431A4FF000423EBFCD
:103EB0005340C01AC91800BFD3095FEAD05C13EBA6
:103EC000400F34BFB3EB410F40E07CEBD1530CD338
:103ED00042EA012122D8D1EB402009D3400A28BF71
:103EE0005FEA500140EBCC507047401A15D04002B9
:103EF000B0FA80F2521C9040400A4FEA3C23B3EBE8
:103F0000026384BF00EB730007E040F400001A1660
:103F1000DB07C2F10102D04018437047182BFCDCCC
:103F200031FA03F202FA03F3591A38BF42F00102E0
:103F3000D2EB40203CBF4000ACF1010C5FEACC5C0E
:103F4000C20572F100414CEB5020704713EB400F5B
:103F50000FD24B0009D0ACEBD153022B03DB49024B
:103F6000172BDDDD70479143401A4300D5D1002067
:103F7000704713EB410FD0D36FF000007047000083
:103F80004FF0807C1CEB400F94BF1CEB410F05E011
:103F900040EA010C5FEA4C0C01D28142704718BF25
:103FA0008842704710B5040064B2042C07DA01227D
:103FB00001210F4864B2205CFEF774FA0EE0042081
:103FC00004002000441E40B2002807D00122012135
:103FD000074864B2205CFEF765FAF2E710BD10B541
:103FE0000400034864B2205CFEF7EDFA10BD000047
:103FF000CC0700140EB400B582B003A900910246AC
:1040000000AB0121034878440A30FCF705FA06BCEE
:104010005DF810FBC512000038B504000D00002D3E
:1040200003D147212848FFF7DBFE2848006850F4F9
:10403000000026490860264800688008800024495E
:104040000860244864B210EB041080684008400007
:10405000204964B211EB04118860681E1D4964B2E6
:10406000220150501B4864B210EB0410C06850F09D
:104070000100184964B211EB0411C860154864B21C
:1040800010EB0410806840084000124964B211EB44
:104090000411886001200F4964B211EB041188609B
:1040A0000C4864B210EB0410C068C007F8D509488A
:1040B00064B210EB0410C06850F00100054964B20E
:1040C00011EB0411C86031BD9C5100003C800440DC
:1040D0000070034000710340072FA913072FA91395
:1040E000072FA913141E00001E000000140000007A
:1040F0007017000000000000000000000000000039
:1041000000000000000000000000000000000000AF
:1041100000004E6F6E4D61736B61626C6500000054
:1041200000486172644661756C7400000000000014
:104130004D656D4D616E6167656D656E7400004221
:1041400075734661756C74000000000000005573C3
:104150006167654661756C74000000000000000036
:10416000000000000000000000000000000000004F
:10417000000000000000000000000000000000003F
:10418000000000000000000000000000000000002F
:10419000000000000000000000535643616C6C00FA
:1041A000000000000000000044656275674D6F6EFE
:1041B00069746F7200000000000000000000000041
:1041C00000000000000050656E64535600000000BF
:1041D00000000000005379735469636B0000000015
:1041E00000000000444D41300000000000000000CD
:1041F000000000444D4131000000000000000000BC
:104200000000444D413200000000000000000000AA
:1042100000444D4133000000000000000000000099
:10422000444D413400000000000000000000004444
:104230004D41350000000000000000000000444D2A
:1042400041360000000000000000000000444D4125
:10425000370000000000000000000000444D41381D
:104260000000000000000000000000444D41390043
:1042700000000000000000000000444D413130000B
:10428000000000000000000000444D4131310000FA
:104290000000000000000000444D413132000000E9
:1042A00000000000000000444D41313300000000D8
:1042B000000000000000444D4131340000000000C7
:1042C0000000000000444D413135000000000000B6
:1042D00000000000444D415F4572726F72000000A3
:1042E0000000004D434D00000000000000000000F1
:1042F00000004654464C0000000000000000000092
:1043000000526561645F436F6C6C6973696F6E0026
:104310004C56445F4C565700000000000000004C13
:104320004C57000000000000000000000000576132
:10433000746368646F6700000000000000524E471D
:10434000000000000000000000000000493243307F
:10435000000000000000000000000049324331006E
:104360000000000000000000000053504930000031
:104370000000000000000000005350493100000020
:10438000000000000000000053504932000000000F
:104390000000000000000043414E305F4F525F4D6F
:1043A000425F6275660043414E305F4275735F4FF6
:1043B000666600000043414E305F4572726F7200C6
:1043C0000000000043414E305F54785F5761726EC9
:1043D000696E6743414E305F52785F5761726E6914
:1043E0006E6743414E305F57616B655F55700000EB
:1043F0000052657365727665643531000000000017
:1044000052657365727665643532000000000043C2
:10441000414E315F4F525F4D425F627566004341CE
:104420004E315F4275735F4F666600000043414E38
:10443000315F4572726F72000000000043414E31DF
:104440005F54785F5761726E696E6743414E315FAA
:1044500052785F5761726E696E6743414E315F57A4
:10446000616B655F5570000000526573657276651B
:10447000643539000000000052657365727665642A
:104480003630000000000055415254305F52585FF2
:1044900054580000000055415254305F45525200BC
:1044A000000000000055415254315F52585F54588B
:1044B0000000000055415254315F45525200000047
:1044C00000000055415254325F52585F545800006A
:1044D000000055415254325F455252000000000026
:1044E0000055415254335F52585F54580000000049
:1044F00055415254335F45525200000000000055B0
:10450000415254345F52585F5458000000005541E6
:104510005254345F45525200000000000055415291
:1045200054355F52585F54580000000055415254B2
:10453000355F455252000000000000414443300006
:104540000000000000000000000041444331000072
:10455000000000000000000000434D50300000004B
:104560000000000000000000434D5031000000003A
:1045700000000000000000434D5032000000000029
:1045800000000000000046544D3000000000000014
:10459000000000000046544D310000000000000003
:1045A0000000000046544D320000000000000000F2
:1045B000000000434D540000000000000000000017
:1045C0000000525443000000000000000000000002
:1045D0000052657365727665643833000000000030
:1045E000504954300000000000000000000000505E
:1045F0004954310000000000000000000000504954
:104600005432000000000000000000000050495437
:104610003300000000000000000000005044423061
:104620000000000000000000000000555342300070
:1046300000000000000000000000555342444344C5
:10464000000000000000000000454E45545F313579
:1046500038385F54696D6572454E45545F547261D8
:104660006E736D69740000454E45545F5265636515
:10467000697665000000454E45545F4572726F7261
:10468000000000000049325330000000000000002C
:1046900000000000534448430000000000000000F8
:1046A0000000004441433000000000000000000012
:1046B0000000444143310000000000000000000001
:1046C00000545349300000000000000000000000CA
:1046D0004D43470000000000000000000000004CB7
:1046E0005054696D657200000000000000005265C2
:1046F00073657276656431303200000000504F52AD
:10470000544100000000000000000000504F5254CF
:104710004200000000000000000000504F525443CF
:1047200000000000000000000000504F5254440000
:10473000000000000000000000504F5254450000EF
:104740000000000000000000526573657276656429
:10475000313038000000005265736572766564314F
:10476000303900000000526573657276656431313E
:104770003000000000526573657276656431313136
:104780000000000052657365727665643131320055
:104790000000005265736572766564313133000044
:1047A0000000526573657276656431313400000033
:1047B0000052657365727665643131350000000022
:1047C00052657365727665643131360000000052BF
:1047D000657365727665643131370000000052659B
:1047E000736572766564313138000000005265737C
:1047F0006572766564313139000000000080034045
:104800000090034000800B4000F00F4040F00F404C
:1048100080F00F40C0F00F4000F10F4066000A1D0D
:1048200032000701640007106E00040678000408D7
:104830008200040A8C00040C9600040EA0000410F0
:10484000AA000412B4000414BE000416C800041820
:10485000D200041ADC00041CE100041DE600041E62
:10486000EB00041FF4000317FA00031813010106FC
:104870002C010214000109080090044000A004402B
:1048800000B0044000C0044000D0044000A0064036
:1048900000B0064000C0064000D0064000A00E4018
:1048A00000B00E40343536370204010150090014BF
:1048B000A0090014500900145009001450090014F4
:1048C0000D080014F40700140000000000000000B0
:1048D00000000000000000000000000000000000D8
:1048E000000000000000000000000000DFF800F001
:1048F00011080014DFF8981340B231F8201040B2CC
:104900000128C0F26A8140B2162880F26681002236
:10491000DFF880331A7089B23D2904DA0022DFF80B
:1049200074335A7077E089B2792904DA0122DFF80A
:1049300064335A706FE089B2B52904DA0222DFF8D5
:1049400054335A7067E089B2F12904DA0322DFF8A0
:1049500044335A705FE089B2B1F5967F04DC0422DB
:10496000DFF830335A7056E089B2B1F5B47F04DC19
:104970000522DFF820335A704DE089B2B1F5D27FBD
:1049800004DC0622DFF80C335A7044E089B2B1F53A
:10499000F07F04DC0722DFF8FC325A703BE089B27A
:1049A000B1F5077F04DC0822DFF8E8325A7032E004
:1049B00089B2B1F5167F03DC0922B64B5A702AE0A2
:1049C00089B2B1F5257F03DC0A22B24B5A7022E08E
:1049D00089B2B1F5347F03DC0B22AE4B5A701AE07A
:1049E00089B2B1F5437F03DC0C22AA4B5A7012E066
:1049F00089B2B1F5527F03DC0D22A64B5A700AE052
:104A000089B2B1F5617F03DC0E22A24B5A7002E03D
:104A10000F22A04B5A7089B21A2903DA00229D4B4B
:104A20009A7069E089B2332903DA0122994B9A70AE
:104A300062E089B24C2903DA0222964B9A705BE05D
:104A400089B2652903DA0322924B9A7054E089B245
:104A50007E2903DA04228F4B9A704DE089B29729A0
:104A600003DA05228B4B9A7046E089B2B02903DA4B
:104A70000622884B9A703FE089B2C92903DA0722DF
:104A8000844B9A7038E089B2E22903DA0822814B1C
:104A90009A7031E089B2FB2903DA09227D4B9A70C2
:104AA0002AE089B2B1F58A7F03DA0A22794B9A703B
:104AB00022E089B2B1F5967F03DC0B22754B9A7028
:104AC0001AE089B2B1F5A37F03DA0C22714B9A7018
:104AD00012E089B2B1F5AF7F03DC0D226D4B9A7005
:104AE0000AE089B2B1F5BC7F03DA0E22694B9A70F5
:104AF00002E00F22674B9A7089B21A2903DA00226A
:104B0000644BDA7069E089B2332903DA0122614B20
:104B1000DA7062E089B24C2903DA02225D4BDA7066
:104B20005BE089B2652903DA03225A4BDA7054E05C
:104B300089B27E2903DA0422564BDA704DE089B23D
:104B4000972903DA0522534BDA7046E089B2B0297F
:104B500003DA06224F4BDA703FE089B2C92903DA43
:104B600007224C4BDA7038E089B2E22903DA0822D6
:104B7000484BDA7031E089B2FB2903DA0922454B50
:104B8000DA702AE089B2B1F58A7F03DA0A22414B52
:104B9000DA7022E089B2B1F5967F03DC0B223D4B3F
:104BA000DA701AE089B2B1F5A37F03DA0C22394B2F
:104BB000DA7012E089B2B1F5AF7F03DC0D22354B1C
:104BC000DA700AE089B2B1F5BC7F03DA0E22314B0C
:104BD000DA7002E00F222F4BDA70704710B5040034
:104BE000200040B2FFF786FE2B48007810F0FD0051
:104BF000294908702848007850F0100026490870AC
:104C0000B8202649087026480078C006FBD42448FE
:104C10000078C0F38100C0B20228F8D11D48C378E3
:104C20001C4882781B4841781A480078FFF75EFEDE
:104C3000174864B210EB8400807810F0070019491F
:104C40000870134864B210EB8400C07810F01F00A5
:104C500050F0400014490870114800788006FBD5D8
:104C60000F4800784006FBD50C48007810F03F0054
:104C70000A4908700A480078C0F38100C0B20328CE
:104C8000F8D1034864B230F82400C0B210BD00006F
:104C9000440700149C0700140140064000400640F1
:104CA0000640064004400640054006400000000063
:104CB00000000000002F00000000070007000014A3
:104CC0007F147F1400242A7F2A12006264081323B1
:104CD00000364955225000000503000000001C2248
:104CE0004100000041221C000014083E0814000886
:104CF000083E0808000000A0600000080808080836
:104D0000000060600000002010080402003E5149CD
:104D1000453E0000427F400000426151494600216B
:104D200041454B31001814127F1000274545453985
:104D3000003C4A49493000017109050300364949E0
:104D4000493600064949291E000036360000000099
:104D500056360000000814224100001414141414E4
:104D6000000041221408000201510906003249598D
:104D7000513E007C1211127C007F49494936003EA9
:104D800041414122007F4141221C007F4949494164
:104D9000007F09090901003E4149497A007F08085E
:104DA000087F0000417F4100002040413F01007F1B
:104DB00008142241007F40404040007F020C027FE7
:104DC000007F0408107F003E4141413E007F0909F9
:104DD0000906003E4151215E007F0919294600461F
:104DE000494949310001017F0101003F4040403FF6
:104DF000001F2040201F003F4038403F0063140840
:104E0000146300070870080700615149454300001A
:104E10007F41410000552A552A55000041417F003D
:104E20000004020102040040404040400000010232
:104E30000400002054545478007F4844443800381B
:104E40004444442000384444487F003854545418A3
:104E500000087E0901020018A4A4A47C007F0804B5
:104E600004780000447D4000004080847D00007F85
:104E7000102844000000417F4000007C04180478A2
:104E8000007C0804047800384444443800FC24249E
:104E900024180018242418FC007C08040408004886
:104EA0005454542000043F444020003C4040207CA7
:104EB000001C2040201C003C4030403C0044281096
:104EC0002844001CA0A0A07C004464544C4414144A
:104ED0001414141480B500F08DF800F023F800F0DD
:104EE00003F8FDF747FAFEE780B50420FFF776FEEA
:104EF00032490860314800684FF47A7148433049BC
:104F000008602F4800682F490968C1F30361491CF4
:104F1000B0FBF1F02C4908605FF4E1310320FEF7AB
:104F200019FE01BD2DE9F8432848294988420DD0D2
:104F300000208046B8F5826F08D2254850F8280036
:104F4000224941F8280018F10108F3E71F4800F052
:104F500071F8204807002048060020480400A01BE4
:104F600080464046B0F10108002804D030783870FF
:104F7000761C7F1CF5E71A4881461A480500B5EBF8
:104F8000090080464046B0F10108002805D0002005
:104F900089F8000019F10109F4E713481349144A8C
:104FA000531A98464346B3F10108002B04D00B78FE
:104FB0000370491C401CF5E7BDE8F1834809001463
:104FC00044090014448004404C0900140000FF1FF1
:104FD0000000000000000014D8400000EC48000071
:104FE00060080014AC0900141008001460500000A0
:104FF000B050000080B500F009F80C4800884FF66A
:10500000FE7108400949088001BD0000EFF31180DE
:1050100072B64CF22051064A11804DF62811044A0E
:105020001180C0B2002800D162B670470020054050
:105030000E20054010B504004FF4007094FBF0F111
:1050400001FB1041002903D01E210348FEF7C8FED2
:105050000248046010BD00000C52000008ED00E0A2
:10506000F0B4114E366834000F4E366856F47F06A1
:105070000D4F3E600E0616F0706656EA0076170574
:1050800017F470073E431F0417F470273E43074F81
:105090003E6000263500EDB29D4201D26D1CFAE75C
:1050A000014E3460F0BC704700F001404480044081
:1050B00019E050F8041BCB0744BFA9F101035918AC
:1050C000121F0023042A41F8043BF9D25FEA827CD4
:1050D0000B4604D54FF0000CA1F800C09B1CD10773
:1050E00044BF0021197050F8042B002AE1D1704709
:1050F0000A2A2A2A2A64656661756C745F6973726C
:1051000020656E7465726564206F6E2076656374C9
:105110006F722025642A2A2A2A2A0A0A257320491E
:105120006E7465727275707400000000433A5C55CD
:10513000736572735C78756C69616E675C446573E6
:105140006B746F705CB5E7B9ECB3CCD0F25C4368BC
:1051500069705C7372635C4D4B36305F66746D2EA4
:1051600063000000433A5C55736572735C78756C3C
:1051700069616E675C4465736B746F705CB5E7B9A9
:10518000ECB3CCD0F25C436869705C7372635C4DC5
:105190004B36305F6770696F2E630000433A5C5591
:1051A000736572735C78756C69616E675C44657376
:1051B0006B746F705CB5E7B9ECB3CCD0F25C43684C
:1051C00069705C7372635C4D4B36305F5049542E8E
:1051D00063000000433A5C55736572735C78756CCC
:1051E00069616E675C4465736B746F705CB5E7B939
:1051F000ECB3CCD0F25C436869705C7372635C4D55
:105200004B36305F756172742E630000433A5C5513
:10521000736572735C78756C69616E675C44657305
:105220006B746F705CB5E7B9ECB3CCD0F25C4368DB
:1052300069705C7372635C6D6973632E6300000058
:1052400010B5074979441831064C7C44163404E003
:105250000A68081D511888470146A142F8D110BDBF
:105260002C00000038000000417373657274696F90
:105270006E206661696C656420696E20257320610B
:1052800074206C696E652025640A000025FEFFFF0E
:105290004C010000600800140000000000F00BF852
:1052A000002801D0FFF7CCFF0020C046C046FDF724
:1052B00061F800F002F80120704700F001B800002A
:1052C0000746384600F002F8FBE7000020210903FA
:1052D00026311820ABBEF9E738B504460D462846FE
:1052E00000F006F8A84218BF0024204632BD000096
:1052F0000149FEF78DBD00BFD0070014476574203B
:105300006469666665720000526D6178204C6D6953
:105310006E0000004C6D617820526D696E000000D7
:10532000C046C046C046C046FFF7B8FF4C472052B3
:10533000473A00004D69643A000000004C6D20526D
:105340006D3A0000445F4D696400000000000000F9
:10535000000000000000000000000000000000004D
:105360000000000000000000FFFFFFFFFFFFFFFF45
:10537000000000000000000000000000000000002D
:10538000000000000000000000000000000000001D
:1053900000000000FFFFFFFFFFFF00000000000013
:1053A00000000000000000000000000000000000FD
:1053B00000000000000000000000000000000000ED
:1053C00000000000000000000000000000000000DD
:0453D00000000000D9
:040000050000532183
:00000001FF
